{
	"token.sol": {
		"DEX": {
			"abi": [
				{
					"inputs": [],
					"stateMutability": "nonpayable",
					"type": "constructor"
				},
				{
					"anonymous": false,
					"inputs": [
						{
							"indexed": false,
							"internalType": "uint256",
							"name": "amount",
							"type": "uint256"
						}
					],
					"name": "Bought",
					"type": "event"
				},
				{
					"anonymous": false,
					"inputs": [
						{
							"indexed": false,
							"internalType": "uint256",
							"name": "amount",
							"type": "uint256"
						}
					],
					"name": "Sold",
					"type": "event"
				},
				{
					"inputs": [],
					"name": "buy",
					"outputs": [],
					"stateMutability": "payable",
					"type": "function"
				},
				{
					"inputs": [
						{
							"internalType": "uint256",
							"name": "amount",
							"type": "uint256"
						}
					],
					"name": "sell",
					"outputs": [],
					"stateMutability": "nonpayable",
					"type": "function"
				},
				{
					"inputs": [],
					"name": "token",
					"outputs": [
						{
							"internalType": "contract IERC20",
							"name": "",
							"type": "address"
						}
					],
					"stateMutability": "view",
					"type": "function"
				}
			],
			"devdoc": {
				"kind": "dev",
				"methods": {},
				"version": 1
			},
			"evm": {
				"assembly": "    /* \"token.sol\":2745:3717  contract DEX {\r... */\n  mstore(0x40, 0x80)\n    /* \"token.sol\":2867:2926  constructor() {\r... */\n  callvalue\n  dup1\n  iszero\n  tag_1\n  jumpi\n  0x00\n  dup1\n  revert\ntag_1:\n  pop\n    /* \"token.sol\":2910:2918  new md() */\n  mload(0x40)\n  tag_4\n  swap1\n  tag_5\n  jump\t// in\ntag_4:\n  mload(0x40)\n  dup1\n  swap2\n  sub\n  swap1\n  0x00\n  create\n  dup1\n  iszero\n  dup1\n  iszero\n  tag_6\n  jumpi\n  returndatasize\n  0x00\n  dup1\n  returndatacopy\n  revert(0x00, returndatasize)\ntag_6:\n  pop\n    /* \"token.sol\":2902:2907  token */\n  0x00\n  dup1\n    /* \"token.sol\":2902:2918  token = new md() */\n  0x0100\n  exp\n  dup2\n  sload\n  dup2\n  0xffffffffffffffffffffffffffffffffffffffff\n  mul\n  not\n  and\n  swap1\n  dup4\n  0xffffffffffffffffffffffffffffffffffffffff\n  and\n  mul\n  or\n  swap1\n  sstore\n  pop\n    /* \"token.sol\":2745:3717  contract DEX {\r... */\n  jump(tag_7)\ntag_5:\n  dataSize(sub_1)\n  dup1\n  dataOffset(sub_1)\n  dup4\n  codecopy\n  add\n  swap1\n  jump\t// out\ntag_7:\n  dataSize(sub_0)\n  dup1\n  dataOffset(sub_0)\n  0x00\n  codecopy\n  0x00\n  return\nstop\n\nsub_0: assembly {\n        /* \"token.sol\":2745:3717  contract DEX {\r... */\n      mstore(0x40, 0x80)\n      jumpi(tag_1, lt(calldatasize, 0x04))\n      shr(0xe0, calldataload(0x00))\n      dup1\n      0xa6f2ae3a\n      eq\n      tag_2\n      jumpi\n      dup1\n      0xe4849b32\n      eq\n      tag_3\n      jumpi\n      dup1\n      0xfc0c546a\n      eq\n      tag_4\n      jumpi\n    tag_1:\n      0x00\n      dup1\n      revert\n        /* \"token.sol\":2934:3308  function buy() payable public {\r... */\n    tag_2:\n      tag_5\n      tag_6\n      jump\t// in\n    tag_5:\n      stop\n        /* \"token.sol\":3316:3712  function sell(uint256 amount) public {\r... */\n    tag_3:\n      callvalue\n      dup1\n      iszero\n      tag_7\n      jumpi\n      0x00\n      dup1\n      revert\n    tag_7:\n      pop\n      tag_8\n      0x04\n      dup1\n      calldatasize\n      sub\n      dup2\n      add\n      swap1\n      tag_9\n      swap2\n      swap1\n      tag_10\n      jump\t// in\n    tag_9:\n      tag_11\n      jump\t// in\n    tag_8:\n      stop\n        /* \"token.sol\":2839:2858  IERC20 public token */\n    tag_4:\n      callvalue\n      dup1\n      iszero\n      tag_12\n      jumpi\n      0x00\n      dup1\n      revert\n    tag_12:\n      pop\n      tag_13\n      tag_14\n      jump\t// in\n    tag_13:\n      mload(0x40)\n      tag_15\n      swap2\n      swap1\n      tag_16\n      jump\t// in\n    tag_15:\n      mload(0x40)\n      dup1\n      swap2\n      sub\n      swap1\n      return\n        /* \"token.sol\":2934:3308  function buy() payable public {\r... */\n    tag_6:\n        /* \"token.sol\":2975:2994  uint256 amountTobuy */\n      0x00\n        /* \"token.sol\":2997:3006  msg.value */\n      callvalue\n        /* \"token.sol\":2975:3006  uint256 amountTobuy = msg.value */\n      swap1\n      pop\n        /* \"token.sol\":3017:3035  uint256 dexBalance */\n      0x00\n        /* \"token.sol\":3038:3043  token */\n      dup1\n      0x00\n      swap1\n      sload\n      swap1\n      0x0100\n      exp\n      swap1\n      div\n      0xffffffffffffffffffffffffffffffffffffffff\n      and\n        /* \"token.sol\":3038:3053  token.balanceOf */\n      0xffffffffffffffffffffffffffffffffffffffff\n      and\n      0x70a08231\n        /* \"token.sol\":3062:3066  this */\n      address\n        /* \"token.sol\":3038:3068  token.balanceOf(address(this)) */\n      mload(0x40)\n      dup3\n      0xffffffff\n      and\n      0xe0\n      shl\n      dup2\n      mstore\n      0x04\n      add\n      tag_18\n      swap2\n      swap1\n      tag_19\n      jump\t// in\n    tag_18:\n      0x20\n      mload(0x40)\n      dup1\n      dup4\n      sub\n      dup2\n      dup7\n      dup1\n      extcodesize\n      iszero\n      dup1\n      iszero\n      tag_20\n      jumpi\n      0x00\n      dup1\n      revert\n    tag_20:\n      pop\n      gas\n      staticcall\n      iszero\n      dup1\n      iszero\n      tag_22\n      jumpi\n      returndatasize\n      0x00\n      dup1\n      returndatacopy\n      revert(0x00, returndatasize)\n    tag_22:\n      pop\n      pop\n      pop\n      pop\n      mload(0x40)\n      returndatasize\n      not(0x1f)\n      0x1f\n      dup3\n      add\n      and\n      dup3\n      add\n      dup1\n      0x40\n      mstore\n      pop\n      dup2\n      add\n      swap1\n      tag_23\n      swap2\n      swap1\n      tag_24\n      jump\t// in\n    tag_23:\n        /* \"token.sol\":3017:3068  uint256 dexBalance = token.balanceOf(address(this)) */\n      swap1\n      pop\n        /* \"token.sol\":3101:3102  0 */\n      0x00\n        /* \"token.sol\":3087:3098  amountTobuy */\n      dup3\n        /* \"token.sol\":3087:3102  amountTobuy > 0 */\n      gt\n        /* \"token.sol\":3079:3134  require(amountTobuy > 0, \"You need to send some ether\") */\n      tag_25\n      jumpi\n      mload(0x40)\n      0x08c379a000000000000000000000000000000000000000000000000000000000\n      dup2\n      mstore\n      0x04\n      add\n      tag_26\n      swap1\n      tag_27\n      jump\t// in\n    tag_26:\n      mload(0x40)\n      dup1\n      swap2\n      sub\n      swap1\n      revert\n    tag_25:\n        /* \"token.sol\":3168:3178  dexBalance */\n      dup1\n        /* \"token.sol\":3153:3164  amountTobuy */\n      dup3\n        /* \"token.sol\":3153:3178  amountTobuy <= dexBalance */\n      gt\n      iszero\n        /* \"token.sol\":3145:3215  require(amountTobuy <= dexBalance, \"Not enough tokens in the reserve\") */\n      tag_28\n      jumpi\n      mload(0x40)\n      0x08c379a000000000000000000000000000000000000000000000000000000000\n      dup2\n      mstore\n      0x04\n      add\n      tag_29\n      swap1\n      tag_30\n      jump\t// in\n    tag_29:\n      mload(0x40)\n      dup1\n      swap2\n      sub\n      swap1\n      revert\n    tag_28:\n        /* \"token.sol\":3226:3231  token */\n      0x00\n      dup1\n      sload\n      swap1\n      0x0100\n      exp\n      swap1\n      div\n      0xffffffffffffffffffffffffffffffffffffffff\n      and\n        /* \"token.sol\":3226:3240  token.transfer */\n      0xffffffffffffffffffffffffffffffffffffffff\n      and\n      0xa9059cbb\n        /* \"token.sol\":3241:3251  msg.sender */\n      caller\n        /* \"token.sol\":3253:3264  amountTobuy */\n      dup5\n        /* \"token.sol\":3226:3265  token.transfer(msg.sender, amountTobuy) */\n      mload(0x40)\n      dup4\n      0xffffffff\n      and\n      0xe0\n      shl\n      dup2\n      mstore\n      0x04\n      add\n      tag_31\n      swap3\n      swap2\n      swap1\n      tag_32\n      jump\t// in\n    tag_31:\n      0x20\n      mload(0x40)\n      dup1\n      dup4\n      sub\n      dup2\n      0x00\n      dup8\n      dup1\n      extcodesize\n      iszero\n      dup1\n      iszero\n      tag_33\n      jumpi\n      0x00\n      dup1\n      revert\n    tag_33:\n      pop\n      gas\n      call\n      iszero\n      dup1\n      iszero\n      tag_35\n      jumpi\n      returndatasize\n      0x00\n      dup1\n      returndatacopy\n      revert(0x00, returndatasize)\n    tag_35:\n      pop\n      pop\n      pop\n      pop\n      mload(0x40)\n      returndatasize\n      not(0x1f)\n      0x1f\n      dup3\n      add\n      and\n      dup3\n      add\n      dup1\n      0x40\n      mstore\n      pop\n      dup2\n      add\n      swap1\n      tag_36\n      swap2\n      swap1\n      tag_37\n      jump\t// in\n    tag_36:\n      pop\n        /* \"token.sol\":3281:3300  Bought(amountTobuy) */\n      0x4e08ba899977cf7d4c2964bce71c6b9a7ef76ee5166a4c1249a1e08016e33ef1\n        /* \"token.sol\":3288:3299  amountTobuy */\n      dup3\n        /* \"token.sol\":3281:3300  Bought(amountTobuy) */\n      mload(0x40)\n      tag_38\n      swap2\n      swap1\n      tag_39\n      jump\t// in\n    tag_38:\n      mload(0x40)\n      dup1\n      swap2\n      sub\n      swap1\n      log1\n        /* \"token.sol\":2964:3308  {\r... */\n      pop\n      pop\n        /* \"token.sol\":2934:3308  function buy() payable public {\r... */\n      jump\t// out\n        /* \"token.sol\":3316:3712  function sell(uint256 amount) public {\r... */\n    tag_11:\n        /* \"token.sol\":3381:3382  0 */\n      0x00\n        /* \"token.sol\":3372:3378  amount */\n      dup2\n        /* \"token.sol\":3372:3382  amount > 0 */\n      gt\n        /* \"token.sol\":3364:3424  require(amount > 0, \"You need to sell at least some tokens\") */\n      tag_41\n      jumpi\n      mload(0x40)\n      0x08c379a000000000000000000000000000000000000000000000000000000000\n      dup2\n      mstore\n      0x04\n      add\n      tag_42\n      swap1\n      tag_43\n      jump\t// in\n    tag_42:\n      mload(0x40)\n      dup1\n      swap2\n      sub\n      swap1\n      revert\n    tag_41:\n        /* \"token.sol\":3435:3452  uint256 allowance */\n      0x00\n        /* \"token.sol\":3455:3460  token */\n      dup1\n      0x00\n      swap1\n      sload\n      swap1\n      0x0100\n      exp\n      swap1\n      div\n      0xffffffffffffffffffffffffffffffffffffffff\n      and\n        /* \"token.sol\":3455:3470  token.allowance */\n      0xffffffffffffffffffffffffffffffffffffffff\n      and\n      0xdd62ed3e\n        /* \"token.sol\":3471:3481  msg.sender */\n      caller\n        /* \"token.sol\":3491:3495  this */\n      address\n        /* \"token.sol\":3455:3497  token.allowance(msg.sender, address(this)) */\n      mload(0x40)\n      dup4\n      0xffffffff\n      and\n      0xe0\n      shl\n      dup2\n      mstore\n      0x04\n      add\n      tag_44\n      swap3\n      swap2\n      swap1\n      tag_45\n      jump\t// in\n    tag_44:\n      0x20\n      mload(0x40)\n      dup1\n      dup4\n      sub\n      dup2\n      dup7\n      dup1\n      extcodesize\n      iszero\n      dup1\n      iszero\n      tag_46\n      jumpi\n      0x00\n      dup1\n      revert\n    tag_46:\n      pop\n      gas\n      staticcall\n      iszero\n      dup1\n      iszero\n      tag_48\n      jumpi\n      returndatasize\n      0x00\n      dup1\n      returndatacopy\n      revert(0x00, returndatasize)\n    tag_48:\n      pop\n      pop\n      pop\n      pop\n      mload(0x40)\n      returndatasize\n      not(0x1f)\n      0x1f\n      dup3\n      add\n      and\n      dup3\n      add\n      dup1\n      0x40\n      mstore\n      pop\n      dup2\n      add\n      swap1\n      tag_49\n      swap2\n      swap1\n      tag_24\n      jump\t// in\n    tag_49:\n        /* \"token.sol\":3435:3497  uint256 allowance = token.allowance(msg.sender, address(this)) */\n      swap1\n      pop\n        /* \"token.sol\":3529:3535  amount */\n      dup2\n        /* \"token.sol\":3516:3525  allowance */\n      dup2\n        /* \"token.sol\":3516:3535  allowance >= amount */\n      lt\n      iszero\n        /* \"token.sol\":3508:3565  require(allowance >= amount, \"Check the token allowance\") */\n      tag_50\n      jumpi\n      mload(0x40)\n      0x08c379a000000000000000000000000000000000000000000000000000000000\n      dup2\n      mstore\n      0x04\n      add\n      tag_51\n      swap1\n      tag_52\n      jump\t// in\n    tag_51:\n      mload(0x40)\n      dup1\n      swap2\n      sub\n      swap1\n      revert\n    tag_50:\n        /* \"token.sol\":3576:3581  token */\n      0x00\n      dup1\n      sload\n      swap1\n      0x0100\n      exp\n      swap1\n      div\n      0xffffffffffffffffffffffffffffffffffffffff\n      and\n        /* \"token.sol\":3576:3594  token.transferFrom */\n      0xffffffffffffffffffffffffffffffffffffffff\n      and\n      0x23b872dd\n        /* \"token.sol\":3595:3605  msg.sender */\n      caller\n        /* \"token.sol\":3615:3619  this */\n      address\n        /* \"token.sol\":3622:3628  amount */\n      dup6\n        /* \"token.sol\":3576:3629  token.transferFrom(msg.sender, address(this), amount) */\n      mload(0x40)\n      dup5\n      0xffffffff\n      and\n      0xe0\n      shl\n      dup2\n      mstore\n      0x04\n      add\n      tag_53\n      swap4\n      swap3\n      swap2\n      swap1\n      tag_54\n      jump\t// in\n    tag_53:\n      0x20\n      mload(0x40)\n      dup1\n      dup4\n      sub\n      dup2\n      0x00\n      dup8\n      dup1\n      extcodesize\n      iszero\n      dup1\n      iszero\n      tag_55\n      jumpi\n      0x00\n      dup1\n      revert\n    tag_55:\n      pop\n      gas\n      call\n      iszero\n      dup1\n      iszero\n      tag_57\n      jumpi\n      returndatasize\n      0x00\n      dup1\n      returndatacopy\n      revert(0x00, returndatasize)\n    tag_57:\n      pop\n      pop\n      pop\n      pop\n      mload(0x40)\n      returndatasize\n      not(0x1f)\n      0x1f\n      dup3\n      add\n      and\n      dup3\n      add\n      dup1\n      0x40\n      mstore\n      pop\n      dup2\n      add\n      swap1\n      tag_58\n      swap2\n      swap1\n      tag_37\n      jump\t// in\n    tag_58:\n      pop\n        /* \"token.sol\":3648:3658  msg.sender */\n      caller\n        /* \"token.sol\":3640:3668  payable(msg.sender).transfer */\n      0xffffffffffffffffffffffffffffffffffffffff\n      and\n        /* \"token.sol\":3640:3676  payable(msg.sender).transfer(amount) */\n      0x08fc\n        /* \"token.sol\":3669:3675  amount */\n      dup4\n        /* \"token.sol\":3640:3676  payable(msg.sender).transfer(amount) */\n      swap1\n      dup2\n      iszero\n      mul\n      swap1\n      mload(0x40)\n      0x00\n      mload(0x40)\n      dup1\n      dup4\n      sub\n      dup2\n      dup6\n      dup9\n      dup9\n      call\n      swap4\n      pop\n      pop\n      pop\n      pop\n      iszero\n      dup1\n      iszero\n      tag_60\n      jumpi\n      returndatasize\n      0x00\n      dup1\n      returndatacopy\n      revert(0x00, returndatasize)\n    tag_60:\n      pop\n        /* \"token.sol\":3692:3704  Sold(amount) */\n      0x92f64ca637d023f354075a4be751b169c1a8a9ccb6d33cdd0cb3520543995727\n        /* \"token.sol\":3697:3703  amount */\n      dup3\n        /* \"token.sol\":3692:3704  Sold(amount) */\n      mload(0x40)\n      tag_61\n      swap2\n      swap1\n      tag_39\n      jump\t// in\n    tag_61:\n      mload(0x40)\n      dup1\n      swap2\n      sub\n      swap1\n      log1\n        /* \"token.sol\":3353:3712  {\r... */\n      pop\n        /* \"token.sol\":3316:3712  function sell(uint256 amount) public {\r... */\n      pop\n      jump\t// out\n        /* \"token.sol\":2839:2858  IERC20 public token */\n    tag_14:\n      0x00\n      dup1\n      sload\n      swap1\n      0x0100\n      exp\n      swap1\n      div\n      0xffffffffffffffffffffffffffffffffffffffff\n      and\n      dup2\n      jump\t// out\n        /* \"#utility.yul\":7:144   */\n    tag_63:\n        /* \"#utility.yul\":61:66   */\n      0x00\n        /* \"#utility.yul\":92:98   */\n      dup2\n        /* \"#utility.yul\":86:99   */\n      mload\n        /* \"#utility.yul\":77:99   */\n      swap1\n      pop\n        /* \"#utility.yul\":108:138   */\n      tag_65\n        /* \"#utility.yul\":132:137   */\n      dup2\n        /* \"#utility.yul\":108:138   */\n      tag_66\n      jump\t// in\n    tag_65:\n        /* \"#utility.yul\":7:144   */\n      swap3\n      swap2\n      pop\n      pop\n      jump\t// out\n        /* \"#utility.yul\":150:289   */\n    tag_67:\n        /* \"#utility.yul\":196:201   */\n      0x00\n        /* \"#utility.yul\":234:240   */\n      dup2\n        /* \"#utility.yul\":221:241   */\n      calldataload\n        /* \"#utility.yul\":212:241   */\n      swap1\n      pop\n        /* \"#utility.yul\":250:283   */\n      tag_69\n        /* \"#utility.yul\":277:282   */\n      dup2\n        /* \"#utility.yul\":250:283   */\n      tag_70\n      jump\t// in\n    tag_69:\n        /* \"#utility.yul\":150:289   */\n      swap3\n      swap2\n      pop\n      pop\n      jump\t// out\n        /* \"#utility.yul\":295:438   */\n    tag_71:\n        /* \"#utility.yul\":352:357   */\n      0x00\n        /* \"#utility.yul\":383:389   */\n      dup2\n        /* \"#utility.yul\":377:390   */\n      mload\n        /* \"#utility.yul\":368:390   */\n      swap1\n      pop\n        /* \"#utility.yul\":399:432   */\n      tag_73\n        /* \"#utility.yul\":426:431   */\n      dup2\n        /* \"#utility.yul\":399:432   */\n      tag_70\n      jump\t// in\n    tag_73:\n        /* \"#utility.yul\":295:438   */\n      swap3\n      swap2\n      pop\n      pop\n      jump\t// out\n        /* \"#utility.yul\":444:789   */\n    tag_37:\n        /* \"#utility.yul\":511:517   */\n      0x00\n        /* \"#utility.yul\":560:562   */\n      0x20\n        /* \"#utility.yul\":548:557   */\n      dup3\n        /* \"#utility.yul\":539:546   */\n      dup5\n        /* \"#utility.yul\":535:558   */\n      sub\n        /* \"#utility.yul\":531:563   */\n      slt\n        /* \"#utility.yul\":528:647   */\n      iszero\n      tag_75\n      jumpi\n        /* \"#utility.yul\":566:645   */\n      tag_76\n      tag_77\n      jump\t// in\n    tag_76:\n        /* \"#utility.yul\":528:647   */\n    tag_75:\n        /* \"#utility.yul\":686:687   */\n      0x00\n        /* \"#utility.yul\":711:772   */\n      tag_78\n        /* \"#utility.yul\":764:771   */\n      dup5\n        /* \"#utility.yul\":755:761   */\n      dup3\n        /* \"#utility.yul\":744:753   */\n      dup6\n        /* \"#utility.yul\":740:762   */\n      add\n        /* \"#utility.yul\":711:772   */\n      tag_63\n      jump\t// in\n    tag_78:\n        /* \"#utility.yul\":701:772   */\n      swap2\n      pop\n        /* \"#utility.yul\":657:782   */\n      pop\n        /* \"#utility.yul\":444:789   */\n      swap3\n      swap2\n      pop\n      pop\n      jump\t// out\n        /* \"#utility.yul\":795:1124   */\n    tag_10:\n        /* \"#utility.yul\":854:860   */\n      0x00\n        /* \"#utility.yul\":903:905   */\n      0x20\n        /* \"#utility.yul\":891:900   */\n      dup3\n        /* \"#utility.yul\":882:889   */\n      dup5\n        /* \"#utility.yul\":878:901   */\n      sub\n        /* \"#utility.yul\":874:906   */\n      slt\n        /* \"#utility.yul\":871:990   */\n      iszero\n      tag_80\n      jumpi\n        /* \"#utility.yul\":909:988   */\n      tag_81\n      tag_77\n      jump\t// in\n    tag_81:\n        /* \"#utility.yul\":871:990   */\n    tag_80:\n        /* \"#utility.yul\":1029:1030   */\n      0x00\n        /* \"#utility.yul\":1054:1107   */\n      tag_82\n        /* \"#utility.yul\":1099:1106   */\n      dup5\n        /* \"#utility.yul\":1090:1096   */\n      dup3\n        /* \"#utility.yul\":1079:1088   */\n      dup6\n        /* \"#utility.yul\":1075:1097   */\n      add\n        /* \"#utility.yul\":1054:1107   */\n      tag_67\n      jump\t// in\n    tag_82:\n        /* \"#utility.yul\":1044:1107   */\n      swap2\n      pop\n        /* \"#utility.yul\":1000:1117   */\n      pop\n        /* \"#utility.yul\":795:1124   */\n      swap3\n      swap2\n      pop\n      pop\n      jump\t// out\n        /* \"#utility.yul\":1130:1481   */\n    tag_24:\n        /* \"#utility.yul\":1200:1206   */\n      0x00\n        /* \"#utility.yul\":1249:1251   */\n      0x20\n        /* \"#utility.yul\":1237:1246   */\n      dup3\n        /* \"#utility.yul\":1228:1235   */\n      dup5\n        /* \"#utility.yul\":1224:1247   */\n      sub\n        /* \"#utility.yul\":1220:1252   */\n      slt\n        /* \"#utility.yul\":1217:1336   */\n      iszero\n      tag_84\n      jumpi\n        /* \"#utility.yul\":1255:1334   */\n      tag_85\n      tag_77\n      jump\t// in\n    tag_85:\n        /* \"#utility.yul\":1217:1336   */\n    tag_84:\n        /* \"#utility.yul\":1375:1376   */\n      0x00\n        /* \"#utility.yul\":1400:1464   */\n      tag_86\n        /* \"#utility.yul\":1456:1463   */\n      dup5\n        /* \"#utility.yul\":1447:1453   */\n      dup3\n        /* \"#utility.yul\":1436:1445   */\n      dup6\n        /* \"#utility.yul\":1432:1454   */\n      add\n        /* \"#utility.yul\":1400:1464   */\n      tag_71\n      jump\t// in\n    tag_86:\n        /* \"#utility.yul\":1390:1464   */\n      swap2\n      pop\n        /* \"#utility.yul\":1346:1474   */\n      pop\n        /* \"#utility.yul\":1130:1481   */\n      swap3\n      swap2\n      pop\n      pop\n      jump\t// out\n        /* \"#utility.yul\":1487:1605   */\n    tag_87:\n        /* \"#utility.yul\":1574:1598   */\n      tag_89\n        /* \"#utility.yul\":1592:1597   */\n      dup2\n        /* \"#utility.yul\":1574:1598   */\n      tag_90\n      jump\t// in\n    tag_89:\n        /* \"#utility.yul\":1569:1572   */\n      dup3\n        /* \"#utility.yul\":1562:1599   */\n      mstore\n        /* \"#utility.yul\":1487:1605   */\n      pop\n      pop\n      jump\t// out\n        /* \"#utility.yul\":1611:1768   */\n    tag_91:\n        /* \"#utility.yul\":1711:1761   */\n      tag_93\n        /* \"#utility.yul\":1755:1760   */\n      dup2\n        /* \"#utility.yul\":1711:1761   */\n      tag_94\n      jump\t// in\n    tag_93:\n        /* \"#utility.yul\":1706:1709   */\n      dup3\n        /* \"#utility.yul\":1699:1762   */\n      mstore\n        /* \"#utility.yul\":1611:1768   */\n      pop\n      pop\n      jump\t// out\n        /* \"#utility.yul\":1774:2140   */\n    tag_95:\n        /* \"#utility.yul\":1916:1919   */\n      0x00\n        /* \"#utility.yul\":1937:2004   */\n      tag_97\n        /* \"#utility.yul\":2001:2003   */\n      0x25\n        /* \"#utility.yul\":1996:1999   */\n      dup4\n        /* \"#utility.yul\":1937:2004   */\n      tag_98\n      jump\t// in\n    tag_97:\n        /* \"#utility.yul\":1930:2004   */\n      swap2\n      pop\n        /* \"#utility.yul\":2013:2106   */\n      tag_99\n        /* \"#utility.yul\":2102:2105   */\n      dup3\n        /* \"#utility.yul\":2013:2106   */\n      tag_100\n      jump\t// in\n    tag_99:\n        /* \"#utility.yul\":2131:2133   */\n      0x40\n        /* \"#utility.yul\":2126:2129   */\n      dup3\n        /* \"#utility.yul\":2122:2134   */\n      add\n        /* \"#utility.yul\":2115:2134   */\n      swap1\n      pop\n        /* \"#utility.yul\":1774:2140   */\n      swap2\n      swap1\n      pop\n      jump\t// out\n        /* \"#utility.yul\":2146:2512   */\n    tag_101:\n        /* \"#utility.yul\":2288:2291   */\n      0x00\n        /* \"#utility.yul\":2309:2376   */\n      tag_103\n        /* \"#utility.yul\":2373:2375   */\n      0x19\n        /* \"#utility.yul\":2368:2371   */\n      dup4\n        /* \"#utility.yul\":2309:2376   */\n      tag_98\n      jump\t// in\n    tag_103:\n        /* \"#utility.yul\":2302:2376   */\n      swap2\n      pop\n        /* \"#utility.yul\":2385:2478   */\n      tag_104\n        /* \"#utility.yul\":2474:2477   */\n      dup3\n        /* \"#utility.yul\":2385:2478   */\n      tag_105\n      jump\t// in\n    tag_104:\n        /* \"#utility.yul\":2503:2505   */\n      0x20\n        /* \"#utility.yul\":2498:2501   */\n      dup3\n        /* \"#utility.yul\":2494:2506   */\n      add\n        /* \"#utility.yul\":2487:2506   */\n      swap1\n      pop\n        /* \"#utility.yul\":2146:2512   */\n      swap2\n      swap1\n      pop\n      jump\t// out\n        /* \"#utility.yul\":2518:2884   */\n    tag_106:\n        /* \"#utility.yul\":2660:2663   */\n      0x00\n        /* \"#utility.yul\":2681:2748   */\n      tag_108\n        /* \"#utility.yul\":2745:2747   */\n      0x20\n        /* \"#utility.yul\":2740:2743   */\n      dup4\n        /* \"#utility.yul\":2681:2748   */\n      tag_98\n      jump\t// in\n    tag_108:\n        /* \"#utility.yul\":2674:2748   */\n      swap2\n      pop\n        /* \"#utility.yul\":2757:2850   */\n      tag_109\n        /* \"#utility.yul\":2846:2849   */\n      dup3\n        /* \"#utility.yul\":2757:2850   */\n      tag_110\n      jump\t// in\n    tag_109:\n        /* \"#utility.yul\":2875:2877   */\n      0x20\n        /* \"#utility.yul\":2870:2873   */\n      dup3\n        /* \"#utility.yul\":2866:2878   */\n      add\n        /* \"#utility.yul\":2859:2878   */\n      swap1\n      pop\n        /* \"#utility.yul\":2518:2884   */\n      swap2\n      swap1\n      pop\n      jump\t// out\n        /* \"#utility.yul\":2890:3256   */\n    tag_111:\n        /* \"#utility.yul\":3032:3035   */\n      0x00\n        /* \"#utility.yul\":3053:3120   */\n      tag_113\n        /* \"#utility.yul\":3117:3119   */\n      0x1b\n        /* \"#utility.yul\":3112:3115   */\n      dup4\n        /* \"#utility.yul\":3053:3120   */\n      tag_98\n      jump\t// in\n    tag_113:\n        /* \"#utility.yul\":3046:3120   */\n      swap2\n      pop\n        /* \"#utility.yul\":3129:3222   */\n      tag_114\n        /* \"#utility.yul\":3218:3221   */\n      dup3\n        /* \"#utility.yul\":3129:3222   */\n      tag_115\n      jump\t// in\n    tag_114:\n        /* \"#utility.yul\":3247:3249   */\n      0x20\n        /* \"#utility.yul\":3242:3245   */\n      dup3\n        /* \"#utility.yul\":3238:3250   */\n      add\n        /* \"#utility.yul\":3231:3250   */\n      swap1\n      pop\n        /* \"#utility.yul\":2890:3256   */\n      swap2\n      swap1\n      pop\n      jump\t// out\n        /* \"#utility.yul\":3262:3380   */\n    tag_116:\n        /* \"#utility.yul\":3349:3373   */\n      tag_118\n        /* \"#utility.yul\":3367:3372   */\n      dup2\n        /* \"#utility.yul\":3349:3373   */\n      tag_119\n      jump\t// in\n    tag_118:\n        /* \"#utility.yul\":3344:3347   */\n      dup3\n        /* \"#utility.yul\":3337:3374   */\n      mstore\n        /* \"#utility.yul\":3262:3380   */\n      pop\n      pop\n      jump\t// out\n        /* \"#utility.yul\":3386:3608   */\n    tag_19:\n        /* \"#utility.yul\":3479:3483   */\n      0x00\n        /* \"#utility.yul\":3517:3519   */\n      0x20\n        /* \"#utility.yul\":3506:3515   */\n      dup3\n        /* \"#utility.yul\":3502:3520   */\n      add\n        /* \"#utility.yul\":3494:3520   */\n      swap1\n      pop\n        /* \"#utility.yul\":3530:3601   */\n      tag_121\n        /* \"#utility.yul\":3598:3599   */\n      0x00\n        /* \"#utility.yul\":3587:3596   */\n      dup4\n        /* \"#utility.yul\":3583:3600   */\n      add\n        /* \"#utility.yul\":3574:3580   */\n      dup5\n        /* \"#utility.yul\":3530:3601   */\n      tag_87\n      jump\t// in\n    tag_121:\n        /* \"#utility.yul\":3386:3608   */\n      swap3\n      swap2\n      pop\n      pop\n      jump\t// out\n        /* \"#utility.yul\":3614:3946   */\n    tag_45:\n        /* \"#utility.yul\":3735:3739   */\n      0x00\n        /* \"#utility.yul\":3773:3775   */\n      0x40\n        /* \"#utility.yul\":3762:3771   */\n      dup3\n        /* \"#utility.yul\":3758:3776   */\n      add\n        /* \"#utility.yul\":3750:3776   */\n      swap1\n      pop\n        /* \"#utility.yul\":3786:3857   */\n      tag_123\n        /* \"#utility.yul\":3854:3855   */\n      0x00\n        /* \"#utility.yul\":3843:3852   */\n      dup4\n        /* \"#utility.yul\":3839:3856   */\n      add\n        /* \"#utility.yul\":3830:3836   */\n      dup6\n        /* \"#utility.yul\":3786:3857   */\n      tag_87\n      jump\t// in\n    tag_123:\n        /* \"#utility.yul\":3867:3939   */\n      tag_124\n        /* \"#utility.yul\":3935:3937   */\n      0x20\n        /* \"#utility.yul\":3924:3933   */\n      dup4\n        /* \"#utility.yul\":3920:3938   */\n      add\n        /* \"#utility.yul\":3911:3917   */\n      dup5\n        /* \"#utility.yul\":3867:3939   */\n      tag_87\n      jump\t// in\n    tag_124:\n        /* \"#utility.yul\":3614:3946   */\n      swap4\n      swap3\n      pop\n      pop\n      pop\n      jump\t// out\n        /* \"#utility.yul\":3952:4394   */\n    tag_54:\n        /* \"#utility.yul\":4101:4105   */\n      0x00\n        /* \"#utility.yul\":4139:4141   */\n      0x60\n        /* \"#utility.yul\":4128:4137   */\n      dup3\n        /* \"#utility.yul\":4124:4142   */\n      add\n        /* \"#utility.yul\":4116:4142   */\n      swap1\n      pop\n        /* \"#utility.yul\":4152:4223   */\n      tag_126\n        /* \"#utility.yul\":4220:4221   */\n      0x00\n        /* \"#utility.yul\":4209:4218   */\n      dup4\n        /* \"#utility.yul\":4205:4222   */\n      add\n        /* \"#utility.yul\":4196:4202   */\n      dup7\n        /* \"#utility.yul\":4152:4223   */\n      tag_87\n      jump\t// in\n    tag_126:\n        /* \"#utility.yul\":4233:4305   */\n      tag_127\n        /* \"#utility.yul\":4301:4303   */\n      0x20\n        /* \"#utility.yul\":4290:4299   */\n      dup4\n        /* \"#utility.yul\":4286:4304   */\n      add\n        /* \"#utility.yul\":4277:4283   */\n      dup6\n        /* \"#utility.yul\":4233:4305   */\n      tag_87\n      jump\t// in\n    tag_127:\n        /* \"#utility.yul\":4315:4387   */\n      tag_128\n        /* \"#utility.yul\":4383:4385   */\n      0x40\n        /* \"#utility.yul\":4372:4381   */\n      dup4\n        /* \"#utility.yul\":4368:4386   */\n      add\n        /* \"#utility.yul\":4359:4365   */\n      dup5\n        /* \"#utility.yul\":4315:4387   */\n      tag_116\n      jump\t// in\n    tag_128:\n        /* \"#utility.yul\":3952:4394   */\n      swap5\n      swap4\n      pop\n      pop\n      pop\n      pop\n      jump\t// out\n        /* \"#utility.yul\":4400:4732   */\n    tag_32:\n        /* \"#utility.yul\":4521:4525   */\n      0x00\n        /* \"#utility.yul\":4559:4561   */\n      0x40\n        /* \"#utility.yul\":4548:4557   */\n      dup3\n        /* \"#utility.yul\":4544:4562   */\n      add\n        /* \"#utility.yul\":4536:4562   */\n      swap1\n      pop\n        /* \"#utility.yul\":4572:4643   */\n      tag_130\n        /* \"#utility.yul\":4640:4641   */\n      0x00\n        /* \"#utility.yul\":4629:4638   */\n      dup4\n        /* \"#utility.yul\":4625:4642   */\n      add\n        /* \"#utility.yul\":4616:4622   */\n      dup6\n        /* \"#utility.yul\":4572:4643   */\n      tag_87\n      jump\t// in\n    tag_130:\n        /* \"#utility.yul\":4653:4725   */\n      tag_131\n        /* \"#utility.yul\":4721:4723   */\n      0x20\n        /* \"#utility.yul\":4710:4719   */\n      dup4\n        /* \"#utility.yul\":4706:4724   */\n      add\n        /* \"#utility.yul\":4697:4703   */\n      dup5\n        /* \"#utility.yul\":4653:4725   */\n      tag_116\n      jump\t// in\n    tag_131:\n        /* \"#utility.yul\":4400:4732   */\n      swap4\n      swap3\n      pop\n      pop\n      pop\n      jump\t// out\n        /* \"#utility.yul\":4738:4986   */\n    tag_16:\n        /* \"#utility.yul\":4844:4848   */\n      0x00\n        /* \"#utility.yul\":4882:4884   */\n      0x20\n        /* \"#utility.yul\":4871:4880   */\n      dup3\n        /* \"#utility.yul\":4867:4885   */\n      add\n        /* \"#utility.yul\":4859:4885   */\n      swap1\n      pop\n        /* \"#utility.yul\":4895:4979   */\n      tag_133\n        /* \"#utility.yul\":4976:4977   */\n      0x00\n        /* \"#utility.yul\":4965:4974   */\n      dup4\n        /* \"#utility.yul\":4961:4978   */\n      add\n        /* \"#utility.yul\":4952:4958   */\n      dup5\n        /* \"#utility.yul\":4895:4979   */\n      tag_91\n      jump\t// in\n    tag_133:\n        /* \"#utility.yul\":4738:4986   */\n      swap3\n      swap2\n      pop\n      pop\n      jump\t// out\n        /* \"#utility.yul\":4992:5411   */\n    tag_43:\n        /* \"#utility.yul\":5158:5162   */\n      0x00\n        /* \"#utility.yul\":5196:5198   */\n      0x20\n        /* \"#utility.yul\":5185:5194   */\n      dup3\n        /* \"#utility.yul\":5181:5199   */\n      add\n        /* \"#utility.yul\":5173:5199   */\n      swap1\n      pop\n        /* \"#utility.yul\":5245:5254   */\n      dup2\n        /* \"#utility.yul\":5239:5243   */\n      dup2\n        /* \"#utility.yul\":5235:5255   */\n      sub\n        /* \"#utility.yul\":5231:5232   */\n      0x00\n        /* \"#utility.yul\":5220:5229   */\n      dup4\n        /* \"#utility.yul\":5216:5233   */\n      add\n        /* \"#utility.yul\":5209:5256   */\n      mstore\n        /* \"#utility.yul\":5273:5404   */\n      tag_135\n        /* \"#utility.yul\":5399:5403   */\n      dup2\n        /* \"#utility.yul\":5273:5404   */\n      tag_95\n      jump\t// in\n    tag_135:\n        /* \"#utility.yul\":5265:5404   */\n      swap1\n      pop\n        /* \"#utility.yul\":4992:5411   */\n      swap2\n      swap1\n      pop\n      jump\t// out\n        /* \"#utility.yul\":5417:5836   */\n    tag_52:\n        /* \"#utility.yul\":5583:5587   */\n      0x00\n        /* \"#utility.yul\":5621:5623   */\n      0x20\n        /* \"#utility.yul\":5610:5619   */\n      dup3\n        /* \"#utility.yul\":5606:5624   */\n      add\n        /* \"#utility.yul\":5598:5624   */\n      swap1\n      pop\n        /* \"#utility.yul\":5670:5679   */\n      dup2\n        /* \"#utility.yul\":5664:5668   */\n      dup2\n        /* \"#utility.yul\":5660:5680   */\n      sub\n        /* \"#utility.yul\":5656:5657   */\n      0x00\n        /* \"#utility.yul\":5645:5654   */\n      dup4\n        /* \"#utility.yul\":5641:5658   */\n      add\n        /* \"#utility.yul\":5634:5681   */\n      mstore\n        /* \"#utility.yul\":5698:5829   */\n      tag_137\n        /* \"#utility.yul\":5824:5828   */\n      dup2\n        /* \"#utility.yul\":5698:5829   */\n      tag_101\n      jump\t// in\n    tag_137:\n        /* \"#utility.yul\":5690:5829   */\n      swap1\n      pop\n        /* \"#utility.yul\":5417:5836   */\n      swap2\n      swap1\n      pop\n      jump\t// out\n        /* \"#utility.yul\":5842:6261   */\n    tag_30:\n        /* \"#utility.yul\":6008:6012   */\n      0x00\n        /* \"#utility.yul\":6046:6048   */\n      0x20\n        /* \"#utility.yul\":6035:6044   */\n      dup3\n        /* \"#utility.yul\":6031:6049   */\n      add\n        /* \"#utility.yul\":6023:6049   */\n      swap1\n      pop\n        /* \"#utility.yul\":6095:6104   */\n      dup2\n        /* \"#utility.yul\":6089:6093   */\n      dup2\n        /* \"#utility.yul\":6085:6105   */\n      sub\n        /* \"#utility.yul\":6081:6082   */\n      0x00\n        /* \"#utility.yul\":6070:6079   */\n      dup4\n        /* \"#utility.yul\":6066:6083   */\n      add\n        /* \"#utility.yul\":6059:6106   */\n      mstore\n        /* \"#utility.yul\":6123:6254   */\n      tag_139\n        /* \"#utility.yul\":6249:6253   */\n      dup2\n        /* \"#utility.yul\":6123:6254   */\n      tag_106\n      jump\t// in\n    tag_139:\n        /* \"#utility.yul\":6115:6254   */\n      swap1\n      pop\n        /* \"#utility.yul\":5842:6261   */\n      swap2\n      swap1\n      pop\n      jump\t// out\n        /* \"#utility.yul\":6267:6686   */\n    tag_27:\n        /* \"#utility.yul\":6433:6437   */\n      0x00\n        /* \"#utility.yul\":6471:6473   */\n      0x20\n        /* \"#utility.yul\":6460:6469   */\n      dup3\n        /* \"#utility.yul\":6456:6474   */\n      add\n        /* \"#utility.yul\":6448:6474   */\n      swap1\n      pop\n        /* \"#utility.yul\":6520:6529   */\n      dup2\n        /* \"#utility.yul\":6514:6518   */\n      dup2\n        /* \"#utility.yul\":6510:6530   */\n      sub\n        /* \"#utility.yul\":6506:6507   */\n      0x00\n        /* \"#utility.yul\":6495:6504   */\n      dup4\n        /* \"#utility.yul\":6491:6508   */\n      add\n        /* \"#utility.yul\":6484:6531   */\n      mstore\n        /* \"#utility.yul\":6548:6679   */\n      tag_141\n        /* \"#utility.yul\":6674:6678   */\n      dup2\n        /* \"#utility.yul\":6548:6679   */\n      tag_111\n      jump\t// in\n    tag_141:\n        /* \"#utility.yul\":6540:6679   */\n      swap1\n      pop\n        /* \"#utility.yul\":6267:6686   */\n      swap2\n      swap1\n      pop\n      jump\t// out\n        /* \"#utility.yul\":6692:6914   */\n    tag_39:\n        /* \"#utility.yul\":6785:6789   */\n      0x00\n        /* \"#utility.yul\":6823:6825   */\n      0x20\n        /* \"#utility.yul\":6812:6821   */\n      dup3\n        /* \"#utility.yul\":6808:6826   */\n      add\n        /* \"#utility.yul\":6800:6826   */\n      swap1\n      pop\n        /* \"#utility.yul\":6836:6907   */\n      tag_143\n        /* \"#utility.yul\":6904:6905   */\n      0x00\n        /* \"#utility.yul\":6893:6902   */\n      dup4\n        /* \"#utility.yul\":6889:6906   */\n      add\n        /* \"#utility.yul\":6880:6886   */\n      dup5\n        /* \"#utility.yul\":6836:6907   */\n      tag_116\n      jump\t// in\n    tag_143:\n        /* \"#utility.yul\":6692:6914   */\n      swap3\n      swap2\n      pop\n      pop\n      jump\t// out\n        /* \"#utility.yul\":7001:7170   */\n    tag_98:\n        /* \"#utility.yul\":7085:7096   */\n      0x00\n        /* \"#utility.yul\":7119:7125   */\n      dup3\n        /* \"#utility.yul\":7114:7117   */\n      dup3\n        /* \"#utility.yul\":7107:7126   */\n      mstore\n        /* \"#utility.yul\":7159:7163   */\n      0x20\n        /* \"#utility.yul\":7154:7157   */\n      dup3\n        /* \"#utility.yul\":7150:7164   */\n      add\n        /* \"#utility.yul\":7135:7164   */\n      swap1\n      pop\n        /* \"#utility.yul\":7001:7170   */\n      swap3\n      swap2\n      pop\n      pop\n      jump\t// out\n        /* \"#utility.yul\":7176:7272   */\n    tag_90:\n        /* \"#utility.yul\":7213:7220   */\n      0x00\n        /* \"#utility.yul\":7242:7266   */\n      tag_148\n        /* \"#utility.yul\":7260:7265   */\n      dup3\n        /* \"#utility.yul\":7242:7266   */\n      tag_149\n      jump\t// in\n    tag_148:\n        /* \"#utility.yul\":7231:7266   */\n      swap1\n      pop\n        /* \"#utility.yul\":7176:7272   */\n      swap2\n      swap1\n      pop\n      jump\t// out\n        /* \"#utility.yul\":7278:7368   */\n    tag_150:\n        /* \"#utility.yul\":7312:7319   */\n      0x00\n        /* \"#utility.yul\":7355:7360   */\n      dup2\n        /* \"#utility.yul\":7348:7361   */\n      iszero\n        /* \"#utility.yul\":7341:7362   */\n      iszero\n        /* \"#utility.yul\":7330:7362   */\n      swap1\n      pop\n        /* \"#utility.yul\":7278:7368   */\n      swap2\n      swap1\n      pop\n      jump\t// out\n        /* \"#utility.yul\":7374:7500   */\n    tag_149:\n        /* \"#utility.yul\":7411:7418   */\n      0x00\n        /* \"#utility.yul\":7451:7493   */\n      0xffffffffffffffffffffffffffffffffffffffff\n        /* \"#utility.yul\":7444:7449   */\n      dup3\n        /* \"#utility.yul\":7440:7494   */\n      and\n        /* \"#utility.yul\":7429:7494   */\n      swap1\n      pop\n        /* \"#utility.yul\":7374:7500   */\n      swap2\n      swap1\n      pop\n      jump\t// out\n        /* \"#utility.yul\":7506:7583   */\n    tag_119:\n        /* \"#utility.yul\":7543:7550   */\n      0x00\n        /* \"#utility.yul\":7572:7577   */\n      dup2\n        /* \"#utility.yul\":7561:7577   */\n      swap1\n      pop\n        /* \"#utility.yul\":7506:7583   */\n      swap2\n      swap1\n      pop\n      jump\t// out\n        /* \"#utility.yul\":7589:7728   */\n    tag_94:\n        /* \"#utility.yul\":7652:7661   */\n      0x00\n        /* \"#utility.yul\":7685:7722   */\n      tag_155\n        /* \"#utility.yul\":7716:7721   */\n      dup3\n        /* \"#utility.yul\":7685:7722   */\n      tag_156\n      jump\t// in\n    tag_155:\n        /* \"#utility.yul\":7672:7722   */\n      swap1\n      pop\n        /* \"#utility.yul\":7589:7728   */\n      swap2\n      swap1\n      pop\n      jump\t// out\n        /* \"#utility.yul\":7734:7860   */\n    tag_156:\n        /* \"#utility.yul\":7784:7793   */\n      0x00\n        /* \"#utility.yul\":7817:7854   */\n      tag_158\n        /* \"#utility.yul\":7848:7853   */\n      dup3\n        /* \"#utility.yul\":7817:7854   */\n      tag_159\n      jump\t// in\n    tag_158:\n        /* \"#utility.yul\":7804:7854   */\n      swap1\n      pop\n        /* \"#utility.yul\":7734:7860   */\n      swap2\n      swap1\n      pop\n      jump\t// out\n        /* \"#utility.yul\":7866:7979   */\n    tag_159:\n        /* \"#utility.yul\":7916:7925   */\n      0x00\n        /* \"#utility.yul\":7949:7973   */\n      tag_161\n        /* \"#utility.yul\":7967:7972   */\n      dup3\n        /* \"#utility.yul\":7949:7973   */\n      tag_149\n      jump\t// in\n    tag_161:\n        /* \"#utility.yul\":7936:7973   */\n      swap1\n      pop\n        /* \"#utility.yul\":7866:7979   */\n      swap2\n      swap1\n      pop\n      jump\t// out\n        /* \"#utility.yul\":8108:8225   */\n    tag_77:\n        /* \"#utility.yul\":8217:8218   */\n      0x00\n        /* \"#utility.yul\":8214:8215   */\n      dup1\n        /* \"#utility.yul\":8207:8219   */\n      revert\n        /* \"#utility.yul\":8231:8455   */\n    tag_100:\n        /* \"#utility.yul\":8371:8405   */\n      0x596f75206e65656420746f2073656c6c206174206c6561737420736f6d652074\n        /* \"#utility.yul\":8367:8368   */\n      0x00\n        /* \"#utility.yul\":8359:8365   */\n      dup3\n        /* \"#utility.yul\":8355:8369   */\n      add\n        /* \"#utility.yul\":8348:8406   */\n      mstore\n        /* \"#utility.yul\":8440:8447   */\n      0x6f6b656e73000000000000000000000000000000000000000000000000000000\n        /* \"#utility.yul\":8435:8437   */\n      0x20\n        /* \"#utility.yul\":8427:8433   */\n      dup3\n        /* \"#utility.yul\":8423:8438   */\n      add\n        /* \"#utility.yul\":8416:8448   */\n      mstore\n        /* \"#utility.yul\":8231:8455   */\n      pop\n      jump\t// out\n        /* \"#utility.yul\":8461:8636   */\n    tag_105:\n        /* \"#utility.yul\":8601:8628   */\n      0x436865636b2074686520746f6b656e20616c6c6f77616e636500000000000000\n        /* \"#utility.yul\":8597:8598   */\n      0x00\n        /* \"#utility.yul\":8589:8595   */\n      dup3\n        /* \"#utility.yul\":8585:8599   */\n      add\n        /* \"#utility.yul\":8578:8629   */\n      mstore\n        /* \"#utility.yul\":8461:8636   */\n      pop\n      jump\t// out\n        /* \"#utility.yul\":8642:8824   */\n    tag_110:\n        /* \"#utility.yul\":8782:8816   */\n      0x4e6f7420656e6f75676820746f6b656e7320696e207468652072657365727665\n        /* \"#utility.yul\":8778:8779   */\n      0x00\n        /* \"#utility.yul\":8770:8776   */\n      dup3\n        /* \"#utility.yul\":8766:8780   */\n      add\n        /* \"#utility.yul\":8759:8817   */\n      mstore\n        /* \"#utility.yul\":8642:8824   */\n      pop\n      jump\t// out\n        /* \"#utility.yul\":8830:9007   */\n    tag_115:\n        /* \"#utility.yul\":8970:8999   */\n      0x596f75206e65656420746f2073656e6420736f6d652065746865720000000000\n        /* \"#utility.yul\":8966:8967   */\n      0x00\n        /* \"#utility.yul\":8958:8964   */\n      dup3\n        /* \"#utility.yul\":8954:8968   */\n      add\n        /* \"#utility.yul\":8947:9000   */\n      mstore\n        /* \"#utility.yul\":8830:9007   */\n      pop\n      jump\t// out\n        /* \"#utility.yul\":9013:9129   */\n    tag_66:\n        /* \"#utility.yul\":9083:9104   */\n      tag_170\n        /* \"#utility.yul\":9098:9103   */\n      dup2\n        /* \"#utility.yul\":9083:9104   */\n      tag_150\n      jump\t// in\n    tag_170:\n        /* \"#utility.yul\":9076:9081   */\n      dup2\n        /* \"#utility.yul\":9073:9105   */\n      eq\n        /* \"#utility.yul\":9063:9123   */\n      tag_171\n      jumpi\n        /* \"#utility.yul\":9119:9120   */\n      0x00\n        /* \"#utility.yul\":9116:9117   */\n      dup1\n        /* \"#utility.yul\":9109:9121   */\n      revert\n        /* \"#utility.yul\":9063:9123   */\n    tag_171:\n        /* \"#utility.yul\":9013:9129   */\n      pop\n      jump\t// out\n        /* \"#utility.yul\":9135:9257   */\n    tag_70:\n        /* \"#utility.yul\":9208:9232   */\n      tag_173\n        /* \"#utility.yul\":9226:9231   */\n      dup2\n        /* \"#utility.yul\":9208:9232   */\n      tag_119\n      jump\t// in\n    tag_173:\n        /* \"#utility.yul\":9201:9206   */\n      dup2\n        /* \"#utility.yul\":9198:9233   */\n      eq\n        /* \"#utility.yul\":9188:9251   */\n      tag_174\n      jumpi\n        /* \"#utility.yul\":9247:9248   */\n      0x00\n        /* \"#utility.yul\":9244:9245   */\n      dup1\n        /* \"#utility.yul\":9237:9249   */\n      revert\n        /* \"#utility.yul\":9188:9251   */\n    tag_174:\n        /* \"#utility.yul\":9135:9257   */\n      pop\n      jump\t// out\n\n    auxdata: 0xa2646970667358221220bb2ea241ce3a6236296a99aa7600e0559a61252d134f8dfebc2792e0c5e70fb964736f6c63430008070033\n}\n\nsub_1: assembly {\n        /* \"token.sol\":789:2739  contract md is IERC20 {\r... */\n      mstore(0x40, 0x80)\n        /* \"token.sol\":863:865  18 */\n      0x12\n        /* \"token.sol\":1068:1070  10 */\n      0x0a\n        /* \"token.sol\":1068:1080  10**decimals */\n      tag_1\n      swap2\n      swap1\n      tag_2\n      jump\t// in\n    tag_1:\n        /* \"token.sol\":1060:1066  123451 */\n      0x01e23b\n        /* \"token.sol\":1060:1081  123451*(10**decimals) */\n      tag_3\n      swap2\n      swap1\n      tag_4\n      jump\t// in\n    tag_3:\n        /* \"token.sol\":1037:1081  uint256 totalSupply_ = 123451*(10**decimals) */\n      0x04\n      sstore\n        /* \"token.sol\":1088:1268  constructor() {\r... */\n      callvalue\n      dup1\n      iszero\n      tag_5\n      jumpi\n      0x00\n      dup1\n      revert\n    tag_5:\n      pop\n        /* \"token.sol\":1113:1134  name = \"Tim's token \" */\n      mload(0x40)\n      dup1\n      0x40\n      add\n      0x40\n      mstore\n      dup1\n      0x0c\n      dup2\n      mstore\n      0x20\n      add\n      0x54696d277320746f6b656e200000000000000000000000000000000000000000\n      dup2\n      mstore\n      pop\n        /* \"token.sol\":1113:1117  name */\n      0x00\n        /* \"token.sol\":1113:1134  name = \"Tim's token \" */\n      swap1\n      dup1\n      mload\n      swap1\n      0x20\n      add\n      swap1\n      tag_8\n      swap3\n      swap2\n      swap1\n      tag_9\n      jump\t// in\n    tag_8:\n      pop\n        /* \"token.sol\":1145:1159  symbol = \"BNB\" */\n      mload(0x40)\n      dup1\n      0x40\n      add\n      0x40\n      mstore\n      dup1\n      0x03\n      dup2\n      mstore\n      0x20\n      add\n      0x424e420000000000000000000000000000000000000000000000000000000000\n      dup2\n      mstore\n      pop\n        /* \"token.sol\":1145:1151  symbol */\n      0x01\n        /* \"token.sol\":1145:1159  symbol = \"BNB\" */\n      swap1\n      dup1\n      mload\n      swap1\n      0x20\n      add\n      swap1\n      tag_10\n      swap3\n      swap2\n      swap1\n      tag_9\n      jump\t// in\n    tag_10:\n      pop\n        /* \"token.sol\":1193:1205  totalSupply_ */\n      sload(0x04)\n        /* \"token.sol\":1170:1178  balances */\n      0x02\n        /* \"token.sol\":1170:1190  balances[msg.sender] */\n      0x00\n        /* \"token.sol\":1179:1189  msg.sender */\n      caller\n        /* \"token.sol\":1170:1190  balances[msg.sender] */\n      0xffffffffffffffffffffffffffffffffffffffff\n      and\n      0xffffffffffffffffffffffffffffffffffffffff\n      and\n      dup2\n      mstore\n      0x20\n      add\n      swap1\n      dup2\n      mstore\n      0x20\n      add\n      0x00\n      keccak256\n        /* \"token.sol\":1170:1205  balances[msg.sender] = totalSupply_ */\n      dup2\n      swap1\n      sstore\n      pop\n        /* \"token.sol\":789:2739  contract md is IERC20 {\r... */\n      jump(tag_11)\n    tag_9:\n      dup3\n      dup1\n      sload\n      tag_12\n      swap1\n      tag_13\n      jump\t// in\n    tag_12:\n      swap1\n      0x00\n      mstore\n      keccak256(0x00, 0x20)\n      swap1\n      0x1f\n      add\n      0x20\n      swap1\n      div\n      dup2\n      add\n      swap3\n      dup3\n      tag_15\n      jumpi\n      0x00\n      dup6\n      sstore\n      jump(tag_14)\n    tag_15:\n      dup3\n      0x1f\n      lt\n      tag_16\n      jumpi\n      dup1\n      mload\n      not(0xff)\n      and\n      dup4\n      dup1\n      add\n      or\n      dup6\n      sstore\n      jump(tag_14)\n    tag_16:\n      dup3\n      dup1\n      add\n      0x01\n      add\n      dup6\n      sstore\n      dup3\n      iszero\n      tag_14\n      jumpi\n      swap2\n      dup3\n      add\n    tag_17:\n      dup3\n      dup2\n      gt\n      iszero\n      tag_18\n      jumpi\n      dup3\n      mload\n      dup3\n      sstore\n      swap2\n      0x20\n      add\n      swap2\n      swap1\n      0x01\n      add\n      swap1\n      jump(tag_17)\n    tag_18:\n    tag_14:\n      pop\n      swap1\n      pop\n      tag_19\n      swap2\n      swap1\n      tag_20\n      jump\t// in\n    tag_19:\n      pop\n      swap1\n      jump\t// out\n    tag_20:\n    tag_21:\n      dup1\n      dup3\n      gt\n      iszero\n      tag_22\n      jumpi\n      0x00\n      dup2\n      0x00\n      swap1\n      sstore\n      pop\n      0x01\n      add\n      jump(tag_21)\n    tag_22:\n      pop\n      swap1\n      jump\t// out\n        /* \"#utility.yul\":7:855   */\n    tag_24:\n        /* \"#utility.yul\":68:73   */\n      0x00\n        /* \"#utility.yul\":75:79   */\n      dup1\n        /* \"#utility.yul\":99:105   */\n      dup3\n        /* \"#utility.yul\":90:105   */\n      swap2\n      pop\n        /* \"#utility.yul\":123:128   */\n      dup4\n        /* \"#utility.yul\":114:128   */\n      swap1\n      pop\n        /* \"#utility.yul\":137:849   */\n    tag_26:\n        /* \"#utility.yul\":158:159   */\n      0x01\n        /* \"#utility.yul\":148:156   */\n      dup6\n        /* \"#utility.yul\":145:160   */\n      gt\n        /* \"#utility.yul\":137:849   */\n      iszero\n      tag_28\n      jumpi\n        /* \"#utility.yul\":253:257   */\n      dup1\n        /* \"#utility.yul\":248:251   */\n      dup7\n        /* \"#utility.yul\":244:258   */\n      div\n        /* \"#utility.yul\":238:242   */\n      dup2\n        /* \"#utility.yul\":235:259   */\n      gt\n        /* \"#utility.yul\":232:282   */\n      iszero\n      tag_29\n      jumpi\n        /* \"#utility.yul\":262:280   */\n      tag_30\n      tag_31\n      jump\t// in\n    tag_30:\n        /* \"#utility.yul\":232:282   */\n    tag_29:\n        /* \"#utility.yul\":312:313   */\n      0x01\n        /* \"#utility.yul\":302:310   */\n      dup6\n        /* \"#utility.yul\":298:314   */\n      and\n        /* \"#utility.yul\":295:746   */\n      iszero\n      tag_32\n      jumpi\n        /* \"#utility.yul\":727:731   */\n      dup1\n        /* \"#utility.yul\":720:725   */\n      dup3\n        /* \"#utility.yul\":716:732   */\n      mul\n        /* \"#utility.yul\":707:732   */\n      swap2\n      pop\n        /* \"#utility.yul\":295:746   */\n    tag_32:\n        /* \"#utility.yul\":777:781   */\n      dup1\n        /* \"#utility.yul\":771:775   */\n      dup2\n        /* \"#utility.yul\":767:782   */\n      mul\n        /* \"#utility.yul\":759:782   */\n      swap1\n      pop\n        /* \"#utility.yul\":807:839   */\n      tag_33\n        /* \"#utility.yul\":830:838   */\n      dup6\n        /* \"#utility.yul\":807:839   */\n      tag_34\n      jump\t// in\n    tag_33:\n        /* \"#utility.yul\":795:839   */\n      swap5\n      pop\n        /* \"#utility.yul\":137:849   */\n      jump(tag_26)\n    tag_28:\n        /* \"#utility.yul\":7:855   */\n      swap5\n      pop\n      swap5\n      swap3\n      pop\n      pop\n      pop\n      jump\t// out\n        /* \"#utility.yul\":861:1142   */\n    tag_2:\n        /* \"#utility.yul\":919:924   */\n      0x00\n        /* \"#utility.yul\":943:966   */\n      tag_36\n        /* \"#utility.yul\":961:965   */\n      dup3\n        /* \"#utility.yul\":943:966   */\n      tag_37\n      jump\t// in\n    tag_36:\n        /* \"#utility.yul\":935:966   */\n      swap2\n      pop\n        /* \"#utility.yul\":987:1012   */\n      tag_38\n        /* \"#utility.yul\":1003:1011   */\n      dup4\n        /* \"#utility.yul\":987:1012   */\n      tag_39\n      jump\t// in\n    tag_38:\n        /* \"#utility.yul\":975:1012   */\n      swap3\n      pop\n        /* \"#utility.yul\":1031:1135   */\n      tag_40\n        /* \"#utility.yul\":1068:1134   */\n      0xffffffffffffffffffffffffffffffffffffffffffffffffffffffffffffffff\n        /* \"#utility.yul\":1058:1066   */\n      dup5\n        /* \"#utility.yul\":1052:1056   */\n      dup5\n        /* \"#utility.yul\":1031:1135   */\n      tag_41\n      jump\t// in\n    tag_40:\n        /* \"#utility.yul\":1022:1135   */\n      swap1\n      pop\n        /* \"#utility.yul\":861:1142   */\n      swap3\n      swap2\n      pop\n      pop\n      jump\t// out\n        /* \"#utility.yul\":1148:2221   */\n    tag_41:\n        /* \"#utility.yul\":1202:1207   */\n      0x00\n        /* \"#utility.yul\":1393:1401   */\n      dup3\n        /* \"#utility.yul\":1383:1423   */\n      tag_43\n      jumpi\n        /* \"#utility.yul\":1414:1415   */\n      0x01\n        /* \"#utility.yul\":1405:1415   */\n      swap1\n      pop\n        /* \"#utility.yul\":1416:1421   */\n      jump(tag_42)\n        /* \"#utility.yul\":1383:1423   */\n    tag_43:\n        /* \"#utility.yul\":1442:1446   */\n      dup2\n        /* \"#utility.yul\":1432:1468   */\n      tag_44\n      jumpi\n        /* \"#utility.yul\":1459:1460   */\n      0x00\n        /* \"#utility.yul\":1450:1460   */\n      swap1\n      pop\n        /* \"#utility.yul\":1461:1466   */\n      jump(tag_42)\n        /* \"#utility.yul\":1432:1468   */\n    tag_44:\n        /* \"#utility.yul\":1528:1532   */\n      dup2\n        /* \"#utility.yul\":1576:1577   */\n      0x01\n        /* \"#utility.yul\":1571:1598   */\n      dup2\n      eq\n      tag_46\n      jumpi\n        /* \"#utility.yul\":1612:1613   */\n      0x02\n        /* \"#utility.yul\":1607:1798   */\n      dup2\n      eq\n      tag_47\n      jumpi\n        /* \"#utility.yul\":1521:1798   */\n      jump(tag_45)\n        /* \"#utility.yul\":1571:1598   */\n    tag_46:\n        /* \"#utility.yul\":1589:1590   */\n      0x01\n        /* \"#utility.yul\":1580:1590   */\n      swap2\n      pop\n        /* \"#utility.yul\":1591:1596   */\n      pop\n      jump(tag_42)\n        /* \"#utility.yul\":1607:1798   */\n    tag_47:\n        /* \"#utility.yul\":1652:1655   */\n      0xff\n        /* \"#utility.yul\":1642:1650   */\n      dup5\n        /* \"#utility.yul\":1639:1656   */\n      gt\n        /* \"#utility.yul\":1636:1679   */\n      iszero\n      tag_48\n      jumpi\n        /* \"#utility.yul\":1659:1677   */\n      tag_49\n      tag_31\n      jump\t// in\n    tag_49:\n        /* \"#utility.yul\":1636:1679   */\n    tag_48:\n        /* \"#utility.yul\":1708:1716   */\n      dup4\n        /* \"#utility.yul\":1705:1706   */\n      0x02\n        /* \"#utility.yul\":1701:1717   */\n      exp\n        /* \"#utility.yul\":1692:1717   */\n      swap2\n      pop\n        /* \"#utility.yul\":1743:1746   */\n      dup5\n        /* \"#utility.yul\":1736:1741   */\n      dup3\n        /* \"#utility.yul\":1733:1747   */\n      gt\n        /* \"#utility.yul\":1730:1770   */\n      iszero\n      tag_50\n      jumpi\n        /* \"#utility.yul\":1750:1768   */\n      tag_51\n      tag_31\n      jump\t// in\n    tag_51:\n        /* \"#utility.yul\":1730:1770   */\n    tag_50:\n        /* \"#utility.yul\":1783:1788   */\n      pop\n      jump(tag_42)\n        /* \"#utility.yul\":1521:1798   */\n    tag_45:\n      pop\n        /* \"#utility.yul\":1907:1909   */\n      0x20\n        /* \"#utility.yul\":1897:1905   */\n      dup4\n        /* \"#utility.yul\":1894:1910   */\n      lt\n        /* \"#utility.yul\":1888:1891   */\n      0x0133\n        /* \"#utility.yul\":1882:1886   */\n      dup4\n        /* \"#utility.yul\":1879:1892   */\n      lt\n        /* \"#utility.yul\":1875:1911   */\n      and\n        /* \"#utility.yul\":1857:1859   */\n      0x4e\n        /* \"#utility.yul\":1847:1855   */\n      dup5\n        /* \"#utility.yul\":1844:1860   */\n      lt\n        /* \"#utility.yul\":1839:1841   */\n      0x0b\n        /* \"#utility.yul\":1833:1837   */\n      dup5\n        /* \"#utility.yul\":1830:1842   */\n      lt\n        /* \"#utility.yul\":1826:1861   */\n      and\n        /* \"#utility.yul\":1810:1921   */\n      or\n        /* \"#utility.yul\":1807:2053   */\n      iszero\n      tag_52\n      jumpi\n        /* \"#utility.yul\":1963:1971   */\n      dup3\n        /* \"#utility.yul\":1957:1961   */\n      dup3\n        /* \"#utility.yul\":1953:1972   */\n      exp\n        /* \"#utility.yul\":1944:1972   */\n      swap1\n      pop\n        /* \"#utility.yul\":1998:2001   */\n      dup4\n        /* \"#utility.yul\":1991:1996   */\n      dup2\n        /* \"#utility.yul\":1988:2002   */\n      gt\n        /* \"#utility.yul\":1985:2025   */\n      iszero\n      tag_53\n      jumpi\n        /* \"#utility.yul\":2005:2023   */\n      tag_54\n      tag_31\n      jump\t// in\n    tag_54:\n        /* \"#utility.yul\":1985:2025   */\n    tag_53:\n        /* \"#utility.yul\":2038:2043   */\n      jump(tag_42)\n        /* \"#utility.yul\":1807:2053   */\n    tag_52:\n        /* \"#utility.yul\":2078:2120   */\n      tag_55\n        /* \"#utility.yul\":2116:2119   */\n      dup5\n        /* \"#utility.yul\":2106:2114   */\n      dup5\n        /* \"#utility.yul\":2100:2104   */\n      dup5\n        /* \"#utility.yul\":2097:2098   */\n      0x01\n        /* \"#utility.yul\":2078:2120   */\n      tag_24\n      jump\t// in\n    tag_55:\n        /* \"#utility.yul\":2063:2120   */\n      swap3\n      pop\n      swap1\n      pop\n        /* \"#utility.yul\":2152:2156   */\n      dup2\n        /* \"#utility.yul\":2147:2150   */\n      dup5\n        /* \"#utility.yul\":2143:2157   */\n      div\n        /* \"#utility.yul\":2136:2141   */\n      dup2\n        /* \"#utility.yul\":2133:2158   */\n      gt\n        /* \"#utility.yul\":2130:2181   */\n      iszero\n      tag_56\n      jumpi\n        /* \"#utility.yul\":2161:2179   */\n      tag_57\n      tag_31\n      jump\t// in\n    tag_57:\n        /* \"#utility.yul\":2130:2181   */\n    tag_56:\n        /* \"#utility.yul\":2210:2214   */\n      dup2\n        /* \"#utility.yul\":2203:2208   */\n      dup2\n        /* \"#utility.yul\":2199:2215   */\n      mul\n        /* \"#utility.yul\":2190:2215   */\n      swap1\n      pop\n        /* \"#utility.yul\":1148:2221   */\n    tag_42:\n      swap4\n      swap3\n      pop\n      pop\n      pop\n      jump\t// out\n        /* \"#utility.yul\":2227:2575   */\n    tag_4:\n        /* \"#utility.yul\":2267:2274   */\n      0x00\n        /* \"#utility.yul\":2290:2310   */\n      tag_59\n        /* \"#utility.yul\":2308:2309   */\n      dup3\n        /* \"#utility.yul\":2290:2310   */\n      tag_37\n      jump\t// in\n    tag_59:\n        /* \"#utility.yul\":2285:2310   */\n      swap2\n      pop\n        /* \"#utility.yul\":2324:2344   */\n      tag_60\n        /* \"#utility.yul\":2342:2343   */\n      dup4\n        /* \"#utility.yul\":2324:2344   */\n      tag_37\n      jump\t// in\n    tag_60:\n        /* \"#utility.yul\":2319:2344   */\n      swap3\n      pop\n        /* \"#utility.yul\":2512:2513   */\n      dup2\n        /* \"#utility.yul\":2444:2510   */\n      0xffffffffffffffffffffffffffffffffffffffffffffffffffffffffffffffff\n        /* \"#utility.yul\":2440:2514   */\n      div\n        /* \"#utility.yul\":2437:2438   */\n      dup4\n        /* \"#utility.yul\":2434:2515   */\n      gt\n        /* \"#utility.yul\":2429:2430   */\n      dup3\n        /* \"#utility.yul\":2422:2431   */\n      iszero\n        /* \"#utility.yul\":2415:2432   */\n      iszero\n        /* \"#utility.yul\":2411:2516   */\n      and\n        /* \"#utility.yul\":2408:2539   */\n      iszero\n      tag_61\n      jumpi\n        /* \"#utility.yul\":2519:2537   */\n      tag_62\n      tag_31\n      jump\t// in\n    tag_62:\n        /* \"#utility.yul\":2408:2539   */\n    tag_61:\n        /* \"#utility.yul\":2567:2568   */\n      dup3\n        /* \"#utility.yul\":2564:2565   */\n      dup3\n        /* \"#utility.yul\":2560:2569   */\n      mul\n        /* \"#utility.yul\":2549:2569   */\n      swap1\n      pop\n        /* \"#utility.yul\":2227:2575   */\n      swap3\n      swap2\n      pop\n      pop\n      jump\t// out\n        /* \"#utility.yul\":2581:2658   */\n    tag_37:\n        /* \"#utility.yul\":2618:2625   */\n      0x00\n        /* \"#utility.yul\":2647:2652   */\n      dup2\n        /* \"#utility.yul\":2636:2652   */\n      swap1\n      pop\n        /* \"#utility.yul\":2581:2658   */\n      swap2\n      swap1\n      pop\n      jump\t// out\n        /* \"#utility.yul\":2664:2750   */\n    tag_39:\n        /* \"#utility.yul\":2699:2706   */\n      0x00\n        /* \"#utility.yul\":2739:2743   */\n      0xff\n        /* \"#utility.yul\":2732:2737   */\n      dup3\n        /* \"#utility.yul\":2728:2744   */\n      and\n        /* \"#utility.yul\":2717:2744   */\n      swap1\n      pop\n        /* \"#utility.yul\":2664:2750   */\n      swap2\n      swap1\n      pop\n      jump\t// out\n        /* \"#utility.yul\":2756:3076   */\n    tag_13:\n        /* \"#utility.yul\":2800:2806   */\n      0x00\n        /* \"#utility.yul\":2837:2838   */\n      0x02\n        /* \"#utility.yul\":2831:2835   */\n      dup3\n        /* \"#utility.yul\":2827:2839   */\n      div\n        /* \"#utility.yul\":2817:2839   */\n      swap1\n      pop\n        /* \"#utility.yul\":2884:2885   */\n      0x01\n        /* \"#utility.yul\":2878:2882   */\n      dup3\n        /* \"#utility.yul\":2874:2886   */\n      and\n        /* \"#utility.yul\":2905:2923   */\n      dup1\n        /* \"#utility.yul\":2895:2976   */\n      tag_66\n      jumpi\n        /* \"#utility.yul\":2961:2965   */\n      0x7f\n        /* \"#utility.yul\":2953:2959   */\n      dup3\n        /* \"#utility.yul\":2949:2966   */\n      and\n        /* \"#utility.yul\":2939:2966   */\n      swap2\n      pop\n        /* \"#utility.yul\":2895:2976   */\n    tag_66:\n        /* \"#utility.yul\":3023:3025   */\n      0x20\n        /* \"#utility.yul\":3015:3021   */\n      dup3\n        /* \"#utility.yul\":3012:3026   */\n      lt\n        /* \"#utility.yul\":2992:3010   */\n      dup2\n        /* \"#utility.yul\":2989:3027   */\n      eq\n        /* \"#utility.yul\":2986:3070   */\n      iszero\n      tag_67\n      jumpi\n        /* \"#utility.yul\":3042:3060   */\n      tag_68\n      tag_69\n      jump\t// in\n    tag_68:\n        /* \"#utility.yul\":2986:3070   */\n    tag_67:\n        /* \"#utility.yul\":2807:3076   */\n      pop\n        /* \"#utility.yul\":2756:3076   */\n      swap2\n      swap1\n      pop\n      jump\t// out\n        /* \"#utility.yul\":3082:3262   */\n    tag_31:\n        /* \"#utility.yul\":3130:3207   */\n      0x4e487b7100000000000000000000000000000000000000000000000000000000\n        /* \"#utility.yul\":3127:3128   */\n      0x00\n        /* \"#utility.yul\":3120:3208   */\n      mstore\n        /* \"#utility.yul\":3227:3231   */\n      0x11\n        /* \"#utility.yul\":3224:3225   */\n      0x04\n        /* \"#utility.yul\":3217:3232   */\n      mstore\n        /* \"#utility.yul\":3251:3255   */\n      0x24\n        /* \"#utility.yul\":3248:3249   */\n      0x00\n        /* \"#utility.yul\":3241:3256   */\n      revert\n        /* \"#utility.yul\":3268:3448   */\n    tag_69:\n        /* \"#utility.yul\":3316:3393   */\n      0x4e487b7100000000000000000000000000000000000000000000000000000000\n        /* \"#utility.yul\":3313:3314   */\n      0x00\n        /* \"#utility.yul\":3306:3394   */\n      mstore\n        /* \"#utility.yul\":3413:3417   */\n      0x22\n        /* \"#utility.yul\":3410:3411   */\n      0x04\n        /* \"#utility.yul\":3403:3418   */\n      mstore\n        /* \"#utility.yul\":3437:3441   */\n      0x24\n        /* \"#utility.yul\":3434:3435   */\n      0x00\n        /* \"#utility.yul\":3427:3442   */\n      revert\n        /* \"#utility.yul\":3454:3556   */\n    tag_34:\n        /* \"#utility.yul\":3496:3504   */\n      0x00\n        /* \"#utility.yul\":3543:3548   */\n      dup2\n        /* \"#utility.yul\":3540:3541   */\n      0x01\n        /* \"#utility.yul\":3536:3549   */\n      shr\n        /* \"#utility.yul\":3515:3549   */\n      swap1\n      pop\n        /* \"#utility.yul\":3454:3556   */\n      swap2\n      swap1\n      pop\n      jump\t// out\n        /* \"token.sol\":789:2739  contract md is IERC20 {\r... */\n    tag_11:\n      dataSize(sub_0)\n      dup1\n      dataOffset(sub_0)\n      0x00\n      codecopy\n      0x00\n      return\n    stop\n\n    sub_0: assembly {\n            /* \"token.sol\":789:2739  contract md is IERC20 {\r... */\n          mstore(0x40, 0x80)\n          callvalue\n          dup1\n          iszero\n          tag_1\n          jumpi\n          0x00\n          dup1\n          revert\n        tag_1:\n          pop\n          jumpi(tag_2, lt(calldatasize, 0x04))\n          shr(0xe0, calldataload(0x00))\n          dup1\n          0x313ce567\n          gt\n          tag_12\n          jumpi\n          dup1\n          0x313ce567\n          eq\n          tag_7\n          jumpi\n          dup1\n          0x70a08231\n          eq\n          tag_8\n          jumpi\n          dup1\n          0x95d89b41\n          eq\n          tag_9\n          jumpi\n          dup1\n          0xa9059cbb\n          eq\n          tag_10\n          jumpi\n          dup1\n          0xdd62ed3e\n          eq\n          tag_11\n          jumpi\n          jump(tag_2)\n        tag_12:\n          dup1\n          0x06fdde03\n          eq\n          tag_3\n          jumpi\n          dup1\n          0x095ea7b3\n          eq\n          tag_4\n          jumpi\n          dup1\n          0x18160ddd\n          eq\n          tag_5\n          jumpi\n          dup1\n          0x23b872dd\n          eq\n          tag_6\n          jumpi\n        tag_2:\n          0x00\n          dup1\n          revert\n            /* \"token.sol\":872:890  string public name */\n        tag_3:\n          tag_13\n          tag_14\n          jump\t// in\n        tag_13:\n          mload(0x40)\n          tag_15\n          swap2\n          swap1\n          tag_16\n          jump\t// in\n        tag_15:\n          mload(0x40)\n          dup1\n          swap2\n          sub\n          swap1\n          return\n            /* \"token.sol\":2249:2473  function approve(address delegate, uint256 numTokens) public override returns (bool) {\r... */\n        tag_4:\n          tag_17\n          0x04\n          dup1\n          calldatasize\n          sub\n          dup2\n          add\n          swap1\n          tag_18\n          swap2\n          swap1\n          tag_19\n          jump\t// in\n        tag_18:\n          tag_20\n          jump\t// in\n        tag_17:\n          mload(0x40)\n          tag_21\n          swap2\n          swap1\n          tag_22\n          jump\t// in\n        tag_21:\n          mload(0x40)\n          dup1\n          swap2\n          sub\n          swap1\n          return\n            /* \"token.sol\":2627:2723  function totalSupply() public override view returns (uint256) {\r... */\n        tag_5:\n          tag_23\n          tag_24\n          jump\t// in\n        tag_23:\n          mload(0x40)\n          tag_25\n          swap2\n          swap1\n          tag_26\n          jump\t// in\n        tag_25:\n          mload(0x40)\n          dup1\n          swap2\n          sub\n          swap1\n          return\n            /* \"token.sol\":1636:2110  function transferFrom(address owner, address buyer, uint256 numTokens) public override returns (bool) {\r... */\n        tag_6:\n          tag_27\n          0x04\n          dup1\n          calldatasize\n          sub\n          dup2\n          add\n          swap1\n          tag_28\n          swap2\n          swap1\n          tag_29\n          jump\t// in\n        tag_28:\n          tag_30\n          jump\t// in\n        tag_27:\n          mload(0x40)\n          tag_31\n          swap2\n          swap1\n          tag_22\n          jump\t// in\n        tag_31:\n          mload(0x40)\n          dup1\n          swap2\n          sub\n          swap1\n          return\n            /* \"token.sol\":830:865  uint8 public constant decimals = 18 */\n        tag_7:\n          tag_32\n          tag_33\n          jump\t// in\n        tag_32:\n          mload(0x40)\n          tag_34\n          swap2\n          swap1\n          tag_35\n          jump\t// in\n        tag_34:\n          mload(0x40)\n          dup1\n          swap2\n          sub\n          swap1\n          return\n            /* \"token.sol\":2118:2242  function balanceOf(address tokenOwner) public override view returns (uint256) {\r... */\n        tag_8:\n          tag_36\n          0x04\n          dup1\n          calldatasize\n          sub\n          dup2\n          add\n          swap1\n          tag_37\n          swap2\n          swap1\n          tag_38\n          jump\t// in\n        tag_37:\n          tag_39\n          jump\t// in\n        tag_36:\n          mload(0x40)\n          tag_40\n          swap2\n          swap1\n          tag_26\n          jump\t// in\n        tag_40:\n          mload(0x40)\n          dup1\n          swap2\n          sub\n          swap1\n          return\n            /* \"token.sol\":897:917  string public symbol */\n        tag_9:\n          tag_41\n          tag_42\n          jump\t// in\n        tag_41:\n          mload(0x40)\n          tag_43\n          swap2\n          swap1\n          tag_16\n          jump\t// in\n        tag_43:\n          mload(0x40)\n          dup1\n          swap2\n          sub\n          swap1\n          return\n            /* \"token.sol\":1282:1632  function transfer(address receiver, uint256 numTokens) public override returns (bool) {\r... */\n        tag_10:\n          tag_44\n          0x04\n          dup1\n          calldatasize\n          sub\n          dup2\n          add\n          swap1\n          tag_45\n          swap2\n          swap1\n          tag_19\n          jump\t// in\n        tag_45:\n          tag_46\n          jump\t// in\n        tag_44:\n          mload(0x40)\n          tag_47\n          swap2\n          swap1\n          tag_22\n          jump\t// in\n        tag_47:\n          mload(0x40)\n          dup1\n          swap2\n          sub\n          swap1\n          return\n            /* \"token.sol\":2481:2619  function allowance(address owner, address delegate) public override view returns (uint) {\r... */\n        tag_11:\n          tag_48\n          0x04\n          dup1\n          calldatasize\n          sub\n          dup2\n          add\n          swap1\n          tag_49\n          swap2\n          swap1\n          tag_50\n          jump\t// in\n        tag_49:\n          tag_51\n          jump\t// in\n        tag_48:\n          mload(0x40)\n          tag_52\n          swap2\n          swap1\n          tag_26\n          jump\t// in\n        tag_52:\n          mload(0x40)\n          dup1\n          swap2\n          sub\n          swap1\n          return\n            /* \"token.sol\":872:890  string public name */\n        tag_14:\n          0x00\n          dup1\n          sload\n          tag_53\n          swap1\n          tag_54\n          jump\t// in\n        tag_53:\n          dup1\n          0x1f\n          add\n          0x20\n          dup1\n          swap2\n          div\n          mul\n          0x20\n          add\n          mload(0x40)\n          swap1\n          dup2\n          add\n          0x40\n          mstore\n          dup1\n          swap3\n          swap2\n          swap1\n          dup2\n          dup2\n          mstore\n          0x20\n          add\n          dup3\n          dup1\n          sload\n          tag_55\n          swap1\n          tag_54\n          jump\t// in\n        tag_55:\n          dup1\n          iszero\n          tag_56\n          jumpi\n          dup1\n          0x1f\n          lt\n          tag_57\n          jumpi\n          0x0100\n          dup1\n          dup4\n          sload\n          div\n          mul\n          dup4\n          mstore\n          swap2\n          0x20\n          add\n          swap2\n          jump(tag_56)\n        tag_57:\n          dup3\n          add\n          swap2\n          swap1\n          0x00\n          mstore\n          keccak256(0x00, 0x20)\n          swap1\n        tag_58:\n          dup2\n          sload\n          dup2\n          mstore\n          swap1\n          0x01\n          add\n          swap1\n          0x20\n          add\n          dup1\n          dup4\n          gt\n          tag_58\n          jumpi\n          dup3\n          swap1\n          sub\n          0x1f\n          and\n          dup3\n          add\n          swap2\n        tag_56:\n          pop\n          pop\n          pop\n          pop\n          pop\n          dup2\n          jump\t// out\n            /* \"token.sol\":2249:2473  function approve(address delegate, uint256 numTokens) public override returns (bool) {\r... */\n        tag_20:\n            /* \"token.sol\":2328:2332  bool */\n          0x00\n            /* \"token.sol\":2377:2386  numTokens */\n          dup2\n            /* \"token.sol\":2345:2352  allowed */\n          0x03\n            /* \"token.sol\":2345:2364  allowed[msg.sender] */\n          0x00\n            /* \"token.sol\":2353:2363  msg.sender */\n          caller\n            /* \"token.sol\":2345:2364  allowed[msg.sender] */\n          0xffffffffffffffffffffffffffffffffffffffff\n          and\n          0xffffffffffffffffffffffffffffffffffffffff\n          and\n          dup2\n          mstore\n          0x20\n          add\n          swap1\n          dup2\n          mstore\n          0x20\n          add\n          0x00\n          keccak256\n            /* \"token.sol\":2345:2374  allowed[msg.sender][delegate] */\n          0x00\n            /* \"token.sol\":2365:2373  delegate */\n          dup6\n            /* \"token.sol\":2345:2374  allowed[msg.sender][delegate] */\n          0xffffffffffffffffffffffffffffffffffffffff\n          and\n          0xffffffffffffffffffffffffffffffffffffffff\n          and\n          dup2\n          mstore\n          0x20\n          add\n          swap1\n          dup2\n          mstore\n          0x20\n          add\n          0x00\n          keccak256\n            /* \"token.sol\":2345:2386  allowed[msg.sender][delegate] = numTokens */\n          dup2\n          swap1\n          sstore\n          pop\n            /* \"token.sol\":2423:2431  delegate */\n          dup3\n            /* \"token.sol\":2402:2443  Approval(msg.sender, delegate, numTokens) */\n          0xffffffffffffffffffffffffffffffffffffffff\n          and\n            /* \"token.sol\":2411:2421  msg.sender */\n          caller\n            /* \"token.sol\":2402:2443  Approval(msg.sender, delegate, numTokens) */\n          0xffffffffffffffffffffffffffffffffffffffff\n          and\n          0x8c5be1e5ebec7d5bd14f71427d1e84f3dd0314c0f7b2291e5b200ac8c7c3b925\n            /* \"token.sol\":2433:2442  numTokens */\n          dup5\n            /* \"token.sol\":2402:2443  Approval(msg.sender, delegate, numTokens) */\n          mload(0x40)\n          tag_60\n          swap2\n          swap1\n          tag_26\n          jump\t// in\n        tag_60:\n          mload(0x40)\n          dup1\n          swap2\n          sub\n          swap1\n          log3\n            /* \"token.sol\":2461:2465  true */\n          0x01\n            /* \"token.sol\":2454:2465  return true */\n          swap1\n          pop\n            /* \"token.sol\":2249:2473  function approve(address delegate, uint256 numTokens) public override returns (bool) {\r... */\n          swap3\n          swap2\n          pop\n          pop\n          jump\t// out\n            /* \"token.sol\":2627:2723  function totalSupply() public override view returns (uint256) {\r... */\n        tag_24:\n            /* \"token.sol\":2680:2687  uint256 */\n          0x00\n            /* \"token.sol\":2703:2715  totalSupply_ */\n          sload(0x04)\n            /* \"token.sol\":2696:2715  return totalSupply_ */\n          swap1\n          pop\n            /* \"token.sol\":2627:2723  function totalSupply() public override view returns (uint256) {\r... */\n          swap1\n          jump\t// out\n            /* \"token.sol\":1636:2110  function transferFrom(address owner, address buyer, uint256 numTokens) public override returns (bool) {\r... */\n        tag_30:\n            /* \"token.sol\":1732:1736  bool */\n          0x00\n            /* \"token.sol\":1770:1778  balances */\n          0x02\n            /* \"token.sol\":1770:1785  balances[owner] */\n          0x00\n            /* \"token.sol\":1779:1784  owner */\n          dup6\n            /* \"token.sol\":1770:1785  balances[owner] */\n          0xffffffffffffffffffffffffffffffffffffffff\n          and\n          0xffffffffffffffffffffffffffffffffffffffff\n          and\n          dup2\n          mstore\n          0x20\n          add\n          swap1\n          dup2\n          mstore\n          0x20\n          add\n          0x00\n          keccak256\n          sload\n            /* \"token.sol\":1757:1766  numTokens */\n          dup3\n            /* \"token.sol\":1757:1785  numTokens <= balances[owner] */\n          gt\n          iszero\n            /* \"token.sol\":1749:1786  require(numTokens <= balances[owner]) */\n          tag_63\n          jumpi\n          0x00\n          dup1\n          revert\n        tag_63:\n            /* \"token.sol\":1818:1825  allowed */\n          0x03\n            /* \"token.sol\":1818:1832  allowed[owner] */\n          0x00\n            /* \"token.sol\":1826:1831  owner */\n          dup6\n            /* \"token.sol\":1818:1832  allowed[owner] */\n          0xffffffffffffffffffffffffffffffffffffffff\n          and\n          0xffffffffffffffffffffffffffffffffffffffff\n          and\n          dup2\n          mstore\n          0x20\n          add\n          swap1\n          dup2\n          mstore\n          0x20\n          add\n          0x00\n          keccak256\n            /* \"token.sol\":1818:1844  allowed[owner][msg.sender] */\n          0x00\n            /* \"token.sol\":1833:1843  msg.sender */\n          caller\n            /* \"token.sol\":1818:1844  allowed[owner][msg.sender] */\n          0xffffffffffffffffffffffffffffffffffffffff\n          and\n          0xffffffffffffffffffffffffffffffffffffffff\n          and\n          dup2\n          mstore\n          0x20\n          add\n          swap1\n          dup2\n          mstore\n          0x20\n          add\n          0x00\n          keccak256\n          sload\n            /* \"token.sol\":1805:1814  numTokens */\n          dup3\n            /* \"token.sol\":1805:1844  numTokens <= allowed[owner][msg.sender] */\n          gt\n          iszero\n            /* \"token.sol\":1797:1845  require(numTokens <= allowed[owner][msg.sender]) */\n          tag_64\n          jumpi\n          0x00\n          dup1\n          revert\n        tag_64:\n            /* \"token.sol\":1892:1901  numTokens */\n          dup2\n            /* \"token.sol\":1876:1884  balances */\n          0x02\n            /* \"token.sol\":1876:1891  balances[owner] */\n          0x00\n            /* \"token.sol\":1885:1890  owner */\n          dup7\n            /* \"token.sol\":1876:1891  balances[owner] */\n          0xffffffffffffffffffffffffffffffffffffffff\n          and\n          0xffffffffffffffffffffffffffffffffffffffff\n          and\n          dup2\n          mstore\n          0x20\n          add\n          swap1\n          dup2\n          mstore\n          0x20\n          add\n          0x00\n          keccak256\n          sload\n            /* \"token.sol\":1876:1901  balances[owner]-numTokens */\n          tag_65\n          swap2\n          swap1\n          tag_66\n          jump\t// in\n        tag_65:\n            /* \"token.sol\":1858:1866  balances */\n          0x02\n            /* \"token.sol\":1858:1873  balances[owner] */\n          0x00\n            /* \"token.sol\":1867:1872  owner */\n          dup7\n            /* \"token.sol\":1858:1873  balances[owner] */\n          0xffffffffffffffffffffffffffffffffffffffff\n          and\n          0xffffffffffffffffffffffffffffffffffffffff\n          and\n          dup2\n          mstore\n          0x20\n          add\n          swap1\n          dup2\n          mstore\n          0x20\n          add\n          0x00\n          keccak256\n            /* \"token.sol\":1858:1901  balances[owner] = balances[owner]-numTokens */\n          dup2\n          swap1\n          sstore\n          pop\n            /* \"token.sol\":1968:1977  numTokens */\n          dup2\n            /* \"token.sol\":1941:1948  allowed */\n          0x03\n            /* \"token.sol\":1941:1955  allowed[owner] */\n          0x00\n            /* \"token.sol\":1949:1954  owner */\n          dup7\n            /* \"token.sol\":1941:1955  allowed[owner] */\n          0xffffffffffffffffffffffffffffffffffffffff\n          and\n          0xffffffffffffffffffffffffffffffffffffffff\n          and\n          dup2\n          mstore\n          0x20\n          add\n          swap1\n          dup2\n          mstore\n          0x20\n          add\n          0x00\n          keccak256\n            /* \"token.sol\":1941:1967  allowed[owner][msg.sender] */\n          0x00\n            /* \"token.sol\":1956:1966  msg.sender */\n          caller\n            /* \"token.sol\":1941:1967  allowed[owner][msg.sender] */\n          0xffffffffffffffffffffffffffffffffffffffff\n          and\n          0xffffffffffffffffffffffffffffffffffffffff\n          and\n          dup2\n          mstore\n          0x20\n          add\n          swap1\n          dup2\n          mstore\n          0x20\n          add\n          0x00\n          keccak256\n          sload\n            /* \"token.sol\":1941:1977  allowed[owner][msg.sender]-numTokens */\n          tag_67\n          swap2\n          swap1\n          tag_66\n          jump\t// in\n        tag_67:\n            /* \"token.sol\":1912:1919  allowed */\n          0x03\n            /* \"token.sol\":1912:1926  allowed[owner] */\n          0x00\n            /* \"token.sol\":1920:1925  owner */\n          dup7\n            /* \"token.sol\":1912:1926  allowed[owner] */\n          0xffffffffffffffffffffffffffffffffffffffff\n          and\n          0xffffffffffffffffffffffffffffffffffffffff\n          and\n          dup2\n          mstore\n          0x20\n          add\n          swap1\n          dup2\n          mstore\n          0x20\n          add\n          0x00\n          keccak256\n            /* \"token.sol\":1912:1938  allowed[owner][msg.sender] */\n          0x00\n            /* \"token.sol\":1927:1937  msg.sender */\n          caller\n            /* \"token.sol\":1912:1938  allowed[owner][msg.sender] */\n          0xffffffffffffffffffffffffffffffffffffffff\n          and\n          0xffffffffffffffffffffffffffffffffffffffff\n          and\n          dup2\n          mstore\n          0x20\n          add\n          swap1\n          dup2\n          mstore\n          0x20\n          add\n          0x00\n          keccak256\n            /* \"token.sol\":1912:1977  allowed[owner][msg.sender] = allowed[owner][msg.sender]-numTokens */\n          dup2\n          swap1\n          sstore\n          pop\n            /* \"token.sol\":2022:2031  numTokens */\n          dup2\n            /* \"token.sol\":2006:2014  balances */\n          0x02\n            /* \"token.sol\":2006:2021  balances[buyer] */\n          0x00\n            /* \"token.sol\":2015:2020  buyer */\n          dup6\n            /* \"token.sol\":2006:2021  balances[buyer] */\n          0xffffffffffffffffffffffffffffffffffffffff\n          and\n          0xffffffffffffffffffffffffffffffffffffffff\n          and\n          dup2\n          mstore\n          0x20\n          add\n          swap1\n          dup2\n          mstore\n          0x20\n          add\n          0x00\n          keccak256\n          sload\n            /* \"token.sol\":2006:2031  balances[buyer]+numTokens */\n          tag_68\n          swap2\n          swap1\n          tag_69\n          jump\t// in\n        tag_68:\n            /* \"token.sol\":1988:1996  balances */\n          0x02\n            /* \"token.sol\":1988:2003  balances[buyer] */\n          0x00\n            /* \"token.sol\":1997:2002  buyer */\n          dup6\n            /* \"token.sol\":1988:2003  balances[buyer] */\n          0xffffffffffffffffffffffffffffffffffffffff\n          and\n          0xffffffffffffffffffffffffffffffffffffffff\n          and\n          dup2\n          mstore\n          0x20\n          add\n          swap1\n          dup2\n          mstore\n          0x20\n          add\n          0x00\n          keccak256\n            /* \"token.sol\":1988:2031  balances[buyer] = balances[buyer]+numTokens */\n          dup2\n          swap1\n          sstore\n          pop\n            /* \"token.sol\":2063:2068  buyer */\n          dup3\n            /* \"token.sol\":2047:2080  Transfer(owner, buyer, numTokens) */\n          0xffffffffffffffffffffffffffffffffffffffff\n          and\n            /* \"token.sol\":2056:2061  owner */\n          dup5\n            /* \"token.sol\":2047:2080  Transfer(owner, buyer, numTokens) */\n          0xffffffffffffffffffffffffffffffffffffffff\n          and\n          0xddf252ad1be2c89b69c2b068fc378daa952ba7f163c4a11628f55a4df523b3ef\n            /* \"token.sol\":2070:2079  numTokens */\n          dup5\n            /* \"token.sol\":2047:2080  Transfer(owner, buyer, numTokens) */\n          mload(0x40)\n          tag_70\n          swap2\n          swap1\n          tag_26\n          jump\t// in\n        tag_70:\n          mload(0x40)\n          dup1\n          swap2\n          sub\n          swap1\n          log3\n            /* \"token.sol\":2098:2102  true */\n          0x01\n            /* \"token.sol\":2091:2102  return true */\n          swap1\n          pop\n            /* \"token.sol\":1636:2110  function transferFrom(address owner, address buyer, uint256 numTokens) public override returns (bool) {\r... */\n          swap4\n          swap3\n          pop\n          pop\n          pop\n          jump\t// out\n            /* \"token.sol\":830:865  uint8 public constant decimals = 18 */\n        tag_33:\n            /* \"token.sol\":863:865  18 */\n          0x12\n            /* \"token.sol\":830:865  uint8 public constant decimals = 18 */\n          dup2\n          jump\t// out\n            /* \"token.sol\":2118:2242  function balanceOf(address tokenOwner) public override view returns (uint256) {\r... */\n        tag_39:\n            /* \"token.sol\":2187:2194  uint256 */\n          0x00\n            /* \"token.sol\":2214:2222  balances */\n          0x02\n            /* \"token.sol\":2214:2234  balances[tokenOwner] */\n          0x00\n            /* \"token.sol\":2223:2233  tokenOwner */\n          dup4\n            /* \"token.sol\":2214:2234  balances[tokenOwner] */\n          0xffffffffffffffffffffffffffffffffffffffff\n          and\n          0xffffffffffffffffffffffffffffffffffffffff\n          and\n          dup2\n          mstore\n          0x20\n          add\n          swap1\n          dup2\n          mstore\n          0x20\n          add\n          0x00\n          keccak256\n          sload\n            /* \"token.sol\":2207:2234  return balances[tokenOwner] */\n          swap1\n          pop\n            /* \"token.sol\":2118:2242  function balanceOf(address tokenOwner) public override view returns (uint256) {\r... */\n          swap2\n          swap1\n          pop\n          jump\t// out\n            /* \"token.sol\":897:917  string public symbol */\n        tag_42:\n          0x01\n          dup1\n          sload\n          tag_72\n          swap1\n          tag_54\n          jump\t// in\n        tag_72:\n          dup1\n          0x1f\n          add\n          0x20\n          dup1\n          swap2\n          div\n          mul\n          0x20\n          add\n          mload(0x40)\n          swap1\n          dup2\n          add\n          0x40\n          mstore\n          dup1\n          swap3\n          swap2\n          swap1\n          dup2\n          dup2\n          mstore\n          0x20\n          add\n          dup3\n          dup1\n          sload\n          tag_73\n          swap1\n          tag_54\n          jump\t// in\n        tag_73:\n          dup1\n          iszero\n          tag_74\n          jumpi\n          dup1\n          0x1f\n          lt\n          tag_75\n          jumpi\n          0x0100\n          dup1\n          dup4\n          sload\n          div\n          mul\n          dup4\n          mstore\n          swap2\n          0x20\n          add\n          swap2\n          jump(tag_74)\n        tag_75:\n          dup3\n          add\n          swap2\n          swap1\n          0x00\n          mstore\n          keccak256(0x00, 0x20)\n          swap1\n        tag_76:\n          dup2\n          sload\n          dup2\n          mstore\n          swap1\n          0x01\n          add\n          swap1\n          0x20\n          add\n          dup1\n          dup4\n          gt\n          tag_76\n          jumpi\n          dup3\n          swap1\n          sub\n          0x1f\n          and\n          dup3\n          add\n          swap2\n        tag_74:\n          pop\n          pop\n          pop\n          pop\n          pop\n          dup2\n          jump\t// out\n            /* \"token.sol\":1282:1632  function transfer(address receiver, uint256 numTokens) public override returns (bool) {\r... */\n        tag_46:\n            /* \"token.sol\":1362:1366  bool */\n          0x00\n            /* \"token.sol\":1400:1408  balances */\n          0x02\n            /* \"token.sol\":1400:1420  balances[msg.sender] */\n          0x00\n            /* \"token.sol\":1409:1419  msg.sender */\n          caller\n            /* \"token.sol\":1400:1420  balances[msg.sender] */\n          0xffffffffffffffffffffffffffffffffffffffff\n          and\n          0xffffffffffffffffffffffffffffffffffffffff\n          and\n          dup2\n          mstore\n          0x20\n          add\n          swap1\n          dup2\n          mstore\n          0x20\n          add\n          0x00\n          keccak256\n          sload\n            /* \"token.sol\":1387:1396  numTokens */\n          dup3\n            /* \"token.sol\":1387:1420  numTokens <= balances[msg.sender] */\n          gt\n          iszero\n            /* \"token.sol\":1379:1421  require(numTokens <= balances[msg.sender]) */\n          tag_78\n          jumpi\n          0x00\n          dup1\n          revert\n        tag_78:\n            /* \"token.sol\":1476:1485  numTokens */\n          dup2\n            /* \"token.sol\":1455:1463  balances */\n          0x02\n            /* \"token.sol\":1455:1475  balances[msg.sender] */\n          0x00\n            /* \"token.sol\":1464:1474  msg.sender */\n          caller\n            /* \"token.sol\":1455:1475  balances[msg.sender] */\n          0xffffffffffffffffffffffffffffffffffffffff\n          and\n          0xffffffffffffffffffffffffffffffffffffffff\n          and\n          dup2\n          mstore\n          0x20\n          add\n          swap1\n          dup2\n          mstore\n          0x20\n          add\n          0x00\n          keccak256\n          sload\n            /* \"token.sol\":1455:1485  balances[msg.sender]-numTokens */\n          tag_79\n          swap2\n          swap1\n          tag_66\n          jump\t// in\n        tag_79:\n            /* \"token.sol\":1432:1440  balances */\n          0x02\n            /* \"token.sol\":1432:1452  balances[msg.sender] */\n          0x00\n            /* \"token.sol\":1441:1451  msg.sender */\n          caller\n            /* \"token.sol\":1432:1452  balances[msg.sender] */\n          0xffffffffffffffffffffffffffffffffffffffff\n          and\n          0xffffffffffffffffffffffffffffffffffffffff\n          and\n          dup2\n          mstore\n          0x20\n          add\n          swap1\n          dup2\n          mstore\n          0x20\n          add\n          0x00\n          keccak256\n            /* \"token.sol\":1432:1485  balances[msg.sender] = balances[msg.sender]-numTokens */\n          dup2\n          swap1\n          sstore\n          pop\n            /* \"token.sol\":1536:1545  numTokens */\n          dup2\n            /* \"token.sol\":1517:1525  balances */\n          0x02\n            /* \"token.sol\":1517:1535  balances[receiver] */\n          0x00\n            /* \"token.sol\":1526:1534  receiver */\n          dup6\n            /* \"token.sol\":1517:1535  balances[receiver] */\n          0xffffffffffffffffffffffffffffffffffffffff\n          and\n          0xffffffffffffffffffffffffffffffffffffffff\n          and\n          dup2\n          mstore\n          0x20\n          add\n          swap1\n          dup2\n          mstore\n          0x20\n          add\n          0x00\n          keccak256\n          sload\n            /* \"token.sol\":1517:1545  balances[receiver]+numTokens */\n          tag_80\n          swap2\n          swap1\n          tag_69\n          jump\t// in\n        tag_80:\n            /* \"token.sol\":1496:1504  balances */\n          0x02\n            /* \"token.sol\":1496:1514  balances[receiver] */\n          0x00\n            /* \"token.sol\":1505:1513  receiver */\n          dup6\n            /* \"token.sol\":1496:1514  balances[receiver] */\n          0xffffffffffffffffffffffffffffffffffffffff\n          and\n          0xffffffffffffffffffffffffffffffffffffffff\n          and\n          dup2\n          mstore\n          0x20\n          add\n          swap1\n          dup2\n          mstore\n          0x20\n          add\n          0x00\n          keccak256\n            /* \"token.sol\":1496:1545  balances[receiver] = balances[receiver]+numTokens */\n          dup2\n          swap1\n          sstore\n          pop\n            /* \"token.sol\":1582:1590  receiver */\n          dup3\n            /* \"token.sol\":1561:1602  Transfer(msg.sender, receiver, numTokens) */\n          0xffffffffffffffffffffffffffffffffffffffff\n          and\n            /* \"token.sol\":1570:1580  msg.sender */\n          caller\n            /* \"token.sol\":1561:1602  Transfer(msg.sender, receiver, numTokens) */\n          0xffffffffffffffffffffffffffffffffffffffff\n          and\n          0xddf252ad1be2c89b69c2b068fc378daa952ba7f163c4a11628f55a4df523b3ef\n            /* \"token.sol\":1592:1601  numTokens */\n          dup5\n            /* \"token.sol\":1561:1602  Transfer(msg.sender, receiver, numTokens) */\n          mload(0x40)\n          tag_81\n          swap2\n          swap1\n          tag_26\n          jump\t// in\n        tag_81:\n          mload(0x40)\n          dup1\n          swap2\n          sub\n          swap1\n          log3\n            /* \"token.sol\":1620:1624  true */\n          0x01\n            /* \"token.sol\":1613:1624  return true */\n          swap1\n          pop\n            /* \"token.sol\":1282:1632  function transfer(address receiver, uint256 numTokens) public override returns (bool) {\r... */\n          swap3\n          swap2\n          pop\n          pop\n          jump\t// out\n            /* \"token.sol\":2481:2619  function allowance(address owner, address delegate) public override view returns (uint) {\r... */\n        tag_51:\n            /* \"token.sol\":2563:2567  uint */\n          0x00\n            /* \"token.sol\":2587:2594  allowed */\n          0x03\n            /* \"token.sol\":2587:2601  allowed[owner] */\n          0x00\n            /* \"token.sol\":2595:2600  owner */\n          dup5\n            /* \"token.sol\":2587:2601  allowed[owner] */\n          0xffffffffffffffffffffffffffffffffffffffff\n          and\n          0xffffffffffffffffffffffffffffffffffffffff\n          and\n          dup2\n          mstore\n          0x20\n          add\n          swap1\n          dup2\n          mstore\n          0x20\n          add\n          0x00\n          keccak256\n            /* \"token.sol\":2587:2611  allowed[owner][delegate] */\n          0x00\n            /* \"token.sol\":2602:2610  delegate */\n          dup4\n            /* \"token.sol\":2587:2611  allowed[owner][delegate] */\n          0xffffffffffffffffffffffffffffffffffffffff\n          and\n          0xffffffffffffffffffffffffffffffffffffffff\n          and\n          dup2\n          mstore\n          0x20\n          add\n          swap1\n          dup2\n          mstore\n          0x20\n          add\n          0x00\n          keccak256\n          sload\n            /* \"token.sol\":2580:2611  return allowed[owner][delegate] */\n          swap1\n          pop\n            /* \"token.sol\":2481:2619  function allowance(address owner, address delegate) public override view returns (uint) {\r... */\n          swap3\n          swap2\n          pop\n          pop\n          jump\t// out\n            /* \"#utility.yul\":7:146   */\n        tag_84:\n            /* \"#utility.yul\":53:58   */\n          0x00\n            /* \"#utility.yul\":91:97   */\n          dup2\n            /* \"#utility.yul\":78:98   */\n          calldataload\n            /* \"#utility.yul\":69:98   */\n          swap1\n          pop\n            /* \"#utility.yul\":107:140   */\n          tag_86\n            /* \"#utility.yul\":134:139   */\n          dup2\n            /* \"#utility.yul\":107:140   */\n          tag_87\n          jump\t// in\n        tag_86:\n            /* \"#utility.yul\":7:146   */\n          swap3\n          swap2\n          pop\n          pop\n          jump\t// out\n            /* \"#utility.yul\":152:291   */\n        tag_88:\n            /* \"#utility.yul\":198:203   */\n          0x00\n            /* \"#utility.yul\":236:242   */\n          dup2\n            /* \"#utility.yul\":223:243   */\n          calldataload\n            /* \"#utility.yul\":214:243   */\n          swap1\n          pop\n            /* \"#utility.yul\":252:285   */\n          tag_90\n            /* \"#utility.yul\":279:284   */\n          dup2\n            /* \"#utility.yul\":252:285   */\n          tag_91\n          jump\t// in\n        tag_90:\n            /* \"#utility.yul\":152:291   */\n          swap3\n          swap2\n          pop\n          pop\n          jump\t// out\n            /* \"#utility.yul\":297:626   */\n        tag_38:\n            /* \"#utility.yul\":356:362   */\n          0x00\n            /* \"#utility.yul\":405:407   */\n          0x20\n            /* \"#utility.yul\":393:402   */\n          dup3\n            /* \"#utility.yul\":384:391   */\n          dup5\n            /* \"#utility.yul\":380:403   */\n          sub\n            /* \"#utility.yul\":376:408   */\n          slt\n            /* \"#utility.yul\":373:492   */\n          iszero\n          tag_93\n          jumpi\n            /* \"#utility.yul\":411:490   */\n          tag_94\n          tag_95\n          jump\t// in\n        tag_94:\n            /* \"#utility.yul\":373:492   */\n        tag_93:\n            /* \"#utility.yul\":531:532   */\n          0x00\n            /* \"#utility.yul\":556:609   */\n          tag_96\n            /* \"#utility.yul\":601:608   */\n          dup5\n            /* \"#utility.yul\":592:598   */\n          dup3\n            /* \"#utility.yul\":581:590   */\n          dup6\n            /* \"#utility.yul\":577:599   */\n          add\n            /* \"#utility.yul\":556:609   */\n          tag_84\n          jump\t// in\n        tag_96:\n            /* \"#utility.yul\":546:609   */\n          swap2\n          pop\n            /* \"#utility.yul\":502:619   */\n          pop\n            /* \"#utility.yul\":297:626   */\n          swap3\n          swap2\n          pop\n          pop\n          jump\t// out\n            /* \"#utility.yul\":632:1106   */\n        tag_50:\n            /* \"#utility.yul\":700:706   */\n          0x00\n            /* \"#utility.yul\":708:714   */\n          dup1\n            /* \"#utility.yul\":757:759   */\n          0x40\n            /* \"#utility.yul\":745:754   */\n          dup4\n            /* \"#utility.yul\":736:743   */\n          dup6\n            /* \"#utility.yul\":732:755   */\n          sub\n            /* \"#utility.yul\":728:760   */\n          slt\n            /* \"#utility.yul\":725:844   */\n          iszero\n          tag_98\n          jumpi\n            /* \"#utility.yul\":763:842   */\n          tag_99\n          tag_95\n          jump\t// in\n        tag_99:\n            /* \"#utility.yul\":725:844   */\n        tag_98:\n            /* \"#utility.yul\":883:884   */\n          0x00\n            /* \"#utility.yul\":908:961   */\n          tag_100\n            /* \"#utility.yul\":953:960   */\n          dup6\n            /* \"#utility.yul\":944:950   */\n          dup3\n            /* \"#utility.yul\":933:942   */\n          dup7\n            /* \"#utility.yul\":929:951   */\n          add\n            /* \"#utility.yul\":908:961   */\n          tag_84\n          jump\t// in\n        tag_100:\n            /* \"#utility.yul\":898:961   */\n          swap3\n          pop\n            /* \"#utility.yul\":854:971   */\n          pop\n            /* \"#utility.yul\":1010:1012   */\n          0x20\n            /* \"#utility.yul\":1036:1089   */\n          tag_101\n            /* \"#utility.yul\":1081:1088   */\n          dup6\n            /* \"#utility.yul\":1072:1078   */\n          dup3\n            /* \"#utility.yul\":1061:1070   */\n          dup7\n            /* \"#utility.yul\":1057:1079   */\n          add\n            /* \"#utility.yul\":1036:1089   */\n          tag_84\n          jump\t// in\n        tag_101:\n            /* \"#utility.yul\":1026:1089   */\n          swap2\n          pop\n            /* \"#utility.yul\":981:1099   */\n          pop\n            /* \"#utility.yul\":632:1106   */\n          swap3\n          pop\n          swap3\n          swap1\n          pop\n          jump\t// out\n            /* \"#utility.yul\":1112:1731   */\n        tag_29:\n            /* \"#utility.yul\":1189:1195   */\n          0x00\n            /* \"#utility.yul\":1197:1203   */\n          dup1\n            /* \"#utility.yul\":1205:1211   */\n          0x00\n            /* \"#utility.yul\":1254:1256   */\n          0x60\n            /* \"#utility.yul\":1242:1251   */\n          dup5\n            /* \"#utility.yul\":1233:1240   */\n          dup7\n            /* \"#utility.yul\":1229:1252   */\n          sub\n            /* \"#utility.yul\":1225:1257   */\n          slt\n            /* \"#utility.yul\":1222:1341   */\n          iszero\n          tag_103\n          jumpi\n            /* \"#utility.yul\":1260:1339   */\n          tag_104\n          tag_95\n          jump\t// in\n        tag_104:\n            /* \"#utility.yul\":1222:1341   */\n        tag_103:\n            /* \"#utility.yul\":1380:1381   */\n          0x00\n            /* \"#utility.yul\":1405:1458   */\n          tag_105\n            /* \"#utility.yul\":1450:1457   */\n          dup7\n            /* \"#utility.yul\":1441:1447   */\n          dup3\n            /* \"#utility.yul\":1430:1439   */\n          dup8\n            /* \"#utility.yul\":1426:1448   */\n          add\n            /* \"#utility.yul\":1405:1458   */\n          tag_84\n          jump\t// in\n        tag_105:\n            /* \"#utility.yul\":1395:1458   */\n          swap4\n          pop\n            /* \"#utility.yul\":1351:1468   */\n          pop\n            /* \"#utility.yul\":1507:1509   */\n          0x20\n            /* \"#utility.yul\":1533:1586   */\n          tag_106\n            /* \"#utility.yul\":1578:1585   */\n          dup7\n            /* \"#utility.yul\":1569:1575   */\n          dup3\n            /* \"#utility.yul\":1558:1567   */\n          dup8\n            /* \"#utility.yul\":1554:1576   */\n          add\n            /* \"#utility.yul\":1533:1586   */\n          tag_84\n          jump\t// in\n        tag_106:\n            /* \"#utility.yul\":1523:1586   */\n          swap3\n          pop\n            /* \"#utility.yul\":1478:1596   */\n          pop\n            /* \"#utility.yul\":1635:1637   */\n          0x40\n            /* \"#utility.yul\":1661:1714   */\n          tag_107\n            /* \"#utility.yul\":1706:1713   */\n          dup7\n            /* \"#utility.yul\":1697:1703   */\n          dup3\n            /* \"#utility.yul\":1686:1695   */\n          dup8\n            /* \"#utility.yul\":1682:1704   */\n          add\n            /* \"#utility.yul\":1661:1714   */\n          tag_88\n          jump\t// in\n        tag_107:\n            /* \"#utility.yul\":1651:1714   */\n          swap2\n          pop\n            /* \"#utility.yul\":1606:1724   */\n          pop\n            /* \"#utility.yul\":1112:1731   */\n          swap3\n          pop\n          swap3\n          pop\n          swap3\n          jump\t// out\n            /* \"#utility.yul\":1737:2211   */\n        tag_19:\n            /* \"#utility.yul\":1805:1811   */\n          0x00\n            /* \"#utility.yul\":1813:1819   */\n          dup1\n            /* \"#utility.yul\":1862:1864   */\n          0x40\n            /* \"#utility.yul\":1850:1859   */\n          dup4\n            /* \"#utility.yul\":1841:1848   */\n          dup6\n            /* \"#utility.yul\":1837:1860   */\n          sub\n            /* \"#utility.yul\":1833:1865   */\n          slt\n            /* \"#utility.yul\":1830:1949   */\n          iszero\n          tag_109\n          jumpi\n            /* \"#utility.yul\":1868:1947   */\n          tag_110\n          tag_95\n          jump\t// in\n        tag_110:\n            /* \"#utility.yul\":1830:1949   */\n        tag_109:\n            /* \"#utility.yul\":1988:1989   */\n          0x00\n            /* \"#utility.yul\":2013:2066   */\n          tag_111\n            /* \"#utility.yul\":2058:2065   */\n          dup6\n            /* \"#utility.yul\":2049:2055   */\n          dup3\n            /* \"#utility.yul\":2038:2047   */\n          dup7\n            /* \"#utility.yul\":2034:2056   */\n          add\n            /* \"#utility.yul\":2013:2066   */\n          tag_84\n          jump\t// in\n        tag_111:\n            /* \"#utility.yul\":2003:2066   */\n          swap3\n          pop\n            /* \"#utility.yul\":1959:2076   */\n          pop\n            /* \"#utility.yul\":2115:2117   */\n          0x20\n            /* \"#utility.yul\":2141:2194   */\n          tag_112\n            /* \"#utility.yul\":2186:2193   */\n          dup6\n            /* \"#utility.yul\":2177:2183   */\n          dup3\n            /* \"#utility.yul\":2166:2175   */\n          dup7\n            /* \"#utility.yul\":2162:2184   */\n          add\n            /* \"#utility.yul\":2141:2194   */\n          tag_88\n          jump\t// in\n        tag_112:\n            /* \"#utility.yul\":2131:2194   */\n          swap2\n          pop\n            /* \"#utility.yul\":2086:2204   */\n          pop\n            /* \"#utility.yul\":1737:2211   */\n          swap3\n          pop\n          swap3\n          swap1\n          pop\n          jump\t// out\n            /* \"#utility.yul\":2217:2326   */\n        tag_113:\n            /* \"#utility.yul\":2298:2319   */\n          tag_115\n            /* \"#utility.yul\":2313:2318   */\n          dup2\n            /* \"#utility.yul\":2298:2319   */\n          tag_116\n          jump\t// in\n        tag_115:\n            /* \"#utility.yul\":2293:2296   */\n          dup3\n            /* \"#utility.yul\":2286:2320   */\n          mstore\n            /* \"#utility.yul\":2217:2326   */\n          pop\n          pop\n          jump\t// out\n            /* \"#utility.yul\":2332:2696   */\n        tag_117:\n            /* \"#utility.yul\":2420:2423   */\n          0x00\n            /* \"#utility.yul\":2448:2487   */\n          tag_119\n            /* \"#utility.yul\":2481:2486   */\n          dup3\n            /* \"#utility.yul\":2448:2487   */\n          tag_120\n          jump\t// in\n        tag_119:\n            /* \"#utility.yul\":2503:2574   */\n          tag_121\n            /* \"#utility.yul\":2567:2573   */\n          dup2\n            /* \"#utility.yul\":2562:2565   */\n          dup6\n            /* \"#utility.yul\":2503:2574   */\n          tag_122\n          jump\t// in\n        tag_121:\n            /* \"#utility.yul\":2496:2574   */\n          swap4\n          pop\n            /* \"#utility.yul\":2583:2635   */\n          tag_123\n            /* \"#utility.yul\":2628:2634   */\n          dup2\n            /* \"#utility.yul\":2623:2626   */\n          dup6\n            /* \"#utility.yul\":2616:2620   */\n          0x20\n            /* \"#utility.yul\":2609:2614   */\n          dup7\n            /* \"#utility.yul\":2605:2621   */\n          add\n            /* \"#utility.yul\":2583:2635   */\n          tag_124\n          jump\t// in\n        tag_123:\n            /* \"#utility.yul\":2660:2689   */\n          tag_125\n            /* \"#utility.yul\":2682:2688   */\n          dup2\n            /* \"#utility.yul\":2660:2689   */\n          tag_126\n          jump\t// in\n        tag_125:\n            /* \"#utility.yul\":2655:2658   */\n          dup5\n            /* \"#utility.yul\":2651:2690   */\n          add\n            /* \"#utility.yul\":2644:2690   */\n          swap2\n          pop\n            /* \"#utility.yul\":2424:2696   */\n          pop\n            /* \"#utility.yul\":2332:2696   */\n          swap3\n          swap2\n          pop\n          pop\n          jump\t// out\n            /* \"#utility.yul\":2702:2820   */\n        tag_127:\n            /* \"#utility.yul\":2789:2813   */\n          tag_129\n            /* \"#utility.yul\":2807:2812   */\n          dup2\n            /* \"#utility.yul\":2789:2813   */\n          tag_130\n          jump\t// in\n        tag_129:\n            /* \"#utility.yul\":2784:2787   */\n          dup3\n            /* \"#utility.yul\":2777:2814   */\n          mstore\n            /* \"#utility.yul\":2702:2820   */\n          pop\n          pop\n          jump\t// out\n            /* \"#utility.yul\":2826:2938   */\n        tag_131:\n            /* \"#utility.yul\":2909:2931   */\n          tag_133\n            /* \"#utility.yul\":2925:2930   */\n          dup2\n            /* \"#utility.yul\":2909:2931   */\n          tag_134\n          jump\t// in\n        tag_133:\n            /* \"#utility.yul\":2904:2907   */\n          dup3\n            /* \"#utility.yul\":2897:2932   */\n          mstore\n            /* \"#utility.yul\":2826:2938   */\n          pop\n          pop\n          jump\t// out\n            /* \"#utility.yul\":2944:3154   */\n        tag_22:\n            /* \"#utility.yul\":3031:3035   */\n          0x00\n            /* \"#utility.yul\":3069:3071   */\n          0x20\n            /* \"#utility.yul\":3058:3067   */\n          dup3\n            /* \"#utility.yul\":3054:3072   */\n          add\n            /* \"#utility.yul\":3046:3072   */\n          swap1\n          pop\n            /* \"#utility.yul\":3082:3147   */\n          tag_136\n            /* \"#utility.yul\":3144:3145   */\n          0x00\n            /* \"#utility.yul\":3133:3142   */\n          dup4\n            /* \"#utility.yul\":3129:3146   */\n          add\n            /* \"#utility.yul\":3120:3126   */\n          dup5\n            /* \"#utility.yul\":3082:3147   */\n          tag_113\n          jump\t// in\n        tag_136:\n            /* \"#utility.yul\":2944:3154   */\n          swap3\n          swap2\n          pop\n          pop\n          jump\t// out\n            /* \"#utility.yul\":3160:3473   */\n        tag_16:\n            /* \"#utility.yul\":3273:3277   */\n          0x00\n            /* \"#utility.yul\":3311:3313   */\n          0x20\n            /* \"#utility.yul\":3300:3309   */\n          dup3\n            /* \"#utility.yul\":3296:3314   */\n          add\n            /* \"#utility.yul\":3288:3314   */\n          swap1\n          pop\n            /* \"#utility.yul\":3360:3369   */\n          dup2\n            /* \"#utility.yul\":3354:3358   */\n          dup2\n            /* \"#utility.yul\":3350:3370   */\n          sub\n            /* \"#utility.yul\":3346:3347   */\n          0x00\n            /* \"#utility.yul\":3335:3344   */\n          dup4\n            /* \"#utility.yul\":3331:3348   */\n          add\n            /* \"#utility.yul\":3324:3371   */\n          mstore\n            /* \"#utility.yul\":3388:3466   */\n          tag_138\n            /* \"#utility.yul\":3461:3465   */\n          dup2\n            /* \"#utility.yul\":3452:3458   */\n          dup5\n            /* \"#utility.yul\":3388:3466   */\n          tag_117\n          jump\t// in\n        tag_138:\n            /* \"#utility.yul\":3380:3466   */\n          swap1\n          pop\n            /* \"#utility.yul\":3160:3473   */\n          swap3\n          swap2\n          pop\n          pop\n          jump\t// out\n            /* \"#utility.yul\":3479:3701   */\n        tag_26:\n            /* \"#utility.yul\":3572:3576   */\n          0x00\n            /* \"#utility.yul\":3610:3612   */\n          0x20\n            /* \"#utility.yul\":3599:3608   */\n          dup3\n            /* \"#utility.yul\":3595:3613   */\n          add\n            /* \"#utility.yul\":3587:3613   */\n          swap1\n          pop\n            /* \"#utility.yul\":3623:3694   */\n          tag_140\n            /* \"#utility.yul\":3691:3692   */\n          0x00\n            /* \"#utility.yul\":3680:3689   */\n          dup4\n            /* \"#utility.yul\":3676:3693   */\n          add\n            /* \"#utility.yul\":3667:3673   */\n          dup5\n            /* \"#utility.yul\":3623:3694   */\n          tag_127\n          jump\t// in\n        tag_140:\n            /* \"#utility.yul\":3479:3701   */\n          swap3\n          swap2\n          pop\n          pop\n          jump\t// out\n            /* \"#utility.yul\":3707:3921   */\n        tag_35:\n            /* \"#utility.yul\":3796:3800   */\n          0x00\n            /* \"#utility.yul\":3834:3836   */\n          0x20\n            /* \"#utility.yul\":3823:3832   */\n          dup3\n            /* \"#utility.yul\":3819:3837   */\n          add\n            /* \"#utility.yul\":3811:3837   */\n          swap1\n          pop\n            /* \"#utility.yul\":3847:3914   */\n          tag_142\n            /* \"#utility.yul\":3911:3912   */\n          0x00\n            /* \"#utility.yul\":3900:3909   */\n          dup4\n            /* \"#utility.yul\":3896:3913   */\n          add\n            /* \"#utility.yul\":3887:3893   */\n          dup5\n            /* \"#utility.yul\":3847:3914   */\n          tag_131\n          jump\t// in\n        tag_142:\n            /* \"#utility.yul\":3707:3921   */\n          swap3\n          swap2\n          pop\n          pop\n          jump\t// out\n            /* \"#utility.yul\":4008:4107   */\n        tag_120:\n            /* \"#utility.yul\":4060:4066   */\n          0x00\n            /* \"#utility.yul\":4094:4099   */\n          dup2\n            /* \"#utility.yul\":4088:4100   */\n          mload\n            /* \"#utility.yul\":4078:4100   */\n          swap1\n          pop\n            /* \"#utility.yul\":4008:4107   */\n          swap2\n          swap1\n          pop\n          jump\t// out\n            /* \"#utility.yul\":4113:4282   */\n        tag_122:\n            /* \"#utility.yul\":4197:4208   */\n          0x00\n            /* \"#utility.yul\":4231:4237   */\n          dup3\n            /* \"#utility.yul\":4226:4229   */\n          dup3\n            /* \"#utility.yul\":4219:4238   */\n          mstore\n            /* \"#utility.yul\":4271:4275   */\n          0x20\n            /* \"#utility.yul\":4266:4269   */\n          dup3\n            /* \"#utility.yul\":4262:4276   */\n          add\n            /* \"#utility.yul\":4247:4276   */\n          swap1\n          pop\n            /* \"#utility.yul\":4113:4282   */\n          swap3\n          swap2\n          pop\n          pop\n          jump\t// out\n            /* \"#utility.yul\":4288:4593   */\n        tag_69:\n            /* \"#utility.yul\":4328:4331   */\n          0x00\n            /* \"#utility.yul\":4347:4367   */\n          tag_148\n            /* \"#utility.yul\":4365:4366   */\n          dup3\n            /* \"#utility.yul\":4347:4367   */\n          tag_130\n          jump\t// in\n        tag_148:\n            /* \"#utility.yul\":4342:4367   */\n          swap2\n          pop\n            /* \"#utility.yul\":4381:4401   */\n          tag_149\n            /* \"#utility.yul\":4399:4400   */\n          dup4\n            /* \"#utility.yul\":4381:4401   */\n          tag_130\n          jump\t// in\n        tag_149:\n            /* \"#utility.yul\":4376:4401   */\n          swap3\n          pop\n            /* \"#utility.yul\":4535:4536   */\n          dup3\n            /* \"#utility.yul\":4467:4533   */\n          0xffffffffffffffffffffffffffffffffffffffffffffffffffffffffffffffff\n            /* \"#utility.yul\":4463:4537   */\n          sub\n            /* \"#utility.yul\":4460:4461   */\n          dup3\n            /* \"#utility.yul\":4457:4538   */\n          gt\n            /* \"#utility.yul\":4454:4561   */\n          iszero\n          tag_150\n          jumpi\n            /* \"#utility.yul\":4541:4559   */\n          tag_151\n          tag_152\n          jump\t// in\n        tag_151:\n            /* \"#utility.yul\":4454:4561   */\n        tag_150:\n            /* \"#utility.yul\":4585:4586   */\n          dup3\n            /* \"#utility.yul\":4582:4583   */\n          dup3\n            /* \"#utility.yul\":4578:4587   */\n          add\n            /* \"#utility.yul\":4571:4587   */\n          swap1\n          pop\n            /* \"#utility.yul\":4288:4593   */\n          swap3\n          swap2\n          pop\n          pop\n          jump\t// out\n            /* \"#utility.yul\":4599:4790   */\n        tag_66:\n            /* \"#utility.yul\":4639:4643   */\n          0x00\n            /* \"#utility.yul\":4659:4679   */\n          tag_154\n            /* \"#utility.yul\":4677:4678   */\n          dup3\n            /* \"#utility.yul\":4659:4679   */\n          tag_130\n          jump\t// in\n        tag_154:\n            /* \"#utility.yul\":4654:4679   */\n          swap2\n          pop\n            /* \"#utility.yul\":4693:4713   */\n          tag_155\n            /* \"#utility.yul\":4711:4712   */\n          dup4\n            /* \"#utility.yul\":4693:4713   */\n          tag_130\n          jump\t// in\n        tag_155:\n            /* \"#utility.yul\":4688:4713   */\n          swap3\n          pop\n            /* \"#utility.yul\":4732:4733   */\n          dup3\n            /* \"#utility.yul\":4729:4730   */\n          dup3\n            /* \"#utility.yul\":4726:4734   */\n          lt\n            /* \"#utility.yul\":4723:4757   */\n          iszero\n          tag_156\n          jumpi\n            /* \"#utility.yul\":4737:4755   */\n          tag_157\n          tag_152\n          jump\t// in\n        tag_157:\n            /* \"#utility.yul\":4723:4757   */\n        tag_156:\n            /* \"#utility.yul\":4782:4783   */\n          dup3\n            /* \"#utility.yul\":4779:4780   */\n          dup3\n            /* \"#utility.yul\":4775:4784   */\n          sub\n            /* \"#utility.yul\":4767:4784   */\n          swap1\n          pop\n            /* \"#utility.yul\":4599:4790   */\n          swap3\n          swap2\n          pop\n          pop\n          jump\t// out\n            /* \"#utility.yul\":4796:4892   */\n        tag_158:\n            /* \"#utility.yul\":4833:4840   */\n          0x00\n            /* \"#utility.yul\":4862:4886   */\n          tag_160\n            /* \"#utility.yul\":4880:4885   */\n          dup3\n            /* \"#utility.yul\":4862:4886   */\n          tag_161\n          jump\t// in\n        tag_160:\n            /* \"#utility.yul\":4851:4886   */\n          swap1\n          pop\n            /* \"#utility.yul\":4796:4892   */\n          swap2\n          swap1\n          pop\n          jump\t// out\n            /* \"#utility.yul\":4898:4988   */\n        tag_116:\n            /* \"#utility.yul\":4932:4939   */\n          0x00\n            /* \"#utility.yul\":4975:4980   */\n          dup2\n            /* \"#utility.yul\":4968:4981   */\n          iszero\n            /* \"#utility.yul\":4961:4982   */\n          iszero\n            /* \"#utility.yul\":4950:4982   */\n          swap1\n          pop\n            /* \"#utility.yul\":4898:4988   */\n          swap2\n          swap1\n          pop\n          jump\t// out\n            /* \"#utility.yul\":4994:5120   */\n        tag_161:\n            /* \"#utility.yul\":5031:5038   */\n          0x00\n            /* \"#utility.yul\":5071:5113   */\n          0xffffffffffffffffffffffffffffffffffffffff\n            /* \"#utility.yul\":5064:5069   */\n          dup3\n            /* \"#utility.yul\":5060:5114   */\n          and\n            /* \"#utility.yul\":5049:5114   */\n          swap1\n          pop\n            /* \"#utility.yul\":4994:5120   */\n          swap2\n          swap1\n          pop\n          jump\t// out\n            /* \"#utility.yul\":5126:5203   */\n        tag_130:\n            /* \"#utility.yul\":5163:5170   */\n          0x00\n            /* \"#utility.yul\":5192:5197   */\n          dup2\n            /* \"#utility.yul\":5181:5197   */\n          swap1\n          pop\n            /* \"#utility.yul\":5126:5203   */\n          swap2\n          swap1\n          pop\n          jump\t// out\n            /* \"#utility.yul\":5209:5295   */\n        tag_134:\n            /* \"#utility.yul\":5244:5251   */\n          0x00\n            /* \"#utility.yul\":5284:5288   */\n          0xff\n            /* \"#utility.yul\":5277:5282   */\n          dup3\n            /* \"#utility.yul\":5273:5289   */\n          and\n            /* \"#utility.yul\":5262:5289   */\n          swap1\n          pop\n            /* \"#utility.yul\":5209:5295   */\n          swap2\n          swap1\n          pop\n          jump\t// out\n            /* \"#utility.yul\":5301:5608   */\n        tag_124:\n            /* \"#utility.yul\":5369:5370   */\n          0x00\n            /* \"#utility.yul\":5379:5492   */\n        tag_167:\n            /* \"#utility.yul\":5393:5399   */\n          dup4\n            /* \"#utility.yul\":5390:5391   */\n          dup2\n            /* \"#utility.yul\":5387:5400   */\n          lt\n            /* \"#utility.yul\":5379:5492   */\n          iszero\n          tag_169\n          jumpi\n            /* \"#utility.yul\":5478:5479   */\n          dup1\n            /* \"#utility.yul\":5473:5476   */\n          dup3\n            /* \"#utility.yul\":5469:5480   */\n          add\n            /* \"#utility.yul\":5463:5481   */\n          mload\n            /* \"#utility.yul\":5459:5460   */\n          dup2\n            /* \"#utility.yul\":5454:5457   */\n          dup5\n            /* \"#utility.yul\":5450:5461   */\n          add\n            /* \"#utility.yul\":5443:5482   */\n          mstore\n            /* \"#utility.yul\":5415:5417   */\n          0x20\n            /* \"#utility.yul\":5412:5413   */\n          dup2\n            /* \"#utility.yul\":5408:5418   */\n          add\n            /* \"#utility.yul\":5403:5418   */\n          swap1\n          pop\n            /* \"#utility.yul\":5379:5492   */\n          jump(tag_167)\n        tag_169:\n            /* \"#utility.yul\":5510:5516   */\n          dup4\n            /* \"#utility.yul\":5507:5508   */\n          dup2\n            /* \"#utility.yul\":5504:5517   */\n          gt\n            /* \"#utility.yul\":5501:5602   */\n          iszero\n          tag_170\n          jumpi\n            /* \"#utility.yul\":5590:5591   */\n          0x00\n            /* \"#utility.yul\":5581:5587   */\n          dup5\n            /* \"#utility.yul\":5576:5579   */\n          dup5\n            /* \"#utility.yul\":5572:5588   */\n          add\n            /* \"#utility.yul\":5565:5592   */\n          mstore\n            /* \"#utility.yul\":5501:5602   */\n        tag_170:\n            /* \"#utility.yul\":5350:5608   */\n          pop\n            /* \"#utility.yul\":5301:5608   */\n          pop\n          pop\n          pop\n          jump\t// out\n            /* \"#utility.yul\":5614:5934   */\n        tag_54:\n            /* \"#utility.yul\":5658:5664   */\n          0x00\n            /* \"#utility.yul\":5695:5696   */\n          0x02\n            /* \"#utility.yul\":5689:5693   */\n          dup3\n            /* \"#utility.yul\":5685:5697   */\n          div\n            /* \"#utility.yul\":5675:5697   */\n          swap1\n          pop\n            /* \"#utility.yul\":5742:5743   */\n          0x01\n            /* \"#utility.yul\":5736:5740   */\n          dup3\n            /* \"#utility.yul\":5732:5744   */\n          and\n            /* \"#utility.yul\":5763:5781   */\n          dup1\n            /* \"#utility.yul\":5753:5834   */\n          tag_172\n          jumpi\n            /* \"#utility.yul\":5819:5823   */\n          0x7f\n            /* \"#utility.yul\":5811:5817   */\n          dup3\n            /* \"#utility.yul\":5807:5824   */\n          and\n            /* \"#utility.yul\":5797:5824   */\n          swap2\n          pop\n            /* \"#utility.yul\":5753:5834   */\n        tag_172:\n            /* \"#utility.yul\":5881:5883   */\n          0x20\n            /* \"#utility.yul\":5873:5879   */\n          dup3\n            /* \"#utility.yul\":5870:5884   */\n          lt\n            /* \"#utility.yul\":5850:5868   */\n          dup2\n            /* \"#utility.yul\":5847:5885   */\n          eq\n            /* \"#utility.yul\":5844:5928   */\n          iszero\n          tag_173\n          jumpi\n            /* \"#utility.yul\":5900:5918   */\n          tag_174\n          tag_175\n          jump\t// in\n        tag_174:\n            /* \"#utility.yul\":5844:5928   */\n        tag_173:\n            /* \"#utility.yul\":5665:5934   */\n          pop\n            /* \"#utility.yul\":5614:5934   */\n          swap2\n          swap1\n          pop\n          jump\t// out\n            /* \"#utility.yul\":5940:6120   */\n        tag_152:\n            /* \"#utility.yul\":5988:6065   */\n          0x4e487b7100000000000000000000000000000000000000000000000000000000\n            /* \"#utility.yul\":5985:5986   */\n          0x00\n            /* \"#utility.yul\":5978:6066   */\n          mstore\n            /* \"#utility.yul\":6085:6089   */\n          0x11\n            /* \"#utility.yul\":6082:6083   */\n          0x04\n            /* \"#utility.yul\":6075:6090   */\n          mstore\n            /* \"#utility.yul\":6109:6113   */\n          0x24\n            /* \"#utility.yul\":6106:6107   */\n          0x00\n            /* \"#utility.yul\":6099:6114   */\n          revert\n            /* \"#utility.yul\":6126:6306   */\n        tag_175:\n            /* \"#utility.yul\":6174:6251   */\n          0x4e487b7100000000000000000000000000000000000000000000000000000000\n            /* \"#utility.yul\":6171:6172   */\n          0x00\n            /* \"#utility.yul\":6164:6252   */\n          mstore\n            /* \"#utility.yul\":6271:6275   */\n          0x22\n            /* \"#utility.yul\":6268:6269   */\n          0x04\n            /* \"#utility.yul\":6261:6276   */\n          mstore\n            /* \"#utility.yul\":6295:6299   */\n          0x24\n            /* \"#utility.yul\":6292:6293   */\n          0x00\n            /* \"#utility.yul\":6285:6300   */\n          revert\n            /* \"#utility.yul\":6435:6552   */\n        tag_95:\n            /* \"#utility.yul\":6544:6545   */\n          0x00\n            /* \"#utility.yul\":6541:6542   */\n          dup1\n            /* \"#utility.yul\":6534:6546   */\n          revert\n            /* \"#utility.yul\":6558:6660   */\n        tag_126:\n            /* \"#utility.yul\":6599:6605   */\n          0x00\n            /* \"#utility.yul\":6650:6652   */\n          0x1f\n            /* \"#utility.yul\":6646:6653   */\n          not\n            /* \"#utility.yul\":6641:6643   */\n          0x1f\n            /* \"#utility.yul\":6634:6639   */\n          dup4\n            /* \"#utility.yul\":6630:6644   */\n          add\n            /* \"#utility.yul\":6626:6654   */\n          and\n            /* \"#utility.yul\":6616:6654   */\n          swap1\n          pop\n            /* \"#utility.yul\":6558:6660   */\n          swap2\n          swap1\n          pop\n          jump\t// out\n            /* \"#utility.yul\":6666:6788   */\n        tag_87:\n            /* \"#utility.yul\":6739:6763   */\n          tag_183\n            /* \"#utility.yul\":6757:6762   */\n          dup2\n            /* \"#utility.yul\":6739:6763   */\n          tag_158\n          jump\t// in\n        tag_183:\n            /* \"#utility.yul\":6732:6737   */\n          dup2\n            /* \"#utility.yul\":6729:6764   */\n          eq\n            /* \"#utility.yul\":6719:6782   */\n          tag_184\n          jumpi\n            /* \"#utility.yul\":6778:6779   */\n          0x00\n            /* \"#utility.yul\":6775:6776   */\n          dup1\n            /* \"#utility.yul\":6768:6780   */\n          revert\n            /* \"#utility.yul\":6719:6782   */\n        tag_184:\n            /* \"#utility.yul\":6666:6788   */\n          pop\n          jump\t// out\n            /* \"#utility.yul\":6794:6916   */\n        tag_91:\n            /* \"#utility.yul\":6867:6891   */\n          tag_186\n            /* \"#utility.yul\":6885:6890   */\n          dup2\n            /* \"#utility.yul\":6867:6891   */\n          tag_130\n          jump\t// in\n        tag_186:\n            /* \"#utility.yul\":6860:6865   */\n          dup2\n            /* \"#utility.yul\":6857:6892   */\n          eq\n            /* \"#utility.yul\":6847:6910   */\n          tag_187\n          jumpi\n            /* \"#utility.yul\":6906:6907   */\n          0x00\n            /* \"#utility.yul\":6903:6904   */\n          dup1\n            /* \"#utility.yul\":6896:6908   */\n          revert\n            /* \"#utility.yul\":6847:6910   */\n        tag_187:\n            /* \"#utility.yul\":6794:6916   */\n          pop\n          jump\t// out\n\n        auxdata: 0xa2646970667358221220f976a34490311e7ee56d9e69faf12bb4d6a81ad1d1c948b040b8ff9efd9c5f1364736f6c63430008070033\n    }\n}\n",
				"bytecode": {
					"linkReferences": {},
					"object": "608060405234801561001057600080fd5b5060405161001d9061007e565b604051809103906000f080158015610039573d6000803e3d6000fd5b506000806101000a81548173ffffffffffffffffffffffffffffffffffffffff021916908373ffffffffffffffffffffffffffffffffffffffff16021790555061008b565b6112fa80610a7a83390190565b6109e08061009a6000396000f3fe6080604052600436106100345760003560e01c8063a6f2ae3a14610039578063e4849b3214610043578063fc0c546a1461006c575b600080fd5b610041610097565b005b34801561004f57600080fd5b5061006a600480360381019061006591906105b1565b6102b9565b005b34801561007857600080fd5b50610081610521565b60405161008e9190610768565b60405180910390f35b600034905060008060009054906101000a900473ffffffffffffffffffffffffffffffffffffffff1673ffffffffffffffffffffffffffffffffffffffff166370a08231306040518263ffffffff1660e01b81526004016100f891906106c4565b60206040518083038186803b15801561011057600080fd5b505afa158015610124573d6000803e3d6000fd5b505050506040513d601f19601f8201168201806040525081019061014891906105de565b90506000821161018d576040517f08c379a0000000000000000000000000000000000000000000000000000000008152600401610184906107e3565b60405180910390fd5b808211156101d0576040517f08c379a00000000000000000000000000000000000000000000000000000000081526004016101c7906107c3565b60405180910390fd5b60008054906101000a900473ffffffffffffffffffffffffffffffffffffffff1673ffffffffffffffffffffffffffffffffffffffff1663a9059cbb33846040518363ffffffff1660e01b815260040161022b92919061073f565b602060405180830381600087803b15801561024557600080fd5b505af1158015610259573d6000803e3d6000fd5b505050506040513d601f19601f8201168201806040525081019061027d9190610584565b507f4e08ba899977cf7d4c2964bce71c6b9a7ef76ee5166a4c1249a1e08016e33ef1826040516102ad9190610803565b60405180910390a15050565b600081116102fc576040517f08c379a00000000000000000000000000000000000000000000000000000000081526004016102f390610783565b60405180910390fd5b60008060009054906101000a900473ffffffffffffffffffffffffffffffffffffffff1673ffffffffffffffffffffffffffffffffffffffff1663dd62ed3e33306040518363ffffffff1660e01b815260040161035a9291906106df565b60206040518083038186803b15801561037257600080fd5b505afa158015610386573d6000803e3d6000fd5b505050506040513d601f19601f820116820180604052508101906103aa91906105de565b9050818110156103ef576040517f08c379a00000000000000000000000000000000000000000000000000000000081526004016103e6906107a3565b60405180910390fd5b60008054906101000a900473ffffffffffffffffffffffffffffffffffffffff1673ffffffffffffffffffffffffffffffffffffffff166323b872dd3330856040518463ffffffff1660e01b815260040161044c93929190610708565b602060405180830381600087803b15801561046657600080fd5b505af115801561047a573d6000803e3d6000fd5b505050506040513d601f19601f8201168201806040525081019061049e9190610584565b503373ffffffffffffffffffffffffffffffffffffffff166108fc839081150290604051600060405180830381858888f193505050501580156104e5573d6000803e3d6000fd5b507f92f64ca637d023f354075a4be751b169c1a8a9ccb6d33cdd0cb3520543995727826040516105159190610803565b60405180910390a15050565b60008054906101000a900473ffffffffffffffffffffffffffffffffffffffff1681565b6000815190506105548161097c565b92915050565b60008135905061056981610993565b92915050565b60008151905061057e81610993565b92915050565b60006020828403121561059a576105996108ad565b5b60006105a884828501610545565b91505092915050565b6000602082840312156105c7576105c66108ad565b5b60006105d58482850161055a565b91505092915050565b6000602082840312156105f4576105f36108ad565b5b60006106028482850161056f565b91505092915050565b6106148161082f565b82525050565b61062381610877565b82525050565b600061063660258361081e565b9150610641826108b2565b604082019050919050565b600061065960198361081e565b915061066482610901565b602082019050919050565b600061067c60208361081e565b91506106878261092a565b602082019050919050565b600061069f601b8361081e565b91506106aa82610953565b602082019050919050565b6106be8161086d565b82525050565b60006020820190506106d9600083018461060b565b92915050565b60006040820190506106f4600083018561060b565b610701602083018461060b565b9392505050565b600060608201905061071d600083018661060b565b61072a602083018561060b565b61073760408301846106b5565b949350505050565b6000604082019050610754600083018561060b565b61076160208301846106b5565b9392505050565b600060208201905061077d600083018461061a565b92915050565b6000602082019050818103600083015261079c81610629565b9050919050565b600060208201905081810360008301526107bc8161064c565b9050919050565b600060208201905081810360008301526107dc8161066f565b9050919050565b600060208201905081810360008301526107fc81610692565b9050919050565b600060208201905061081860008301846106b5565b92915050565b600082825260208201905092915050565b600061083a8261084d565b9050919050565b60008115159050919050565b600073ffffffffffffffffffffffffffffffffffffffff82169050919050565b6000819050919050565b600061088282610889565b9050919050565b60006108948261089b565b9050919050565b60006108a68261084d565b9050919050565b600080fd5b7f596f75206e65656420746f2073656c6c206174206c6561737420736f6d65207460008201527f6f6b656e73000000000000000000000000000000000000000000000000000000602082015250565b7f436865636b2074686520746f6b656e20616c6c6f77616e636500000000000000600082015250565b7f4e6f7420656e6f75676820746f6b656e7320696e207468652072657365727665600082015250565b7f596f75206e65656420746f2073656e6420736f6d652065746865720000000000600082015250565b61098581610841565b811461099057600080fd5b50565b61099c8161086d565b81146109a757600080fd5b5056fea2646970667358221220bb2ea241ce3a6236296a99aa7600e0559a61252d134f8dfebc2792e0c5e70fb964736f6c6343000807003360806040526012600a62000014919062000228565b6201e23b62000024919062000365565b6004553480156200003457600080fd5b506040518060400160405280600c81526020017f54696d277320746f6b656e20000000000000000000000000000000000000000081525060009080519060200190620000829291906200011d565b506040518060400160405280600381526020017f424e42000000000000000000000000000000000000000000000000000000000081525060019080519060200190620000d09291906200011d565b50600454600260003373ffffffffffffffffffffffffffffffffffffffff1673ffffffffffffffffffffffffffffffffffffffff168152602001908152602001600020819055506200047e565b8280546200012b90620003dd565b90600052602060002090601f0160209004810192826200014f57600085556200019b565b82601f106200016a57805160ff19168380011785556200019b565b828001600101855582156200019b579182015b828111156200019a5782518255916020019190600101906200017d565b5b509050620001aa9190620001ae565b5090565b5b80821115620001c9576000816000905550600101620001af565b5090565b6000808291508390505b60018511156200021f57808604811115620001f757620001f662000413565b5b6001851615620002075780820291505b8081029050620002178562000471565b9450620001d7565b94509492505050565b60006200023582620003c6565b91506200024283620003d0565b9250620002717fffffffffffffffffffffffffffffffffffffffffffffffffffffffffffffffff848462000279565b905092915050565b6000826200028b57600190506200035e565b816200029b57600090506200035e565b8160018114620002b45760028114620002bf57620002f5565b60019150506200035e565b60ff841115620002d457620002d362000413565b5b8360020a915084821115620002ee57620002ed62000413565b5b506200035e565b5060208310610133831016604e8410600b84101617156200032f5782820a90508381111562000329576200032862000413565b5b6200035e565b6200033e8484846001620001cd565b9250905081840481111562000358576200035762000413565b5b81810290505b9392505050565b60006200037282620003c6565b91506200037f83620003c6565b9250817fffffffffffffffffffffffffffffffffffffffffffffffffffffffffffffffff0483118215151615620003bb57620003ba62000413565b5b828202905092915050565b6000819050919050565b600060ff82169050919050565b60006002820490506001821680620003f657607f821691505b602082108114156200040d576200040c62000442565b5b50919050565b7f4e487b7100000000000000000000000000000000000000000000000000000000600052601160045260246000fd5b7f4e487b7100000000000000000000000000000000000000000000000000000000600052602260045260246000fd5b60008160011c9050919050565b610e6c806200048e6000396000f3fe608060405234801561001057600080fd5b50600436106100935760003560e01c8063313ce56711610066578063313ce5671461013457806370a082311461015257806395d89b4114610182578063a9059cbb146101a0578063dd62ed3e146101d057610093565b806306fdde0314610098578063095ea7b3146100b657806318160ddd146100e657806323b872dd14610104575b600080fd5b6100a0610200565b6040516100ad9190610bdc565b60405180910390f35b6100d060048036038101906100cb9190610b1b565b61028e565b6040516100dd9190610bc1565b60405180910390f35b6100ee610380565b6040516100fb9190610bfe565b60405180910390f35b61011e60048036038101906101199190610ac8565b61038a565b60405161012b9190610bc1565b60405180910390f35b61013c6106f5565b6040516101499190610c19565b60405180910390f35b61016c60048036038101906101679190610a5b565b6106fa565b6040516101799190610bfe565b60405180910390f35b61018a610743565b6040516101979190610bdc565b60405180910390f35b6101ba60048036038101906101b59190610b1b565b6107d1565b6040516101c79190610bc1565b60405180910390f35b6101ea60048036038101906101e59190610a88565b6109aa565b6040516101f79190610bfe565b60405180910390f35b6000805461020d90610d62565b80601f016020809104026020016040519081016040528092919081815260200182805461023990610d62565b80156102865780601f1061025b57610100808354040283529160200191610286565b820191906000526020600020905b81548152906001019060200180831161026957829003601f168201915b505050505081565b600081600360003373ffffffffffffffffffffffffffffffffffffffff1673ffffffffffffffffffffffffffffffffffffffff16815260200190815260200160002060008573ffffffffffffffffffffffffffffffffffffffff1673ffffffffffffffffffffffffffffffffffffffff168152602001908152602001600020819055508273ffffffffffffffffffffffffffffffffffffffff163373ffffffffffffffffffffffffffffffffffffffff167f8c5be1e5ebec7d5bd14f71427d1e84f3dd0314c0f7b2291e5b200ac8c7c3b9258460405161036e9190610bfe565b60405180910390a36001905092915050565b6000600454905090565b6000600260008573ffffffffffffffffffffffffffffffffffffffff1673ffffffffffffffffffffffffffffffffffffffff168152602001908152602001600020548211156103d857600080fd5b600360008573ffffffffffffffffffffffffffffffffffffffff1673ffffffffffffffffffffffffffffffffffffffff16815260200190815260200160002060003373ffffffffffffffffffffffffffffffffffffffff1673ffffffffffffffffffffffffffffffffffffffff1681526020019081526020016000205482111561046157600080fd5b81600260008673ffffffffffffffffffffffffffffffffffffffff1673ffffffffffffffffffffffffffffffffffffffff168152602001908152602001600020546104ac9190610ca6565b600260008673ffffffffffffffffffffffffffffffffffffffff1673ffffffffffffffffffffffffffffffffffffffff1681526020019081526020016000208190555081600360008673ffffffffffffffffffffffffffffffffffffffff1673ffffffffffffffffffffffffffffffffffffffff16815260200190815260200160002060003373ffffffffffffffffffffffffffffffffffffffff1673ffffffffffffffffffffffffffffffffffffffff168152602001908152602001600020546105779190610ca6565b600360008673ffffffffffffffffffffffffffffffffffffffff1673ffffffffffffffffffffffffffffffffffffffff16815260200190815260200160002060003373ffffffffffffffffffffffffffffffffffffffff1673ffffffffffffffffffffffffffffffffffffffff1681526020019081526020016000208190555081600260008573ffffffffffffffffffffffffffffffffffffffff1673ffffffffffffffffffffffffffffffffffffffff168152602001908152602001600020546106429190610c50565b600260008573ffffffffffffffffffffffffffffffffffffffff1673ffffffffffffffffffffffffffffffffffffffff168152602001908152602001600020819055508273ffffffffffffffffffffffffffffffffffffffff168473ffffffffffffffffffffffffffffffffffffffff167fddf252ad1be2c89b69c2b068fc378daa952ba7f163c4a11628f55a4df523b3ef846040516106e29190610bfe565b60405180910390a3600190509392505050565b601281565b6000600260008373ffffffffffffffffffffffffffffffffffffffff1673ffffffffffffffffffffffffffffffffffffffff168152602001908152602001600020549050919050565b6001805461075090610d62565b80601f016020809104026020016040519081016040528092919081815260200182805461077c90610d62565b80156107c95780601f1061079e576101008083540402835291602001916107c9565b820191906000526020600020905b8154815290600101906020018083116107ac57829003601f168201915b505050505081565b6000600260003373ffffffffffffffffffffffffffffffffffffffff1673ffffffffffffffffffffffffffffffffffffffff1681526020019081526020016000205482111561081f57600080fd5b81600260003373ffffffffffffffffffffffffffffffffffffffff1673ffffffffffffffffffffffffffffffffffffffff1681526020019081526020016000205461086a9190610ca6565b600260003373ffffffffffffffffffffffffffffffffffffffff1673ffffffffffffffffffffffffffffffffffffffff1681526020019081526020016000208190555081600260008573ffffffffffffffffffffffffffffffffffffffff1673ffffffffffffffffffffffffffffffffffffffff168152602001908152602001600020546108f89190610c50565b600260008573ffffffffffffffffffffffffffffffffffffffff1673ffffffffffffffffffffffffffffffffffffffff168152602001908152602001600020819055508273ffffffffffffffffffffffffffffffffffffffff163373ffffffffffffffffffffffffffffffffffffffff167fddf252ad1be2c89b69c2b068fc378daa952ba7f163c4a11628f55a4df523b3ef846040516109989190610bfe565b60405180910390a36001905092915050565b6000600360008473ffffffffffffffffffffffffffffffffffffffff1673ffffffffffffffffffffffffffffffffffffffff16815260200190815260200160002060008373ffffffffffffffffffffffffffffffffffffffff1673ffffffffffffffffffffffffffffffffffffffff16815260200190815260200160002054905092915050565b600081359050610a4081610e08565b92915050565b600081359050610a5581610e1f565b92915050565b600060208284031215610a7157610a70610df2565b5b6000610a7f84828501610a31565b91505092915050565b60008060408385031215610a9f57610a9e610df2565b5b6000610aad85828601610a31565b9250506020610abe85828601610a31565b9150509250929050565b600080600060608486031215610ae157610ae0610df2565b5b6000610aef86828701610a31565b9350506020610b0086828701610a31565b9250506040610b1186828701610a46565b9150509250925092565b60008060408385031215610b3257610b31610df2565b5b6000610b4085828601610a31565b9250506020610b5185828601610a46565b9150509250929050565b610b6481610cec565b82525050565b6000610b7582610c34565b610b7f8185610c3f565b9350610b8f818560208601610d2f565b610b9881610df7565b840191505092915050565b610bac81610d18565b82525050565b610bbb81610d22565b82525050565b6000602082019050610bd66000830184610b5b565b92915050565b60006020820190508181036000830152610bf68184610b6a565b905092915050565b6000602082019050610c136000830184610ba3565b92915050565b6000602082019050610c2e6000830184610bb2565b92915050565b600081519050919050565b600082825260208201905092915050565b6000610c5b82610d18565b9150610c6683610d18565b9250827fffffffffffffffffffffffffffffffffffffffffffffffffffffffffffffffff03821115610c9b57610c9a610d94565b5b828201905092915050565b6000610cb182610d18565b9150610cbc83610d18565b925082821015610ccf57610cce610d94565b5b828203905092915050565b6000610ce582610cf8565b9050919050565b60008115159050919050565b600073ffffffffffffffffffffffffffffffffffffffff82169050919050565b6000819050919050565b600060ff82169050919050565b60005b83811015610d4d578082015181840152602081019050610d32565b83811115610d5c576000848401525b50505050565b60006002820490506001821680610d7a57607f821691505b60208210811415610d8e57610d8d610dc3565b5b50919050565b7f4e487b7100000000000000000000000000000000000000000000000000000000600052601160045260246000fd5b7f4e487b7100000000000000000000000000000000000000000000000000000000600052602260045260246000fd5b600080fd5b6000601f19601f8301169050919050565b610e1181610cda565b8114610e1c57600080fd5b50565b610e2881610d18565b8114610e3357600080fd5b5056fea2646970667358221220f976a34490311e7ee56d9e69faf12bb4d6a81ad1d1c948b040b8ff9efd9c5f1364736f6c63430008070033",
					"opcodes": "PUSH1 0x80 PUSH1 0x40 MSTORE CALLVALUE DUP1 ISZERO PUSH2 0x10 JUMPI PUSH1 0x0 DUP1 REVERT JUMPDEST POP PUSH1 0x40 MLOAD PUSH2 0x1D SWAP1 PUSH2 0x7E JUMP JUMPDEST PUSH1 0x40 MLOAD DUP1 SWAP2 SUB SWAP1 PUSH1 0x0 CREATE DUP1 ISZERO DUP1 ISZERO PUSH2 0x39 JUMPI RETURNDATASIZE PUSH1 0x0 DUP1 RETURNDATACOPY RETURNDATASIZE PUSH1 0x0 REVERT JUMPDEST POP PUSH1 0x0 DUP1 PUSH2 0x100 EXP DUP2 SLOAD DUP2 PUSH20 0xFFFFFFFFFFFFFFFFFFFFFFFFFFFFFFFFFFFFFFFF MUL NOT AND SWAP1 DUP4 PUSH20 0xFFFFFFFFFFFFFFFFFFFFFFFFFFFFFFFFFFFFFFFF AND MUL OR SWAP1 SSTORE POP PUSH2 0x8B JUMP JUMPDEST PUSH2 0x12FA DUP1 PUSH2 0xA7A DUP4 CODECOPY ADD SWAP1 JUMP JUMPDEST PUSH2 0x9E0 DUP1 PUSH2 0x9A PUSH1 0x0 CODECOPY PUSH1 0x0 RETURN INVALID PUSH1 0x80 PUSH1 0x40 MSTORE PUSH1 0x4 CALLDATASIZE LT PUSH2 0x34 JUMPI PUSH1 0x0 CALLDATALOAD PUSH1 0xE0 SHR DUP1 PUSH4 0xA6F2AE3A EQ PUSH2 0x39 JUMPI DUP1 PUSH4 0xE4849B32 EQ PUSH2 0x43 JUMPI DUP1 PUSH4 0xFC0C546A EQ PUSH2 0x6C JUMPI JUMPDEST PUSH1 0x0 DUP1 REVERT JUMPDEST PUSH2 0x41 PUSH2 0x97 JUMP JUMPDEST STOP JUMPDEST CALLVALUE DUP1 ISZERO PUSH2 0x4F JUMPI PUSH1 0x0 DUP1 REVERT JUMPDEST POP PUSH2 0x6A PUSH1 0x4 DUP1 CALLDATASIZE SUB DUP2 ADD SWAP1 PUSH2 0x65 SWAP2 SWAP1 PUSH2 0x5B1 JUMP JUMPDEST PUSH2 0x2B9 JUMP JUMPDEST STOP JUMPDEST CALLVALUE DUP1 ISZERO PUSH2 0x78 JUMPI PUSH1 0x0 DUP1 REVERT JUMPDEST POP PUSH2 0x81 PUSH2 0x521 JUMP JUMPDEST PUSH1 0x40 MLOAD PUSH2 0x8E SWAP2 SWAP1 PUSH2 0x768 JUMP JUMPDEST PUSH1 0x40 MLOAD DUP1 SWAP2 SUB SWAP1 RETURN JUMPDEST PUSH1 0x0 CALLVALUE SWAP1 POP PUSH1 0x0 DUP1 PUSH1 0x0 SWAP1 SLOAD SWAP1 PUSH2 0x100 EXP SWAP1 DIV PUSH20 0xFFFFFFFFFFFFFFFFFFFFFFFFFFFFFFFFFFFFFFFF AND PUSH20 0xFFFFFFFFFFFFFFFFFFFFFFFFFFFFFFFFFFFFFFFF AND PUSH4 0x70A08231 ADDRESS PUSH1 0x40 MLOAD DUP3 PUSH4 0xFFFFFFFF AND PUSH1 0xE0 SHL DUP2 MSTORE PUSH1 0x4 ADD PUSH2 0xF8 SWAP2 SWAP1 PUSH2 0x6C4 JUMP JUMPDEST PUSH1 0x20 PUSH1 0x40 MLOAD DUP1 DUP4 SUB DUP2 DUP7 DUP1 EXTCODESIZE ISZERO DUP1 ISZERO PUSH2 0x110 JUMPI PUSH1 0x0 DUP1 REVERT JUMPDEST POP GAS STATICCALL ISZERO DUP1 ISZERO PUSH2 0x124 JUMPI RETURNDATASIZE PUSH1 0x0 DUP1 RETURNDATACOPY RETURNDATASIZE PUSH1 0x0 REVERT JUMPDEST POP POP POP POP PUSH1 0x40 MLOAD RETURNDATASIZE PUSH1 0x1F NOT PUSH1 0x1F DUP3 ADD AND DUP3 ADD DUP1 PUSH1 0x40 MSTORE POP DUP2 ADD SWAP1 PUSH2 0x148 SWAP2 SWAP1 PUSH2 0x5DE JUMP JUMPDEST SWAP1 POP PUSH1 0x0 DUP3 GT PUSH2 0x18D JUMPI PUSH1 0x40 MLOAD PUSH32 0x8C379A000000000000000000000000000000000000000000000000000000000 DUP2 MSTORE PUSH1 0x4 ADD PUSH2 0x184 SWAP1 PUSH2 0x7E3 JUMP JUMPDEST PUSH1 0x40 MLOAD DUP1 SWAP2 SUB SWAP1 REVERT JUMPDEST DUP1 DUP3 GT ISZERO PUSH2 0x1D0 JUMPI PUSH1 0x40 MLOAD PUSH32 0x8C379A000000000000000000000000000000000000000000000000000000000 DUP2 MSTORE PUSH1 0x4 ADD PUSH2 0x1C7 SWAP1 PUSH2 0x7C3 JUMP JUMPDEST PUSH1 0x40 MLOAD DUP1 SWAP2 SUB SWAP1 REVERT JUMPDEST PUSH1 0x0 DUP1 SLOAD SWAP1 PUSH2 0x100 EXP SWAP1 DIV PUSH20 0xFFFFFFFFFFFFFFFFFFFFFFFFFFFFFFFFFFFFFFFF AND PUSH20 0xFFFFFFFFFFFFFFFFFFFFFFFFFFFFFFFFFFFFFFFF AND PUSH4 0xA9059CBB CALLER DUP5 PUSH1 0x40 MLOAD DUP4 PUSH4 0xFFFFFFFF AND PUSH1 0xE0 SHL DUP2 MSTORE PUSH1 0x4 ADD PUSH2 0x22B SWAP3 SWAP2 SWAP1 PUSH2 0x73F JUMP JUMPDEST PUSH1 0x20 PUSH1 0x40 MLOAD DUP1 DUP4 SUB DUP2 PUSH1 0x0 DUP8 DUP1 EXTCODESIZE ISZERO DUP1 ISZERO PUSH2 0x245 JUMPI PUSH1 0x0 DUP1 REVERT JUMPDEST POP GAS CALL ISZERO DUP1 ISZERO PUSH2 0x259 JUMPI RETURNDATASIZE PUSH1 0x0 DUP1 RETURNDATACOPY RETURNDATASIZE PUSH1 0x0 REVERT JUMPDEST POP POP POP POP PUSH1 0x40 MLOAD RETURNDATASIZE PUSH1 0x1F NOT PUSH1 0x1F DUP3 ADD AND DUP3 ADD DUP1 PUSH1 0x40 MSTORE POP DUP2 ADD SWAP1 PUSH2 0x27D SWAP2 SWAP1 PUSH2 0x584 JUMP JUMPDEST POP PUSH32 0x4E08BA899977CF7D4C2964BCE71C6B9A7EF76EE5166A4C1249A1E08016E33EF1 DUP3 PUSH1 0x40 MLOAD PUSH2 0x2AD SWAP2 SWAP1 PUSH2 0x803 JUMP JUMPDEST PUSH1 0x40 MLOAD DUP1 SWAP2 SUB SWAP1 LOG1 POP POP JUMP JUMPDEST PUSH1 0x0 DUP2 GT PUSH2 0x2FC JUMPI PUSH1 0x40 MLOAD PUSH32 0x8C379A000000000000000000000000000000000000000000000000000000000 DUP2 MSTORE PUSH1 0x4 ADD PUSH2 0x2F3 SWAP1 PUSH2 0x783 JUMP JUMPDEST PUSH1 0x40 MLOAD DUP1 SWAP2 SUB SWAP1 REVERT JUMPDEST PUSH1 0x0 DUP1 PUSH1 0x0 SWAP1 SLOAD SWAP1 PUSH2 0x100 EXP SWAP1 DIV PUSH20 0xFFFFFFFFFFFFFFFFFFFFFFFFFFFFFFFFFFFFFFFF AND PUSH20 0xFFFFFFFFFFFFFFFFFFFFFFFFFFFFFFFFFFFFFFFF AND PUSH4 0xDD62ED3E CALLER ADDRESS PUSH1 0x40 MLOAD DUP4 PUSH4 0xFFFFFFFF AND PUSH1 0xE0 SHL DUP2 MSTORE PUSH1 0x4 ADD PUSH2 0x35A SWAP3 SWAP2 SWAP1 PUSH2 0x6DF JUMP JUMPDEST PUSH1 0x20 PUSH1 0x40 MLOAD DUP1 DUP4 SUB DUP2 DUP7 DUP1 EXTCODESIZE ISZERO DUP1 ISZERO PUSH2 0x372 JUMPI PUSH1 0x0 DUP1 REVERT JUMPDEST POP GAS STATICCALL ISZERO DUP1 ISZERO PUSH2 0x386 JUMPI RETURNDATASIZE PUSH1 0x0 DUP1 RETURNDATACOPY RETURNDATASIZE PUSH1 0x0 REVERT JUMPDEST POP POP POP POP PUSH1 0x40 MLOAD RETURNDATASIZE PUSH1 0x1F NOT PUSH1 0x1F DUP3 ADD AND DUP3 ADD DUP1 PUSH1 0x40 MSTORE POP DUP2 ADD SWAP1 PUSH2 0x3AA SWAP2 SWAP1 PUSH2 0x5DE JUMP JUMPDEST SWAP1 POP DUP2 DUP2 LT ISZERO PUSH2 0x3EF JUMPI PUSH1 0x40 MLOAD PUSH32 0x8C379A000000000000000000000000000000000000000000000000000000000 DUP2 MSTORE PUSH1 0x4 ADD PUSH2 0x3E6 SWAP1 PUSH2 0x7A3 JUMP JUMPDEST PUSH1 0x40 MLOAD DUP1 SWAP2 SUB SWAP1 REVERT JUMPDEST PUSH1 0x0 DUP1 SLOAD SWAP1 PUSH2 0x100 EXP SWAP1 DIV PUSH20 0xFFFFFFFFFFFFFFFFFFFFFFFFFFFFFFFFFFFFFFFF AND PUSH20 0xFFFFFFFFFFFFFFFFFFFFFFFFFFFFFFFFFFFFFFFF AND PUSH4 0x23B872DD CALLER ADDRESS DUP6 PUSH1 0x40 MLOAD DUP5 PUSH4 0xFFFFFFFF AND PUSH1 0xE0 SHL DUP2 MSTORE PUSH1 0x4 ADD PUSH2 0x44C SWAP4 SWAP3 SWAP2 SWAP1 PUSH2 0x708 JUMP JUMPDEST PUSH1 0x20 PUSH1 0x40 MLOAD DUP1 DUP4 SUB DUP2 PUSH1 0x0 DUP8 DUP1 EXTCODESIZE ISZERO DUP1 ISZERO PUSH2 0x466 JUMPI PUSH1 0x0 DUP1 REVERT JUMPDEST POP GAS CALL ISZERO DUP1 ISZERO PUSH2 0x47A JUMPI RETURNDATASIZE PUSH1 0x0 DUP1 RETURNDATACOPY RETURNDATASIZE PUSH1 0x0 REVERT JUMPDEST POP POP POP POP PUSH1 0x40 MLOAD RETURNDATASIZE PUSH1 0x1F NOT PUSH1 0x1F DUP3 ADD AND DUP3 ADD DUP1 PUSH1 0x40 MSTORE POP DUP2 ADD SWAP1 PUSH2 0x49E SWAP2 SWAP1 PUSH2 0x584 JUMP JUMPDEST POP CALLER PUSH20 0xFFFFFFFFFFFFFFFFFFFFFFFFFFFFFFFFFFFFFFFF AND PUSH2 0x8FC DUP4 SWAP1 DUP2 ISZERO MUL SWAP1 PUSH1 0x40 MLOAD PUSH1 0x0 PUSH1 0x40 MLOAD DUP1 DUP4 SUB DUP2 DUP6 DUP9 DUP9 CALL SWAP4 POP POP POP POP ISZERO DUP1 ISZERO PUSH2 0x4E5 JUMPI RETURNDATASIZE PUSH1 0x0 DUP1 RETURNDATACOPY RETURNDATASIZE PUSH1 0x0 REVERT JUMPDEST POP PUSH32 0x92F64CA637D023F354075A4BE751B169C1A8A9CCB6D33CDD0CB3520543995727 DUP3 PUSH1 0x40 MLOAD PUSH2 0x515 SWAP2 SWAP1 PUSH2 0x803 JUMP JUMPDEST PUSH1 0x40 MLOAD DUP1 SWAP2 SUB SWAP1 LOG1 POP POP JUMP JUMPDEST PUSH1 0x0 DUP1 SLOAD SWAP1 PUSH2 0x100 EXP SWAP1 DIV PUSH20 0xFFFFFFFFFFFFFFFFFFFFFFFFFFFFFFFFFFFFFFFF AND DUP2 JUMP JUMPDEST PUSH1 0x0 DUP2 MLOAD SWAP1 POP PUSH2 0x554 DUP2 PUSH2 0x97C JUMP JUMPDEST SWAP3 SWAP2 POP POP JUMP JUMPDEST PUSH1 0x0 DUP2 CALLDATALOAD SWAP1 POP PUSH2 0x569 DUP2 PUSH2 0x993 JUMP JUMPDEST SWAP3 SWAP2 POP POP JUMP JUMPDEST PUSH1 0x0 DUP2 MLOAD SWAP1 POP PUSH2 0x57E DUP2 PUSH2 0x993 JUMP JUMPDEST SWAP3 SWAP2 POP POP JUMP JUMPDEST PUSH1 0x0 PUSH1 0x20 DUP3 DUP5 SUB SLT ISZERO PUSH2 0x59A JUMPI PUSH2 0x599 PUSH2 0x8AD JUMP JUMPDEST JUMPDEST PUSH1 0x0 PUSH2 0x5A8 DUP5 DUP3 DUP6 ADD PUSH2 0x545 JUMP JUMPDEST SWAP2 POP POP SWAP3 SWAP2 POP POP JUMP JUMPDEST PUSH1 0x0 PUSH1 0x20 DUP3 DUP5 SUB SLT ISZERO PUSH2 0x5C7 JUMPI PUSH2 0x5C6 PUSH2 0x8AD JUMP JUMPDEST JUMPDEST PUSH1 0x0 PUSH2 0x5D5 DUP5 DUP3 DUP6 ADD PUSH2 0x55A JUMP JUMPDEST SWAP2 POP POP SWAP3 SWAP2 POP POP JUMP JUMPDEST PUSH1 0x0 PUSH1 0x20 DUP3 DUP5 SUB SLT ISZERO PUSH2 0x5F4 JUMPI PUSH2 0x5F3 PUSH2 0x8AD JUMP JUMPDEST JUMPDEST PUSH1 0x0 PUSH2 0x602 DUP5 DUP3 DUP6 ADD PUSH2 0x56F JUMP JUMPDEST SWAP2 POP POP SWAP3 SWAP2 POP POP JUMP JUMPDEST PUSH2 0x614 DUP2 PUSH2 0x82F JUMP JUMPDEST DUP3 MSTORE POP POP JUMP JUMPDEST PUSH2 0x623 DUP2 PUSH2 0x877 JUMP JUMPDEST DUP3 MSTORE POP POP JUMP JUMPDEST PUSH1 0x0 PUSH2 0x636 PUSH1 0x25 DUP4 PUSH2 0x81E JUMP JUMPDEST SWAP2 POP PUSH2 0x641 DUP3 PUSH2 0x8B2 JUMP JUMPDEST PUSH1 0x40 DUP3 ADD SWAP1 POP SWAP2 SWAP1 POP JUMP JUMPDEST PUSH1 0x0 PUSH2 0x659 PUSH1 0x19 DUP4 PUSH2 0x81E JUMP JUMPDEST SWAP2 POP PUSH2 0x664 DUP3 PUSH2 0x901 JUMP JUMPDEST PUSH1 0x20 DUP3 ADD SWAP1 POP SWAP2 SWAP1 POP JUMP JUMPDEST PUSH1 0x0 PUSH2 0x67C PUSH1 0x20 DUP4 PUSH2 0x81E JUMP JUMPDEST SWAP2 POP PUSH2 0x687 DUP3 PUSH2 0x92A JUMP JUMPDEST PUSH1 0x20 DUP3 ADD SWAP1 POP SWAP2 SWAP1 POP JUMP JUMPDEST PUSH1 0x0 PUSH2 0x69F PUSH1 0x1B DUP4 PUSH2 0x81E JUMP JUMPDEST SWAP2 POP PUSH2 0x6AA DUP3 PUSH2 0x953 JUMP JUMPDEST PUSH1 0x20 DUP3 ADD SWAP1 POP SWAP2 SWAP1 POP JUMP JUMPDEST PUSH2 0x6BE DUP2 PUSH2 0x86D JUMP JUMPDEST DUP3 MSTORE POP POP JUMP JUMPDEST PUSH1 0x0 PUSH1 0x20 DUP3 ADD SWAP1 POP PUSH2 0x6D9 PUSH1 0x0 DUP4 ADD DUP5 PUSH2 0x60B JUMP JUMPDEST SWAP3 SWAP2 POP POP JUMP JUMPDEST PUSH1 0x0 PUSH1 0x40 DUP3 ADD SWAP1 POP PUSH2 0x6F4 PUSH1 0x0 DUP4 ADD DUP6 PUSH2 0x60B JUMP JUMPDEST PUSH2 0x701 PUSH1 0x20 DUP4 ADD DUP5 PUSH2 0x60B JUMP JUMPDEST SWAP4 SWAP3 POP POP POP JUMP JUMPDEST PUSH1 0x0 PUSH1 0x60 DUP3 ADD SWAP1 POP PUSH2 0x71D PUSH1 0x0 DUP4 ADD DUP7 PUSH2 0x60B JUMP JUMPDEST PUSH2 0x72A PUSH1 0x20 DUP4 ADD DUP6 PUSH2 0x60B JUMP JUMPDEST PUSH2 0x737 PUSH1 0x40 DUP4 ADD DUP5 PUSH2 0x6B5 JUMP JUMPDEST SWAP5 SWAP4 POP POP POP POP JUMP JUMPDEST PUSH1 0x0 PUSH1 0x40 DUP3 ADD SWAP1 POP PUSH2 0x754 PUSH1 0x0 DUP4 ADD DUP6 PUSH2 0x60B JUMP JUMPDEST PUSH2 0x761 PUSH1 0x20 DUP4 ADD DUP5 PUSH2 0x6B5 JUMP JUMPDEST SWAP4 SWAP3 POP POP POP JUMP JUMPDEST PUSH1 0x0 PUSH1 0x20 DUP3 ADD SWAP1 POP PUSH2 0x77D PUSH1 0x0 DUP4 ADD DUP5 PUSH2 0x61A JUMP JUMPDEST SWAP3 SWAP2 POP POP JUMP JUMPDEST PUSH1 0x0 PUSH1 0x20 DUP3 ADD SWAP1 POP DUP2 DUP2 SUB PUSH1 0x0 DUP4 ADD MSTORE PUSH2 0x79C DUP2 PUSH2 0x629 JUMP JUMPDEST SWAP1 POP SWAP2 SWAP1 POP JUMP JUMPDEST PUSH1 0x0 PUSH1 0x20 DUP3 ADD SWAP1 POP DUP2 DUP2 SUB PUSH1 0x0 DUP4 ADD MSTORE PUSH2 0x7BC DUP2 PUSH2 0x64C JUMP JUMPDEST SWAP1 POP SWAP2 SWAP1 POP JUMP JUMPDEST PUSH1 0x0 PUSH1 0x20 DUP3 ADD SWAP1 POP DUP2 DUP2 SUB PUSH1 0x0 DUP4 ADD MSTORE PUSH2 0x7DC DUP2 PUSH2 0x66F JUMP JUMPDEST SWAP1 POP SWAP2 SWAP1 POP JUMP JUMPDEST PUSH1 0x0 PUSH1 0x20 DUP3 ADD SWAP1 POP DUP2 DUP2 SUB PUSH1 0x0 DUP4 ADD MSTORE PUSH2 0x7FC DUP2 PUSH2 0x692 JUMP JUMPDEST SWAP1 POP SWAP2 SWAP1 POP JUMP JUMPDEST PUSH1 0x0 PUSH1 0x20 DUP3 ADD SWAP1 POP PUSH2 0x818 PUSH1 0x0 DUP4 ADD DUP5 PUSH2 0x6B5 JUMP JUMPDEST SWAP3 SWAP2 POP POP JUMP JUMPDEST PUSH1 0x0 DUP3 DUP3 MSTORE PUSH1 0x20 DUP3 ADD SWAP1 POP SWAP3 SWAP2 POP POP JUMP JUMPDEST PUSH1 0x0 PUSH2 0x83A DUP3 PUSH2 0x84D JUMP JUMPDEST SWAP1 POP SWAP2 SWAP1 POP JUMP JUMPDEST PUSH1 0x0 DUP2 ISZERO ISZERO SWAP1 POP SWAP2 SWAP1 POP JUMP JUMPDEST PUSH1 0x0 PUSH20 0xFFFFFFFFFFFFFFFFFFFFFFFFFFFFFFFFFFFFFFFF DUP3 AND SWAP1 POP SWAP2 SWAP1 POP JUMP JUMPDEST PUSH1 0x0 DUP2 SWAP1 POP SWAP2 SWAP1 POP JUMP JUMPDEST PUSH1 0x0 PUSH2 0x882 DUP3 PUSH2 0x889 JUMP JUMPDEST SWAP1 POP SWAP2 SWAP1 POP JUMP JUMPDEST PUSH1 0x0 PUSH2 0x894 DUP3 PUSH2 0x89B JUMP JUMPDEST SWAP1 POP SWAP2 SWAP1 POP JUMP JUMPDEST PUSH1 0x0 PUSH2 0x8A6 DUP3 PUSH2 0x84D JUMP JUMPDEST SWAP1 POP SWAP2 SWAP1 POP JUMP JUMPDEST PUSH1 0x0 DUP1 REVERT JUMPDEST PUSH32 0x596F75206E65656420746F2073656C6C206174206C6561737420736F6D652074 PUSH1 0x0 DUP3 ADD MSTORE PUSH32 0x6F6B656E73000000000000000000000000000000000000000000000000000000 PUSH1 0x20 DUP3 ADD MSTORE POP JUMP JUMPDEST PUSH32 0x436865636B2074686520746F6B656E20616C6C6F77616E636500000000000000 PUSH1 0x0 DUP3 ADD MSTORE POP JUMP JUMPDEST PUSH32 0x4E6F7420656E6F75676820746F6B656E7320696E207468652072657365727665 PUSH1 0x0 DUP3 ADD MSTORE POP JUMP JUMPDEST PUSH32 0x596F75206E65656420746F2073656E6420736F6D652065746865720000000000 PUSH1 0x0 DUP3 ADD MSTORE POP JUMP JUMPDEST PUSH2 0x985 DUP2 PUSH2 0x841 JUMP JUMPDEST DUP2 EQ PUSH2 0x990 JUMPI PUSH1 0x0 DUP1 REVERT JUMPDEST POP JUMP JUMPDEST PUSH2 0x99C DUP2 PUSH2 0x86D JUMP JUMPDEST DUP2 EQ PUSH2 0x9A7 JUMPI PUSH1 0x0 DUP1 REVERT JUMPDEST POP JUMP INVALID LOG2 PUSH5 0x6970667358 0x22 SLT KECCAK256 0xBB 0x2E LOG2 COINBASE 0xCE GASPRICE PUSH3 0x36296A SWAP10 0xAA PUSH23 0xE0559A61252D134F8DFEBC2792E0C5E70FB964736F6C PUSH4 0x43000807 STOP CALLER PUSH1 0x80 PUSH1 0x40 MSTORE PUSH1 0x12 PUSH1 0xA PUSH3 0x14 SWAP2 SWAP1 PUSH3 0x228 JUMP JUMPDEST PUSH3 0x1E23B PUSH3 0x24 SWAP2 SWAP1 PUSH3 0x365 JUMP JUMPDEST PUSH1 0x4 SSTORE CALLVALUE DUP1 ISZERO PUSH3 0x34 JUMPI PUSH1 0x0 DUP1 REVERT JUMPDEST POP PUSH1 0x40 MLOAD DUP1 PUSH1 0x40 ADD PUSH1 0x40 MSTORE DUP1 PUSH1 0xC DUP2 MSTORE PUSH1 0x20 ADD PUSH32 0x54696D277320746F6B656E200000000000000000000000000000000000000000 DUP2 MSTORE POP PUSH1 0x0 SWAP1 DUP1 MLOAD SWAP1 PUSH1 0x20 ADD SWAP1 PUSH3 0x82 SWAP3 SWAP2 SWAP1 PUSH3 0x11D JUMP JUMPDEST POP PUSH1 0x40 MLOAD DUP1 PUSH1 0x40 ADD PUSH1 0x40 MSTORE DUP1 PUSH1 0x3 DUP2 MSTORE PUSH1 0x20 ADD PUSH32 0x424E420000000000000000000000000000000000000000000000000000000000 DUP2 MSTORE POP PUSH1 0x1 SWAP1 DUP1 MLOAD SWAP1 PUSH1 0x20 ADD SWAP1 PUSH3 0xD0 SWAP3 SWAP2 SWAP1 PUSH3 0x11D JUMP JUMPDEST POP PUSH1 0x4 SLOAD PUSH1 0x2 PUSH1 0x0 CALLER PUSH20 0xFFFFFFFFFFFFFFFFFFFFFFFFFFFFFFFFFFFFFFFF AND PUSH20 0xFFFFFFFFFFFFFFFFFFFFFFFFFFFFFFFFFFFFFFFF AND DUP2 MSTORE PUSH1 0x20 ADD SWAP1 DUP2 MSTORE PUSH1 0x20 ADD PUSH1 0x0 KECCAK256 DUP2 SWAP1 SSTORE POP PUSH3 0x47E JUMP JUMPDEST DUP3 DUP1 SLOAD PUSH3 0x12B SWAP1 PUSH3 0x3DD JUMP JUMPDEST SWAP1 PUSH1 0x0 MSTORE PUSH1 0x20 PUSH1 0x0 KECCAK256 SWAP1 PUSH1 0x1F ADD PUSH1 0x20 SWAP1 DIV DUP2 ADD SWAP3 DUP3 PUSH3 0x14F JUMPI PUSH1 0x0 DUP6 SSTORE PUSH3 0x19B JUMP JUMPDEST DUP3 PUSH1 0x1F LT PUSH3 0x16A JUMPI DUP1 MLOAD PUSH1 0xFF NOT AND DUP4 DUP1 ADD OR DUP6 SSTORE PUSH3 0x19B JUMP JUMPDEST DUP3 DUP1 ADD PUSH1 0x1 ADD DUP6 SSTORE DUP3 ISZERO PUSH3 0x19B JUMPI SWAP2 DUP3 ADD JUMPDEST DUP3 DUP2 GT ISZERO PUSH3 0x19A JUMPI DUP3 MLOAD DUP3 SSTORE SWAP2 PUSH1 0x20 ADD SWAP2 SWAP1 PUSH1 0x1 ADD SWAP1 PUSH3 0x17D JUMP JUMPDEST JUMPDEST POP SWAP1 POP PUSH3 0x1AA SWAP2 SWAP1 PUSH3 0x1AE JUMP JUMPDEST POP SWAP1 JUMP JUMPDEST JUMPDEST DUP1 DUP3 GT ISZERO PUSH3 0x1C9 JUMPI PUSH1 0x0 DUP2 PUSH1 0x0 SWAP1 SSTORE POP PUSH1 0x1 ADD PUSH3 0x1AF JUMP JUMPDEST POP SWAP1 JUMP JUMPDEST PUSH1 0x0 DUP1 DUP3 SWAP2 POP DUP4 SWAP1 POP JUMPDEST PUSH1 0x1 DUP6 GT ISZERO PUSH3 0x21F JUMPI DUP1 DUP7 DIV DUP2 GT ISZERO PUSH3 0x1F7 JUMPI PUSH3 0x1F6 PUSH3 0x413 JUMP JUMPDEST JUMPDEST PUSH1 0x1 DUP6 AND ISZERO PUSH3 0x207 JUMPI DUP1 DUP3 MUL SWAP2 POP JUMPDEST DUP1 DUP2 MUL SWAP1 POP PUSH3 0x217 DUP6 PUSH3 0x471 JUMP JUMPDEST SWAP5 POP PUSH3 0x1D7 JUMP JUMPDEST SWAP5 POP SWAP5 SWAP3 POP POP POP JUMP JUMPDEST PUSH1 0x0 PUSH3 0x235 DUP3 PUSH3 0x3C6 JUMP JUMPDEST SWAP2 POP PUSH3 0x242 DUP4 PUSH3 0x3D0 JUMP JUMPDEST SWAP3 POP PUSH3 0x271 PUSH32 0xFFFFFFFFFFFFFFFFFFFFFFFFFFFFFFFFFFFFFFFFFFFFFFFFFFFFFFFFFFFFFFFF DUP5 DUP5 PUSH3 0x279 JUMP JUMPDEST SWAP1 POP SWAP3 SWAP2 POP POP JUMP JUMPDEST PUSH1 0x0 DUP3 PUSH3 0x28B JUMPI PUSH1 0x1 SWAP1 POP PUSH3 0x35E JUMP JUMPDEST DUP2 PUSH3 0x29B JUMPI PUSH1 0x0 SWAP1 POP PUSH3 0x35E JUMP JUMPDEST DUP2 PUSH1 0x1 DUP2 EQ PUSH3 0x2B4 JUMPI PUSH1 0x2 DUP2 EQ PUSH3 0x2BF JUMPI PUSH3 0x2F5 JUMP JUMPDEST PUSH1 0x1 SWAP2 POP POP PUSH3 0x35E JUMP JUMPDEST PUSH1 0xFF DUP5 GT ISZERO PUSH3 0x2D4 JUMPI PUSH3 0x2D3 PUSH3 0x413 JUMP JUMPDEST JUMPDEST DUP4 PUSH1 0x2 EXP SWAP2 POP DUP5 DUP3 GT ISZERO PUSH3 0x2EE JUMPI PUSH3 0x2ED PUSH3 0x413 JUMP JUMPDEST JUMPDEST POP PUSH3 0x35E JUMP JUMPDEST POP PUSH1 0x20 DUP4 LT PUSH2 0x133 DUP4 LT AND PUSH1 0x4E DUP5 LT PUSH1 0xB DUP5 LT AND OR ISZERO PUSH3 0x32F JUMPI DUP3 DUP3 EXP SWAP1 POP DUP4 DUP2 GT ISZERO PUSH3 0x329 JUMPI PUSH3 0x328 PUSH3 0x413 JUMP JUMPDEST JUMPDEST PUSH3 0x35E JUMP JUMPDEST PUSH3 0x33E DUP5 DUP5 DUP5 PUSH1 0x1 PUSH3 0x1CD JUMP JUMPDEST SWAP3 POP SWAP1 POP DUP2 DUP5 DIV DUP2 GT ISZERO PUSH3 0x358 JUMPI PUSH3 0x357 PUSH3 0x413 JUMP JUMPDEST JUMPDEST DUP2 DUP2 MUL SWAP1 POP JUMPDEST SWAP4 SWAP3 POP POP POP JUMP JUMPDEST PUSH1 0x0 PUSH3 0x372 DUP3 PUSH3 0x3C6 JUMP JUMPDEST SWAP2 POP PUSH3 0x37F DUP4 PUSH3 0x3C6 JUMP JUMPDEST SWAP3 POP DUP2 PUSH32 0xFFFFFFFFFFFFFFFFFFFFFFFFFFFFFFFFFFFFFFFFFFFFFFFFFFFFFFFFFFFFFFFF DIV DUP4 GT DUP3 ISZERO ISZERO AND ISZERO PUSH3 0x3BB JUMPI PUSH3 0x3BA PUSH3 0x413 JUMP JUMPDEST JUMPDEST DUP3 DUP3 MUL SWAP1 POP SWAP3 SWAP2 POP POP JUMP JUMPDEST PUSH1 0x0 DUP2 SWAP1 POP SWAP2 SWAP1 POP JUMP JUMPDEST PUSH1 0x0 PUSH1 0xFF DUP3 AND SWAP1 POP SWAP2 SWAP1 POP JUMP JUMPDEST PUSH1 0x0 PUSH1 0x2 DUP3 DIV SWAP1 POP PUSH1 0x1 DUP3 AND DUP1 PUSH3 0x3F6 JUMPI PUSH1 0x7F DUP3 AND SWAP2 POP JUMPDEST PUSH1 0x20 DUP3 LT DUP2 EQ ISZERO PUSH3 0x40D JUMPI PUSH3 0x40C PUSH3 0x442 JUMP JUMPDEST JUMPDEST POP SWAP2 SWAP1 POP JUMP JUMPDEST PUSH32 0x4E487B7100000000000000000000000000000000000000000000000000000000 PUSH1 0x0 MSTORE PUSH1 0x11 PUSH1 0x4 MSTORE PUSH1 0x24 PUSH1 0x0 REVERT JUMPDEST PUSH32 0x4E487B7100000000000000000000000000000000000000000000000000000000 PUSH1 0x0 MSTORE PUSH1 0x22 PUSH1 0x4 MSTORE PUSH1 0x24 PUSH1 0x0 REVERT JUMPDEST PUSH1 0x0 DUP2 PUSH1 0x1 SHR SWAP1 POP SWAP2 SWAP1 POP JUMP JUMPDEST PUSH2 0xE6C DUP1 PUSH3 0x48E PUSH1 0x0 CODECOPY PUSH1 0x0 RETURN INVALID PUSH1 0x80 PUSH1 0x40 MSTORE CALLVALUE DUP1 ISZERO PUSH2 0x10 JUMPI PUSH1 0x0 DUP1 REVERT JUMPDEST POP PUSH1 0x4 CALLDATASIZE LT PUSH2 0x93 JUMPI PUSH1 0x0 CALLDATALOAD PUSH1 0xE0 SHR DUP1 PUSH4 0x313CE567 GT PUSH2 0x66 JUMPI DUP1 PUSH4 0x313CE567 EQ PUSH2 0x134 JUMPI DUP1 PUSH4 0x70A08231 EQ PUSH2 0x152 JUMPI DUP1 PUSH4 0x95D89B41 EQ PUSH2 0x182 JUMPI DUP1 PUSH4 0xA9059CBB EQ PUSH2 0x1A0 JUMPI DUP1 PUSH4 0xDD62ED3E EQ PUSH2 0x1D0 JUMPI PUSH2 0x93 JUMP JUMPDEST DUP1 PUSH4 0x6FDDE03 EQ PUSH2 0x98 JUMPI DUP1 PUSH4 0x95EA7B3 EQ PUSH2 0xB6 JUMPI DUP1 PUSH4 0x18160DDD EQ PUSH2 0xE6 JUMPI DUP1 PUSH4 0x23B872DD EQ PUSH2 0x104 JUMPI JUMPDEST PUSH1 0x0 DUP1 REVERT JUMPDEST PUSH2 0xA0 PUSH2 0x200 JUMP JUMPDEST PUSH1 0x40 MLOAD PUSH2 0xAD SWAP2 SWAP1 PUSH2 0xBDC JUMP JUMPDEST PUSH1 0x40 MLOAD DUP1 SWAP2 SUB SWAP1 RETURN JUMPDEST PUSH2 0xD0 PUSH1 0x4 DUP1 CALLDATASIZE SUB DUP2 ADD SWAP1 PUSH2 0xCB SWAP2 SWAP1 PUSH2 0xB1B JUMP JUMPDEST PUSH2 0x28E JUMP JUMPDEST PUSH1 0x40 MLOAD PUSH2 0xDD SWAP2 SWAP1 PUSH2 0xBC1 JUMP JUMPDEST PUSH1 0x40 MLOAD DUP1 SWAP2 SUB SWAP1 RETURN JUMPDEST PUSH2 0xEE PUSH2 0x380 JUMP JUMPDEST PUSH1 0x40 MLOAD PUSH2 0xFB SWAP2 SWAP1 PUSH2 0xBFE JUMP JUMPDEST PUSH1 0x40 MLOAD DUP1 SWAP2 SUB SWAP1 RETURN JUMPDEST PUSH2 0x11E PUSH1 0x4 DUP1 CALLDATASIZE SUB DUP2 ADD SWAP1 PUSH2 0x119 SWAP2 SWAP1 PUSH2 0xAC8 JUMP JUMPDEST PUSH2 0x38A JUMP JUMPDEST PUSH1 0x40 MLOAD PUSH2 0x12B SWAP2 SWAP1 PUSH2 0xBC1 JUMP JUMPDEST PUSH1 0x40 MLOAD DUP1 SWAP2 SUB SWAP1 RETURN JUMPDEST PUSH2 0x13C PUSH2 0x6F5 JUMP JUMPDEST PUSH1 0x40 MLOAD PUSH2 0x149 SWAP2 SWAP1 PUSH2 0xC19 JUMP JUMPDEST PUSH1 0x40 MLOAD DUP1 SWAP2 SUB SWAP1 RETURN JUMPDEST PUSH2 0x16C PUSH1 0x4 DUP1 CALLDATASIZE SUB DUP2 ADD SWAP1 PUSH2 0x167 SWAP2 SWAP1 PUSH2 0xA5B JUMP JUMPDEST PUSH2 0x6FA JUMP JUMPDEST PUSH1 0x40 MLOAD PUSH2 0x179 SWAP2 SWAP1 PUSH2 0xBFE JUMP JUMPDEST PUSH1 0x40 MLOAD DUP1 SWAP2 SUB SWAP1 RETURN JUMPDEST PUSH2 0x18A PUSH2 0x743 JUMP JUMPDEST PUSH1 0x40 MLOAD PUSH2 0x197 SWAP2 SWAP1 PUSH2 0xBDC JUMP JUMPDEST PUSH1 0x40 MLOAD DUP1 SWAP2 SUB SWAP1 RETURN JUMPDEST PUSH2 0x1BA PUSH1 0x4 DUP1 CALLDATASIZE SUB DUP2 ADD SWAP1 PUSH2 0x1B5 SWAP2 SWAP1 PUSH2 0xB1B JUMP JUMPDEST PUSH2 0x7D1 JUMP JUMPDEST PUSH1 0x40 MLOAD PUSH2 0x1C7 SWAP2 SWAP1 PUSH2 0xBC1 JUMP JUMPDEST PUSH1 0x40 MLOAD DUP1 SWAP2 SUB SWAP1 RETURN JUMPDEST PUSH2 0x1EA PUSH1 0x4 DUP1 CALLDATASIZE SUB DUP2 ADD SWAP1 PUSH2 0x1E5 SWAP2 SWAP1 PUSH2 0xA88 JUMP JUMPDEST PUSH2 0x9AA JUMP JUMPDEST PUSH1 0x40 MLOAD PUSH2 0x1F7 SWAP2 SWAP1 PUSH2 0xBFE JUMP JUMPDEST PUSH1 0x40 MLOAD DUP1 SWAP2 SUB SWAP1 RETURN JUMPDEST PUSH1 0x0 DUP1 SLOAD PUSH2 0x20D SWAP1 PUSH2 0xD62 JUMP JUMPDEST DUP1 PUSH1 0x1F ADD PUSH1 0x20 DUP1 SWAP2 DIV MUL PUSH1 0x20 ADD PUSH1 0x40 MLOAD SWAP1 DUP2 ADD PUSH1 0x40 MSTORE DUP1 SWAP3 SWAP2 SWAP1 DUP2 DUP2 MSTORE PUSH1 0x20 ADD DUP3 DUP1 SLOAD PUSH2 0x239 SWAP1 PUSH2 0xD62 JUMP JUMPDEST DUP1 ISZERO PUSH2 0x286 JUMPI DUP1 PUSH1 0x1F LT PUSH2 0x25B JUMPI PUSH2 0x100 DUP1 DUP4 SLOAD DIV MUL DUP4 MSTORE SWAP2 PUSH1 0x20 ADD SWAP2 PUSH2 0x286 JUMP JUMPDEST DUP3 ADD SWAP2 SWAP1 PUSH1 0x0 MSTORE PUSH1 0x20 PUSH1 0x0 KECCAK256 SWAP1 JUMPDEST DUP2 SLOAD DUP2 MSTORE SWAP1 PUSH1 0x1 ADD SWAP1 PUSH1 0x20 ADD DUP1 DUP4 GT PUSH2 0x269 JUMPI DUP3 SWAP1 SUB PUSH1 0x1F AND DUP3 ADD SWAP2 JUMPDEST POP POP POP POP POP DUP2 JUMP JUMPDEST PUSH1 0x0 DUP2 PUSH1 0x3 PUSH1 0x0 CALLER PUSH20 0xFFFFFFFFFFFFFFFFFFFFFFFFFFFFFFFFFFFFFFFF AND PUSH20 0xFFFFFFFFFFFFFFFFFFFFFFFFFFFFFFFFFFFFFFFF AND DUP2 MSTORE PUSH1 0x20 ADD SWAP1 DUP2 MSTORE PUSH1 0x20 ADD PUSH1 0x0 KECCAK256 PUSH1 0x0 DUP6 PUSH20 0xFFFFFFFFFFFFFFFFFFFFFFFFFFFFFFFFFFFFFFFF AND PUSH20 0xFFFFFFFFFFFFFFFFFFFFFFFFFFFFFFFFFFFFFFFF AND DUP2 MSTORE PUSH1 0x20 ADD SWAP1 DUP2 MSTORE PUSH1 0x20 ADD PUSH1 0x0 KECCAK256 DUP2 SWAP1 SSTORE POP DUP3 PUSH20 0xFFFFFFFFFFFFFFFFFFFFFFFFFFFFFFFFFFFFFFFF AND CALLER PUSH20 0xFFFFFFFFFFFFFFFFFFFFFFFFFFFFFFFFFFFFFFFF AND PUSH32 0x8C5BE1E5EBEC7D5BD14F71427D1E84F3DD0314C0F7B2291E5B200AC8C7C3B925 DUP5 PUSH1 0x40 MLOAD PUSH2 0x36E SWAP2 SWAP1 PUSH2 0xBFE JUMP JUMPDEST PUSH1 0x40 MLOAD DUP1 SWAP2 SUB SWAP1 LOG3 PUSH1 0x1 SWAP1 POP SWAP3 SWAP2 POP POP JUMP JUMPDEST PUSH1 0x0 PUSH1 0x4 SLOAD SWAP1 POP SWAP1 JUMP JUMPDEST PUSH1 0x0 PUSH1 0x2 PUSH1 0x0 DUP6 PUSH20 0xFFFFFFFFFFFFFFFFFFFFFFFFFFFFFFFFFFFFFFFF AND PUSH20 0xFFFFFFFFFFFFFFFFFFFFFFFFFFFFFFFFFFFFFFFF AND DUP2 MSTORE PUSH1 0x20 ADD SWAP1 DUP2 MSTORE PUSH1 0x20 ADD PUSH1 0x0 KECCAK256 SLOAD DUP3 GT ISZERO PUSH2 0x3D8 JUMPI PUSH1 0x0 DUP1 REVERT JUMPDEST PUSH1 0x3 PUSH1 0x0 DUP6 PUSH20 0xFFFFFFFFFFFFFFFFFFFFFFFFFFFFFFFFFFFFFFFF AND PUSH20 0xFFFFFFFFFFFFFFFFFFFFFFFFFFFFFFFFFFFFFFFF AND DUP2 MSTORE PUSH1 0x20 ADD SWAP1 DUP2 MSTORE PUSH1 0x20 ADD PUSH1 0x0 KECCAK256 PUSH1 0x0 CALLER PUSH20 0xFFFFFFFFFFFFFFFFFFFFFFFFFFFFFFFFFFFFFFFF AND PUSH20 0xFFFFFFFFFFFFFFFFFFFFFFFFFFFFFFFFFFFFFFFF AND DUP2 MSTORE PUSH1 0x20 ADD SWAP1 DUP2 MSTORE PUSH1 0x20 ADD PUSH1 0x0 KECCAK256 SLOAD DUP3 GT ISZERO PUSH2 0x461 JUMPI PUSH1 0x0 DUP1 REVERT JUMPDEST DUP2 PUSH1 0x2 PUSH1 0x0 DUP7 PUSH20 0xFFFFFFFFFFFFFFFFFFFFFFFFFFFFFFFFFFFFFFFF AND PUSH20 0xFFFFFFFFFFFFFFFFFFFFFFFFFFFFFFFFFFFFFFFF AND DUP2 MSTORE PUSH1 0x20 ADD SWAP1 DUP2 MSTORE PUSH1 0x20 ADD PUSH1 0x0 KECCAK256 SLOAD PUSH2 0x4AC SWAP2 SWAP1 PUSH2 0xCA6 JUMP JUMPDEST PUSH1 0x2 PUSH1 0x0 DUP7 PUSH20 0xFFFFFFFFFFFFFFFFFFFFFFFFFFFFFFFFFFFFFFFF AND PUSH20 0xFFFFFFFFFFFFFFFFFFFFFFFFFFFFFFFFFFFFFFFF AND DUP2 MSTORE PUSH1 0x20 ADD SWAP1 DUP2 MSTORE PUSH1 0x20 ADD PUSH1 0x0 KECCAK256 DUP2 SWAP1 SSTORE POP DUP2 PUSH1 0x3 PUSH1 0x0 DUP7 PUSH20 0xFFFFFFFFFFFFFFFFFFFFFFFFFFFFFFFFFFFFFFFF AND PUSH20 0xFFFFFFFFFFFFFFFFFFFFFFFFFFFFFFFFFFFFFFFF AND DUP2 MSTORE PUSH1 0x20 ADD SWAP1 DUP2 MSTORE PUSH1 0x20 ADD PUSH1 0x0 KECCAK256 PUSH1 0x0 CALLER PUSH20 0xFFFFFFFFFFFFFFFFFFFFFFFFFFFFFFFFFFFFFFFF AND PUSH20 0xFFFFFFFFFFFFFFFFFFFFFFFFFFFFFFFFFFFFFFFF AND DUP2 MSTORE PUSH1 0x20 ADD SWAP1 DUP2 MSTORE PUSH1 0x20 ADD PUSH1 0x0 KECCAK256 SLOAD PUSH2 0x577 SWAP2 SWAP1 PUSH2 0xCA6 JUMP JUMPDEST PUSH1 0x3 PUSH1 0x0 DUP7 PUSH20 0xFFFFFFFFFFFFFFFFFFFFFFFFFFFFFFFFFFFFFFFF AND PUSH20 0xFFFFFFFFFFFFFFFFFFFFFFFFFFFFFFFFFFFFFFFF AND DUP2 MSTORE PUSH1 0x20 ADD SWAP1 DUP2 MSTORE PUSH1 0x20 ADD PUSH1 0x0 KECCAK256 PUSH1 0x0 CALLER PUSH20 0xFFFFFFFFFFFFFFFFFFFFFFFFFFFFFFFFFFFFFFFF AND PUSH20 0xFFFFFFFFFFFFFFFFFFFFFFFFFFFFFFFFFFFFFFFF AND DUP2 MSTORE PUSH1 0x20 ADD SWAP1 DUP2 MSTORE PUSH1 0x20 ADD PUSH1 0x0 KECCAK256 DUP2 SWAP1 SSTORE POP DUP2 PUSH1 0x2 PUSH1 0x0 DUP6 PUSH20 0xFFFFFFFFFFFFFFFFFFFFFFFFFFFFFFFFFFFFFFFF AND PUSH20 0xFFFFFFFFFFFFFFFFFFFFFFFFFFFFFFFFFFFFFFFF AND DUP2 MSTORE PUSH1 0x20 ADD SWAP1 DUP2 MSTORE PUSH1 0x20 ADD PUSH1 0x0 KECCAK256 SLOAD PUSH2 0x642 SWAP2 SWAP1 PUSH2 0xC50 JUMP JUMPDEST PUSH1 0x2 PUSH1 0x0 DUP6 PUSH20 0xFFFFFFFFFFFFFFFFFFFFFFFFFFFFFFFFFFFFFFFF AND PUSH20 0xFFFFFFFFFFFFFFFFFFFFFFFFFFFFFFFFFFFFFFFF AND DUP2 MSTORE PUSH1 0x20 ADD SWAP1 DUP2 MSTORE PUSH1 0x20 ADD PUSH1 0x0 KECCAK256 DUP2 SWAP1 SSTORE POP DUP3 PUSH20 0xFFFFFFFFFFFFFFFFFFFFFFFFFFFFFFFFFFFFFFFF AND DUP5 PUSH20 0xFFFFFFFFFFFFFFFFFFFFFFFFFFFFFFFFFFFFFFFF AND PUSH32 0xDDF252AD1BE2C89B69C2B068FC378DAA952BA7F163C4A11628F55A4DF523B3EF DUP5 PUSH1 0x40 MLOAD PUSH2 0x6E2 SWAP2 SWAP1 PUSH2 0xBFE JUMP JUMPDEST PUSH1 0x40 MLOAD DUP1 SWAP2 SUB SWAP1 LOG3 PUSH1 0x1 SWAP1 POP SWAP4 SWAP3 POP POP POP JUMP JUMPDEST PUSH1 0x12 DUP2 JUMP JUMPDEST PUSH1 0x0 PUSH1 0x2 PUSH1 0x0 DUP4 PUSH20 0xFFFFFFFFFFFFFFFFFFFFFFFFFFFFFFFFFFFFFFFF AND PUSH20 0xFFFFFFFFFFFFFFFFFFFFFFFFFFFFFFFFFFFFFFFF AND DUP2 MSTORE PUSH1 0x20 ADD SWAP1 DUP2 MSTORE PUSH1 0x20 ADD PUSH1 0x0 KECCAK256 SLOAD SWAP1 POP SWAP2 SWAP1 POP JUMP JUMPDEST PUSH1 0x1 DUP1 SLOAD PUSH2 0x750 SWAP1 PUSH2 0xD62 JUMP JUMPDEST DUP1 PUSH1 0x1F ADD PUSH1 0x20 DUP1 SWAP2 DIV MUL PUSH1 0x20 ADD PUSH1 0x40 MLOAD SWAP1 DUP2 ADD PUSH1 0x40 MSTORE DUP1 SWAP3 SWAP2 SWAP1 DUP2 DUP2 MSTORE PUSH1 0x20 ADD DUP3 DUP1 SLOAD PUSH2 0x77C SWAP1 PUSH2 0xD62 JUMP JUMPDEST DUP1 ISZERO PUSH2 0x7C9 JUMPI DUP1 PUSH1 0x1F LT PUSH2 0x79E JUMPI PUSH2 0x100 DUP1 DUP4 SLOAD DIV MUL DUP4 MSTORE SWAP2 PUSH1 0x20 ADD SWAP2 PUSH2 0x7C9 JUMP JUMPDEST DUP3 ADD SWAP2 SWAP1 PUSH1 0x0 MSTORE PUSH1 0x20 PUSH1 0x0 KECCAK256 SWAP1 JUMPDEST DUP2 SLOAD DUP2 MSTORE SWAP1 PUSH1 0x1 ADD SWAP1 PUSH1 0x20 ADD DUP1 DUP4 GT PUSH2 0x7AC JUMPI DUP3 SWAP1 SUB PUSH1 0x1F AND DUP3 ADD SWAP2 JUMPDEST POP POP POP POP POP DUP2 JUMP JUMPDEST PUSH1 0x0 PUSH1 0x2 PUSH1 0x0 CALLER PUSH20 0xFFFFFFFFFFFFFFFFFFFFFFFFFFFFFFFFFFFFFFFF AND PUSH20 0xFFFFFFFFFFFFFFFFFFFFFFFFFFFFFFFFFFFFFFFF AND DUP2 MSTORE PUSH1 0x20 ADD SWAP1 DUP2 MSTORE PUSH1 0x20 ADD PUSH1 0x0 KECCAK256 SLOAD DUP3 GT ISZERO PUSH2 0x81F JUMPI PUSH1 0x0 DUP1 REVERT JUMPDEST DUP2 PUSH1 0x2 PUSH1 0x0 CALLER PUSH20 0xFFFFFFFFFFFFFFFFFFFFFFFFFFFFFFFFFFFFFFFF AND PUSH20 0xFFFFFFFFFFFFFFFFFFFFFFFFFFFFFFFFFFFFFFFF AND DUP2 MSTORE PUSH1 0x20 ADD SWAP1 DUP2 MSTORE PUSH1 0x20 ADD PUSH1 0x0 KECCAK256 SLOAD PUSH2 0x86A SWAP2 SWAP1 PUSH2 0xCA6 JUMP JUMPDEST PUSH1 0x2 PUSH1 0x0 CALLER PUSH20 0xFFFFFFFFFFFFFFFFFFFFFFFFFFFFFFFFFFFFFFFF AND PUSH20 0xFFFFFFFFFFFFFFFFFFFFFFFFFFFFFFFFFFFFFFFF AND DUP2 MSTORE PUSH1 0x20 ADD SWAP1 DUP2 MSTORE PUSH1 0x20 ADD PUSH1 0x0 KECCAK256 DUP2 SWAP1 SSTORE POP DUP2 PUSH1 0x2 PUSH1 0x0 DUP6 PUSH20 0xFFFFFFFFFFFFFFFFFFFFFFFFFFFFFFFFFFFFFFFF AND PUSH20 0xFFFFFFFFFFFFFFFFFFFFFFFFFFFFFFFFFFFFFFFF AND DUP2 MSTORE PUSH1 0x20 ADD SWAP1 DUP2 MSTORE PUSH1 0x20 ADD PUSH1 0x0 KECCAK256 SLOAD PUSH2 0x8F8 SWAP2 SWAP1 PUSH2 0xC50 JUMP JUMPDEST PUSH1 0x2 PUSH1 0x0 DUP6 PUSH20 0xFFFFFFFFFFFFFFFFFFFFFFFFFFFFFFFFFFFFFFFF AND PUSH20 0xFFFFFFFFFFFFFFFFFFFFFFFFFFFFFFFFFFFFFFFF AND DUP2 MSTORE PUSH1 0x20 ADD SWAP1 DUP2 MSTORE PUSH1 0x20 ADD PUSH1 0x0 KECCAK256 DUP2 SWAP1 SSTORE POP DUP3 PUSH20 0xFFFFFFFFFFFFFFFFFFFFFFFFFFFFFFFFFFFFFFFF AND CALLER PUSH20 0xFFFFFFFFFFFFFFFFFFFFFFFFFFFFFFFFFFFFFFFF AND PUSH32 0xDDF252AD1BE2C89B69C2B068FC378DAA952BA7F163C4A11628F55A4DF523B3EF DUP5 PUSH1 0x40 MLOAD PUSH2 0x998 SWAP2 SWAP1 PUSH2 0xBFE JUMP JUMPDEST PUSH1 0x40 MLOAD DUP1 SWAP2 SUB SWAP1 LOG3 PUSH1 0x1 SWAP1 POP SWAP3 SWAP2 POP POP JUMP JUMPDEST PUSH1 0x0 PUSH1 0x3 PUSH1 0x0 DUP5 PUSH20 0xFFFFFFFFFFFFFFFFFFFFFFFFFFFFFFFFFFFFFFFF AND PUSH20 0xFFFFFFFFFFFFFFFFFFFFFFFFFFFFFFFFFFFFFFFF AND DUP2 MSTORE PUSH1 0x20 ADD SWAP1 DUP2 MSTORE PUSH1 0x20 ADD PUSH1 0x0 KECCAK256 PUSH1 0x0 DUP4 PUSH20 0xFFFFFFFFFFFFFFFFFFFFFFFFFFFFFFFFFFFFFFFF AND PUSH20 0xFFFFFFFFFFFFFFFFFFFFFFFFFFFFFFFFFFFFFFFF AND DUP2 MSTORE PUSH1 0x20 ADD SWAP1 DUP2 MSTORE PUSH1 0x20 ADD PUSH1 0x0 KECCAK256 SLOAD SWAP1 POP SWAP3 SWAP2 POP POP JUMP JUMPDEST PUSH1 0x0 DUP2 CALLDATALOAD SWAP1 POP PUSH2 0xA40 DUP2 PUSH2 0xE08 JUMP JUMPDEST SWAP3 SWAP2 POP POP JUMP JUMPDEST PUSH1 0x0 DUP2 CALLDATALOAD SWAP1 POP PUSH2 0xA55 DUP2 PUSH2 0xE1F JUMP JUMPDEST SWAP3 SWAP2 POP POP JUMP JUMPDEST PUSH1 0x0 PUSH1 0x20 DUP3 DUP5 SUB SLT ISZERO PUSH2 0xA71 JUMPI PUSH2 0xA70 PUSH2 0xDF2 JUMP JUMPDEST JUMPDEST PUSH1 0x0 PUSH2 0xA7F DUP5 DUP3 DUP6 ADD PUSH2 0xA31 JUMP JUMPDEST SWAP2 POP POP SWAP3 SWAP2 POP POP JUMP JUMPDEST PUSH1 0x0 DUP1 PUSH1 0x40 DUP4 DUP6 SUB SLT ISZERO PUSH2 0xA9F JUMPI PUSH2 0xA9E PUSH2 0xDF2 JUMP JUMPDEST JUMPDEST PUSH1 0x0 PUSH2 0xAAD DUP6 DUP3 DUP7 ADD PUSH2 0xA31 JUMP JUMPDEST SWAP3 POP POP PUSH1 0x20 PUSH2 0xABE DUP6 DUP3 DUP7 ADD PUSH2 0xA31 JUMP JUMPDEST SWAP2 POP POP SWAP3 POP SWAP3 SWAP1 POP JUMP JUMPDEST PUSH1 0x0 DUP1 PUSH1 0x0 PUSH1 0x60 DUP5 DUP7 SUB SLT ISZERO PUSH2 0xAE1 JUMPI PUSH2 0xAE0 PUSH2 0xDF2 JUMP JUMPDEST JUMPDEST PUSH1 0x0 PUSH2 0xAEF DUP7 DUP3 DUP8 ADD PUSH2 0xA31 JUMP JUMPDEST SWAP4 POP POP PUSH1 0x20 PUSH2 0xB00 DUP7 DUP3 DUP8 ADD PUSH2 0xA31 JUMP JUMPDEST SWAP3 POP POP PUSH1 0x40 PUSH2 0xB11 DUP7 DUP3 DUP8 ADD PUSH2 0xA46 JUMP JUMPDEST SWAP2 POP POP SWAP3 POP SWAP3 POP SWAP3 JUMP JUMPDEST PUSH1 0x0 DUP1 PUSH1 0x40 DUP4 DUP6 SUB SLT ISZERO PUSH2 0xB32 JUMPI PUSH2 0xB31 PUSH2 0xDF2 JUMP JUMPDEST JUMPDEST PUSH1 0x0 PUSH2 0xB40 DUP6 DUP3 DUP7 ADD PUSH2 0xA31 JUMP JUMPDEST SWAP3 POP POP PUSH1 0x20 PUSH2 0xB51 DUP6 DUP3 DUP7 ADD PUSH2 0xA46 JUMP JUMPDEST SWAP2 POP POP SWAP3 POP SWAP3 SWAP1 POP JUMP JUMPDEST PUSH2 0xB64 DUP2 PUSH2 0xCEC JUMP JUMPDEST DUP3 MSTORE POP POP JUMP JUMPDEST PUSH1 0x0 PUSH2 0xB75 DUP3 PUSH2 0xC34 JUMP JUMPDEST PUSH2 0xB7F DUP2 DUP6 PUSH2 0xC3F JUMP JUMPDEST SWAP4 POP PUSH2 0xB8F DUP2 DUP6 PUSH1 0x20 DUP7 ADD PUSH2 0xD2F JUMP JUMPDEST PUSH2 0xB98 DUP2 PUSH2 0xDF7 JUMP JUMPDEST DUP5 ADD SWAP2 POP POP SWAP3 SWAP2 POP POP JUMP JUMPDEST PUSH2 0xBAC DUP2 PUSH2 0xD18 JUMP JUMPDEST DUP3 MSTORE POP POP JUMP JUMPDEST PUSH2 0xBBB DUP2 PUSH2 0xD22 JUMP JUMPDEST DUP3 MSTORE POP POP JUMP JUMPDEST PUSH1 0x0 PUSH1 0x20 DUP3 ADD SWAP1 POP PUSH2 0xBD6 PUSH1 0x0 DUP4 ADD DUP5 PUSH2 0xB5B JUMP JUMPDEST SWAP3 SWAP2 POP POP JUMP JUMPDEST PUSH1 0x0 PUSH1 0x20 DUP3 ADD SWAP1 POP DUP2 DUP2 SUB PUSH1 0x0 DUP4 ADD MSTORE PUSH2 0xBF6 DUP2 DUP5 PUSH2 0xB6A JUMP JUMPDEST SWAP1 POP SWAP3 SWAP2 POP POP JUMP JUMPDEST PUSH1 0x0 PUSH1 0x20 DUP3 ADD SWAP1 POP PUSH2 0xC13 PUSH1 0x0 DUP4 ADD DUP5 PUSH2 0xBA3 JUMP JUMPDEST SWAP3 SWAP2 POP POP JUMP JUMPDEST PUSH1 0x0 PUSH1 0x20 DUP3 ADD SWAP1 POP PUSH2 0xC2E PUSH1 0x0 DUP4 ADD DUP5 PUSH2 0xBB2 JUMP JUMPDEST SWAP3 SWAP2 POP POP JUMP JUMPDEST PUSH1 0x0 DUP2 MLOAD SWAP1 POP SWAP2 SWAP1 POP JUMP JUMPDEST PUSH1 0x0 DUP3 DUP3 MSTORE PUSH1 0x20 DUP3 ADD SWAP1 POP SWAP3 SWAP2 POP POP JUMP JUMPDEST PUSH1 0x0 PUSH2 0xC5B DUP3 PUSH2 0xD18 JUMP JUMPDEST SWAP2 POP PUSH2 0xC66 DUP4 PUSH2 0xD18 JUMP JUMPDEST SWAP3 POP DUP3 PUSH32 0xFFFFFFFFFFFFFFFFFFFFFFFFFFFFFFFFFFFFFFFFFFFFFFFFFFFFFFFFFFFFFFFF SUB DUP3 GT ISZERO PUSH2 0xC9B JUMPI PUSH2 0xC9A PUSH2 0xD94 JUMP JUMPDEST JUMPDEST DUP3 DUP3 ADD SWAP1 POP SWAP3 SWAP2 POP POP JUMP JUMPDEST PUSH1 0x0 PUSH2 0xCB1 DUP3 PUSH2 0xD18 JUMP JUMPDEST SWAP2 POP PUSH2 0xCBC DUP4 PUSH2 0xD18 JUMP JUMPDEST SWAP3 POP DUP3 DUP3 LT ISZERO PUSH2 0xCCF JUMPI PUSH2 0xCCE PUSH2 0xD94 JUMP JUMPDEST JUMPDEST DUP3 DUP3 SUB SWAP1 POP SWAP3 SWAP2 POP POP JUMP JUMPDEST PUSH1 0x0 PUSH2 0xCE5 DUP3 PUSH2 0xCF8 JUMP JUMPDEST SWAP1 POP SWAP2 SWAP1 POP JUMP JUMPDEST PUSH1 0x0 DUP2 ISZERO ISZERO SWAP1 POP SWAP2 SWAP1 POP JUMP JUMPDEST PUSH1 0x0 PUSH20 0xFFFFFFFFFFFFFFFFFFFFFFFFFFFFFFFFFFFFFFFF DUP3 AND SWAP1 POP SWAP2 SWAP1 POP JUMP JUMPDEST PUSH1 0x0 DUP2 SWAP1 POP SWAP2 SWAP1 POP JUMP JUMPDEST PUSH1 0x0 PUSH1 0xFF DUP3 AND SWAP1 POP SWAP2 SWAP1 POP JUMP JUMPDEST PUSH1 0x0 JUMPDEST DUP4 DUP2 LT ISZERO PUSH2 0xD4D JUMPI DUP1 DUP3 ADD MLOAD DUP2 DUP5 ADD MSTORE PUSH1 0x20 DUP2 ADD SWAP1 POP PUSH2 0xD32 JUMP JUMPDEST DUP4 DUP2 GT ISZERO PUSH2 0xD5C JUMPI PUSH1 0x0 DUP5 DUP5 ADD MSTORE JUMPDEST POP POP POP POP JUMP JUMPDEST PUSH1 0x0 PUSH1 0x2 DUP3 DIV SWAP1 POP PUSH1 0x1 DUP3 AND DUP1 PUSH2 0xD7A JUMPI PUSH1 0x7F DUP3 AND SWAP2 POP JUMPDEST PUSH1 0x20 DUP3 LT DUP2 EQ ISZERO PUSH2 0xD8E JUMPI PUSH2 0xD8D PUSH2 0xDC3 JUMP JUMPDEST JUMPDEST POP SWAP2 SWAP1 POP JUMP JUMPDEST PUSH32 0x4E487B7100000000000000000000000000000000000000000000000000000000 PUSH1 0x0 MSTORE PUSH1 0x11 PUSH1 0x4 MSTORE PUSH1 0x24 PUSH1 0x0 REVERT JUMPDEST PUSH32 0x4E487B7100000000000000000000000000000000000000000000000000000000 PUSH1 0x0 MSTORE PUSH1 0x22 PUSH1 0x4 MSTORE PUSH1 0x24 PUSH1 0x0 REVERT JUMPDEST PUSH1 0x0 DUP1 REVERT JUMPDEST PUSH1 0x0 PUSH1 0x1F NOT PUSH1 0x1F DUP4 ADD AND SWAP1 POP SWAP2 SWAP1 POP JUMP JUMPDEST PUSH2 0xE11 DUP2 PUSH2 0xCDA JUMP JUMPDEST DUP2 EQ PUSH2 0xE1C JUMPI PUSH1 0x0 DUP1 REVERT JUMPDEST POP JUMP JUMPDEST PUSH2 0xE28 DUP2 PUSH2 0xD18 JUMP JUMPDEST DUP2 EQ PUSH2 0xE33 JUMPI PUSH1 0x0 DUP1 REVERT JUMPDEST POP JUMP INVALID LOG2 PUSH5 0x6970667358 0x22 SLT KECCAK256 0xF9 PUSH23 0xA34490311E7EE56D9E69FAF12BB4D6A81AD1D1C948B040 0xB8 SELFDESTRUCT SWAP15 REVERT SWAP13 0x5F SGT PUSH5 0x736F6C6343 STOP ADDMOD SMOD STOP CALLER "
				},
				"gasEstimates": {
					"creation": {
						"codeDepositCost": "505600",
						"executionCost": "infinite",
						"totalCost": "infinite"
					},
					"external": {
						"buy()": "infinite",
						"sell(uint256)": "infinite",
						"token()": "2619"
					}
				},
				"methodIdentifiers": {
					"buy()": "a6f2ae3a",
					"sell(uint256)": "e4849b32",
					"token()": "fc0c546a"
				}
			},
			"storageLayout": {
				"storage": [
					{
						"astId": 321,
						"contract": "token.sol:DEX",
						"label": "token",
						"offset": 0,
						"slot": "0",
						"type": "t_contract(IERC20)68"
					}
				],
				"types": {
					"t_contract(IERC20)68": {
						"encoding": "inplace",
						"label": "contract IERC20",
						"numberOfBytes": "20"
					}
				}
			},
			"userdoc": {
				"kind": "user",
				"methods": {},
				"version": 1
			}
		}
	}
}